:020000040000FA
:10800000C0C6FF1FFD80000099EC00001591000024
:108010000000000000000000000000000000000060
:10802000000000000000000000000000458100008A
:1080300000000000000000004781000049810000AE
:108040004D810000558100005D81000065810000C8
:1080500015A60000758100007D810000858100006B
:108060008D810000958100009D810000A5810000A8
:10807000E5AB0000BD810000C5810000CD8100009E
:10808000D5810000DD810000E5810000ED81000068
:10809000F5810000FD810000058200000D820000D6
:1080A00015820000AD8100001D82000025820000C5
:1080B0002D820000358200003D82000045820000D4
:1080C000E0AC030080C7FF1FB00B0000E0AC030072
:1080D000C0C6FF1F00000000E0AC030000C0FF1F8F
:1080E0000000000030D3FF1F80260000C0C6FF1F25
:1080F0000000000000C0FF1F0000000010B572B6B5
:1081000006F064FD0B4C0C4B9C4206D30B4B9C427F
:108110000AD362B603F060F9FEE7A26861682068DE
:1081200000F094F80C34EEE76168206800F099F8EC
:108130000834EBE7C0800000E4800000FC80000011
:10814000FEE7FEE7FEE7FEE7FEE7FEE710B5FFF716
:10815000FCFF10BD10B5FFF7F8FF10BD10B5FFF71D
:10816000F4FF10BD10B5FFF7F0FF10BD10B5FFF71D
:10817000ECFF10BD10B5FFF7E8FF10BD10B5FFF71D
:10818000E4FF10BD10B5FFF7E0FF10BD10B5FFF71D
:10819000DCFF10BD10B5FFF7D8FF10BD10B505F01E
:1081A0004BFA10BD10B505F095FD10BD10B505F0EA
:1081B00091FD10BD10B506F013F810BD10B5FFF716
:1081C000C4FF10BD10B5FFF7C0FF10BD10B5FFF71D
:1081D000BCFF10BD10B5FFF7B8FF10BD10B5FFF71D
:1081E000B4FF10BD10B5FFF7B0FF10BD10B5FFF71D
:1081F000ACFF10BD10B5FFF7A8FF10BD10B5FFF71D
:10820000A4FF10BD10B5FFF7A0FF10BD10B5FFF71C
:108210009CFF10BD10B5FFF798FF10BD10B5FFF71C
:1082200094FF10BD10B5FFF790FF10BD10B5FFF71C
:108230008CFF10BD10B505F00BFA10BD10B5FFF79F
:1082400084FF10BD10B5FFF780FF10BD002330B5CF
:108250005D181C18934200D330BD246804332C6091
:10826000F6E7002310B51C001A188B4200D310BD8E
:1082700014600433F8E7FFFFFFFFFFFFFFFFFFFF7E
:10828000FFFFFFFFFFFFFFFFFFFFFFFFFFFFFFFFFE
:10829000FFFFFFFFFFFFFFFFFFFFFFFFFFFFFFFFEE
:1082A000FFFFFFFFFFFFFFFFFFFFFFFFFFFFFFFFDE
:1082B000FFFFFFFFFFFFFFFFFFFFFFFFFFFFFFFFCE
:1082C000FFFFFFFFFFFFFFFFFFFFFFFFFFFFFFFFBE
:1082D000FFFFFFFFFFFFFFFFFFFFFFFFFFFFFFFFAE
:1082E000FFFFFFFFFFFFFFFFFFFFFFFFFFFFFFFF9E
:1082F000FFFFFFFFFFFFFFFFFFFFFFFFFFFFFFFF8E
:10830000FFFFFFFFFFFFFFFFFFFFFFFFFFFFFFFF7D
:10831000FFFFFFFFFFFFFFFFFFFFFFFFFFFFFFFF6D
:10832000FFFFFFFFFFFFFFFFFFFFFFFFFFFFFFFF5D
:10833000FFFFFFFFFFFFFFFFFFFFFFFFFFFFFFFF4D
:10834000FFFFFFFFFFFFFFFFFFFFFFFFFFFFFFFF3D
:10835000FFFFFFFFFFFFFFFFFFFFFFFFFFFFFFFF2D
:10836000FFFFFFFFFFFFFFFFFFFFFFFFFFFFFFFF1D
:10837000FFFFFFFFFFFFFFFFFFFFFFFFFFFFFFFF0D
:10838000FFFFFFFFFFFFFFFFFFFFFFFFFFFFFFFFFD
:10839000FFFFFFFFFFFFFFFFFFFFFFFFFFFFFFFFED
:1083A000FFFFFFFFFFFFFFFFFFFFFFFFFFFFFFFFDD
:1083B000FFFFFFFFFFFFFFFFFFFFFFFFFFFFFFFFCD
:1083C000FFFFFFFFFFFFFFFFFFFFFFFFFFFFFFFFBD
:1083D000FFFFFFFFFFFFFFFFFFFFFFFFFFFFFFFFAD
:1083E000FFFFFFFFFFFFFFFFFFFFFFFFFFFFFFFF9D
:1083F000FFFFFFFFFFFFFFFFFFFFFFFFFFFFFFFF8D
:10840000FFFFFFFFFFFFFFFFFFFFFFFFFEFFFFFF7D
:10841000C8CEFF1FA305070A00000000FCCEFF1F07
:10842000BE0106060000000018CFFF1F4701060A24
:1084300001000000A0D4FF1F050004001540020049
:10844000B4D4FF1F01003C0014400200BCD4FF1F45
:108450000100380013400200B8D4FF1F01000800DB
:1084600012400200C0D4FF1F010020001140020092
:1084700010B5444A06201378002B00D081E001217A
:108480001170414A5F3111804048414A195C99544A
:108490000133102BFAD100233E4C3F48195CE218FF
:1084A0000133D170102BF9D100233C4C3C48195CAE
:1084B000E2180133D170102BF9D10023394C3A481E
:1084C000195CE2180133D170102BF9D10023374C1D
:1084D0003748195CE2180133D170102BF9D1002311
:1084E000344C3548195CE2180133D170102BF9D1A6
:1084F0000023324C3248195CE2180133D170102B42
:10850000F9D100232F4C3048195CE2180133D170A7
:10851000102BF9D100232D4C2D48195CE2180133A2
:10852000D170102BF9D100232A4C2B48195CE2188A
:108530000133D170102BF9D10023284C2848195C45
:10854000E2180133D170102BF9D10023254C2648B5
:10855000195CE2180133D170102BF9D10023234CA0
:108560002348195CE2180133D170102BF9D1002394
:10857000204C2148195CE2180133D170102BF9D13D
:10858000002010BDD8F7FF1FB0ECFF1F68D2FF1FFF
:10859000D9F7FF1F45D0FF1F28D2FF1F58D0FF1F5C
:1085A00038D2FF1F6BD0FF1F48D2FF1FB4CFFF1F71
:1085B000D8D1FF1FA1CFFF1FC8D1FF1F5ECFFF1F64
:1085C00098D1FF1F71CFFF1FA8D1FF1F84CFFF1FBE
:1085D000B8D1FF1FE9CFFF1FF8D1FF1FFCCFFF1F4E
:1085E00008D2FF1F0FD0FF1F18D2FF1FCCCFFF1FD5
:1085F000E8D1FF1F7ED0FF1F58D2FF1F0B4A030098
:10860000128810B5824201D8013A90B2084A094C4A
:108610001168A04204D00201525A9A4201D2054880
:1086200010BD9A42FCD0013880B2F2E7B0ECFF1FD7
:1086300080C7FF1FFFFF000010B50400082028F0CE
:1086400050F8011E0AD00A2344600360044828F051
:1086500019F8044B0121186802F056FE10BDC046FF
:10866000D8D4FF1FD0D4FF1F70B50500102028F00C
:1086700038F8041E11D0022303602B780A220371FC
:10868000A91C063007F0F4FA2100044827F0FAFF8D
:10869000034B0121186802F037FE70BDD8D4FF1FCC
:1086A000D0D4FF1F10B504F033FB024B1B78002B16
:1086B000F9D110BDEF9D03000B7870B506000D00D9
:1086C0002C20092B1BD14A6827335168002903D07D
:1086D0001378107C1B183033916816204C1EA14172
:1086E000494208401B18D068D269411E8841511E7A
:1086F0008A410001C318062052421040C01827F0DA
:10870000F0FF041E4ED00123067103602B78092B65
:1087100049D16E6803721030E0606968250020223C
:1087200028F07BF873683035002B13D0E36832787B
:108730005D601A702800716828F06FF83378327C19
:10874000ED18E36828005D611A74716928F065F816
:10875000337CED18B368002B11D0E36828009D60CE
:108760001022B16828F059F82800B27EE368103072
:108770009A76D8610622F16928F04FF81635F36829
:10878000002B06D010222800E368DD60F16828F095
:1087900044F82100064827F075FF064B01211868B0
:1087A00002F0B2FD70BD242229000830EFE7C04678
:1087B000D8D4FF1FD0D4FF1FFD220B7870B5023B29
:1087C00006000D001420134201D1C888143027F090
:1087D00088FF041E1CD004230C22036006712900AC
:1087E000083028F01AF8FD22237A023B134206D102
:1087F000200014302061EA88A96828F00EF82100D2
:10880000044827F03FFF044B0121186802F07CFD6B
:1088100070BDC046D8D4FF1FD0D4FF1F70B505006F
:10882000282027F05EFF041E0ED00023242208C05B
:10883000290027F0F2FF2100044827F023FF044B12
:108840000121186802F060FD70BDC046D8D4FF1F3A
:10885000D0D4FF1F0023F0B585B0039303AB009382
:1088600001234F4E5B4200224E49306802F066FD04
:108870004D4D2B68002B15D0280027F00DFF041E4E
:1088800010D000680A280AD807F098FA06453C4339
:108890004E505A6466707200201D00F0E5FB200007
:1088A00027F025FF414C2378002B03D100F082FBF9
:1088B00001232370002004F031FD3D4F3B68002B65
:1088C0000CD0380027F0E8FE041E07D00368002B08
:1088D00001D040689847200027F009FF2A68531EFE
:1088E0009A413B68591E8B415B001343039303D0AD
:1088F0000221306802F008FD2E4B1B78002BADD111
:1089000005B0F0BD2C4B1B68002BC8D0201D98472C
:10891000C5E72A4BF7E72A4B1B68002BBFD0210085
:10892000207908319847BAE7264BF5E7264B1F68B0
:10893000002FB4D02389A27961792079B847AEE7B6
:10894000224B1F68002FAAD063892189207B62688F
:10895000B847A4E71E4BF4E71E4B1F68002F9ED0BC
:1089600022002389E18820790A32F1E71A4BCAE70D
:108970006768380027F01EFE002803D1380002F097
:10898000E7F98CE7380020F0BBFF002800D186E72C
:10899000002312491A00180027F02FFE7FE7C04677
:1089A000D0D4FF1FFFFFFF00D8D4FF1FF0F7FF1F39
:1089B000C4D4FF1FEF9D0300E4D4FF1F04D5FF1FA5
:1089C000E8D4FF1FF8D4FF1FF4D4FF1FF0D4FF1F1B
:1089D000ECD4FF1F00D5FF1FFCD4FF1F019902003C
:1089E00070B5294B04001D78002D49D101221A7061
:1089F00004F0BCF901F0D6FE02F09CF9234802F025
:108A0000A1F902F0E1FA280002F032FB28F00DFC97
:108A100028F007FC04F028FC280004F07FFC04F098
:108A20004FF81B4D1B4B1C4A29681A6000290AD1BC
:108A30001A4802F0CFFB2860002804D1030002008E
:108A4000010027F0DAFD27F050FB012002F044FC82
:108A5000134B1860002806D100231A0019001800D3
:108A600027F0CBFD70BD00210E4827F051FE0E48C7
:108A7000002127F04DFE0D4800F0F6F90028EBD15B
:108A80002000FFF7E7FEEDE7EFF7FF1F3986000054
:108A9000D4D4FF1FDCE7FF1F9500030084CDFF1F28
:108AA000D0D4FF1FD8D4FF1FC4D4FF1F1D880000DF
:108AB00010B5044B1860044B04481960044920F0B9
:108AC0006BFD10BDE4D4FF1FE8D4FF1F69860000D2
:108AD000B986000010B5034B186003482EF0D7FF8D
:108AE00010BDC046F8D4FF1FB987000010B500289C
:108AF0001ED1104804F078F80F4804F075F80F48BC
:108B000004F072F80E4804F06FF80E4C200004F0E8
:108B10006BF8201D04F068F82000083004F064F8B9
:108B200020000C3004F060F82000103004F05CF8F5
:108B300010BDC046C0D4FF1FB8D4FF1FBCD4FF1F58
:108B4000B4D4FF1FA0D4FF1FF0B587B002930EABC3
:108B50001B78071E00910192039311D1254A9B00B7
:108B6000D3180593781E032803D807F027F90B12B2
:108B70001920009B002B2ED10137FFB2052FF1D118
:108B800007B0F0BD019B002BF6D00826019D1A4CC2
:108B900024E0029B002BEFD03826029D174C1DE0ED
:108BA0000C9B002BE8D03C260C9D154C16E00D9B31
:108BB000002BE1D0039B042BDED804260D9D059CE1
:108BC0000CE029002068320027F027FE20000499DD
:108BD00004F076F8D0E72026009D0A4C200003F030
:108BE00087FF04900028ECD000212000256004F0CD
:108BF000A7F8C1E7A0D4FF1FB8D4FF1FBCD4FF1F44
:108C0000B4D4FF1FC0D4FF1FF7B51E000AAB040089
:108C100015001F780091002811D11C4ABB00D31801
:108C20000193601E032803D807F0C8F80A10161D28
:108C3000009B002B20D10134E4B2052CF1D1F7BD0B
:108C4000002DF8D028000822114B18E0002EF2D099
:108C5000300038220F4B12E0089B002BEBD03C2257
:108C600008980D4B0BE0099B002BE4D0042FE2D8B1
:108C700004220998019B02E020220098074B196802
:108C80000029D8D027F0C9FDD5E7C046A0D4FF1FE2
:108C9000B8D4FF1FBCD4FF1FB4D4FF1FC0D4FF1F24
:108CA000074B10B51A68930608D5064B1205D21764
:108CB0001A40054BFB21D21820F0B8FD10BDC0466C
:108CC00008D5FF1F483A000048080000F0B50578B5
:108CD0008FB0012D50D00B2D4AD0002D46D14268C7
:108CE0003B4B29001A6003A80C22029507F012F8EA
:108CF0006B4602ACDF1D39002000DD7105F0E2FF9C
:108D00003978002932D04A1EA35C06AD0133A35442
:108D100020002A0027F03BFC2E4E29003278706894
:108D200027F07BFD397820004A1EA35C0133A35451
:108D30002A0027F02CFC10222900F06827F06DFD96
:108D4000397820004A1EA35C0133A3542A0027F07F
:108D50001EFC2B78022229001F48338327F05DFD7B
:108D60001A21327C7069694427F057FD0FB0F0BDBD
:108D7000011D06221948F7E7D32283885200934247
:108D80000AD019D8082B0ED8062BEFD900231A00C9
:108D90001900180027F031FC00231A0019001800F0
:108DA00027F02BFC0CE00A2BE0D100231A0019005D
:108DB000180027F022FCD9E78122D2009342D5D1B6
:108DC00000231A001900180027F017FCEDE7C04631
:108DD00008D5FF1FECCDFF1F04CEFF1FF1F7FF1FCB
:108DE00007B520F0E9FC074B1A6890231B011A42D3
:108DF00007D0002103230A0001200191009320F0F5
:108E000039FD07BD08D5FF1F70B5124D2C68002C29
:108E100001D0012070BD012002F05EFA0E4B1860F7
:108E20000028F6D021000D4827F072FC21000C48E4
:108E300027F06EFC21000B4802F0CCF903002860FB
:108E40002000002BE6D123002200210027F0D5FBD3
:108E5000DFE7C04628D5FF1F24D5FF1F0CD5FF1F15
:108E600018D5FF1FA4CDFF1F70B5040006F014FE37
:108E7000050001F09FF8134BEDB218800820002D7B
:108E800004D106F059FD002801D0072070BD0E4B1B
:108E900018700E4B18700E480AF076FF0028F4D1B7
:108EA00028F0F6F906F02AFD03000520002BEDD08E
:108EB000FFF7AAFF0028E8D1200006492EF0DCFFCA
:108EC000E4E7C0461CCFFF1FD9F8FF1FDAF8FF1FE9
:108ED000116C02009F14030010B50E4B0E485B7816
:108EE000002B04D0012B0BD020F0C4FA10BD20229F
:108EF00083730280094B10324280123A1A60F3E702
:108F0000C823DB0096220380438000235200837332
:108F1000024BF3E7FBF7FF1F1ECFFF1F34D5FF1FE8
:108F200010B5024806F0EEFA10BDC0465CCEFF1F39
:108F3000002310B50248837006F09CFC10BDC046AB
:108F40000CCEFF1F10B520F055FB044B5A78002AB9
:108F500001D101325A70FFF7BFFF10BDFBF7FF1FB1
:108F6000037807B5002B02D0012B14D007BD0D4AA2
:108F70001378594259411170002BF7D10A4A1168F0
:108F8000FA2292004A430949087800931821084BB5
:108F900027F044F9EAE700231A001900180027F027
:108FA0002CFBE3E7FBF7FF1F34D5FF1FFDF7FF1F87
:108FB000458F000010B5054B1B78FF2B04D1002214
:108FC000034B5A70FFF788FF10BDC04617D3FF1F31
:108FD000FBF7FF1F37B50D00040027F05CF82D7874
:108FE000002D02D00D2D21D037BD164B21001C7055
:108FF000154B16481D7028F022F9200006F0D6F80F
:10900000134B187801F014FC124B12211878124AF5
:10901000124B009527F002F9FA22114B1221187811
:109020009200104B009527F0F9F8DDE72100074882
:1090300028F00EF906F0C0F8FF22024B1A70FFF775
:10904000B9FFD1E717D3FF1FFBF7FF1F0CCEFF1FA0
:10905000FDF7FF1FFEF7FF1F10270000318F0000F4
:10906000FFF7FF1F218F000010B50400FFF72EFE51
:109070002078042824D806F0A1FE03232E242900FA
:10908000FFF7AEFE1748FFF725FD0023164A1748E5
:109090001370837028F0E5F8154806F0AFFA15480C
:1090A00006F09AFA01F09CFB134B187001F098FB44
:1090B00001F096FB114B187001F092FB104B1870E9
:1090C00010BD1049104820F0F7F9F9E70F49104892
:1090D000FFF7EEFCF4E700231A001900180027F050
:1090E0008CFAEDE7C7000300FBF7FF1F0CCEFF1F54
:1090F00018CEFF1F5CCEFF1FFDF7FF1FFEF7FF1FFF
:10910000FFF7FF1F2CD5FF1FE4CDFF1FD58F0000F9
:10911000618F000004207146084202D0EFF30980FD
:1091200001E0EFF3088081690A88044B9A4200D07D
:10913000FEE702318161202101607047ABBE000073
:10914000F0B585B00290002802D1042005B0F0BD32
:10915000029A029B5268FE4950681B68019248605F
:109160001868FC49019A88639468FB48019A046076
:10917000D468FA48019A04601469F948019A0460B5
:109180005469F848019A04609469F748019A0460A8
:10919000D469F648019A0460146AF548019A04609B
:1091A000546AF448F4490460019AF448946A019AB4
:1091B0000460D46AF248019A0460146BF148019A81
:1091C0000460546BF048019A0460946BEF48019A74
:1091D0000460D46BEE48019A0460146CED48019A67
:1091E0000460546CEC48019A0460946CEB48019A5A
:1091F0000460D46CEA48019A0460146D4460019ADA
:10920000546D019A8460946D019AC460D46D019A82
:109210000461146E019A4461546EE24A8461586894
:1092200010609C68E04804600198DC68806E204310
:1092300048620198C06E886201981C69006F2043E3
:10924000C8620198406F08635869C8639869886369
:109250000198806F08600198C06F486001980430E1
:10926000C06F886001980830C06FC860019888306E
:1092700000680861D869486301988C300468CB485D
:109280000460019890300068486401989430006848
:109290008864019898300068C86401989C30006820
:1092A00008650198A03000684865186AC0490860E0
:1092B000586AC04908600199986AA4310968014355
:1092C000BD480160D86ABD490860186B4860586B9A
:1092D000886101989C6BA83000682043C860D86BF7
:1092E000086101981C6CAC30006820434861586CE0
:1092F000C86101989C6CB030006820430862D86C4B
:1093000048620199186DB43109680143AC480160A5
:10931000586DAC490865986DC8640198DC6DB8302B
:10932000006820438860186E086101985C6EBC304C
:10933000006820430866986E1C008864D86E8834E4
:109340000860186FC861586FC862986F019D886186
:10935000D86FCC350863181DC06F486318000830FB
:10936000C06F486001982468C030006820430862DC
:10937000190001988C31C43000680968924C01438F
:109380008120616001998000C8310968215019006D
:1093900028681D009031096894350143A160019946
:1093A0002868D031096804350143822080002150AB
:1093B00001992868D431096804350143E1600199B5
:1093C000D8310968286883250143AD00615119002F
:1093D000019EA031DC36306809683C3D01432161C3
:1093E0001900A431080001990068E03109680143BF
:1093F000764801601900A83108687549C8671900E6
:10940000AC3108687349C8671900B03108687249FF
:1094100008601900B4310868704908601900B83153
:1094200008686F4908601900BC3108686D49086018
:109430001900C03108686C4908601900C431096816
:10944000C82061511900C83109684000E16719005E
:10945000CC3109683C3D61671900D0310968A167CA
:109460001900D4310968019E21661900D8310968B4
:10947000E836E1651900DC31096821501900E03156
:1094800009685A4861511900E431096801611900FD
:10949000E831096841661900EC3109686163019996
:1094A000E4310968C1671900F03109688166190063
:1094B000F431096821641900F83135680968019EA2
:1094C000294361621900EC36FC3135680E6835437A
:1094D000019EA562F03635686564019E019FF436F1
:1094E00035688426B600A5514E68FC3746618E6803
:1094F0008661CE68C6630E69C6614E6906628E6972
:109500004662CE6986620E6AC6624E6A06638E6ADB
:109510004663CE6A8663019EF83635680E6B354326
:10952000EA267600A5513D0085272E68BF00E6514A
:109530004E6B66668E6BA666CE6BE6660E6C266715
:109540004E6C26658E6C6665CE6CA6650E6D4FE022
:109550000060084000620840B8780840BC780840C5
:10956000C0780840C4780840C8780840CC780840E3
:10957000D0780840D478084000780840D87808406F
:10958000DC780840E0780840E4780840E878084053
:10959000EC780840F0780840F4780840F878084003
:1095A000FC780840AC780840B07808408C780840D7
:1095B00098780840A87808409478084000750840DA
:1095C0008072084000760840007008409C70084097
:1095D0000470084008700840887008408C7008408B
:1095E000907008409470084098700840FC700840E3
:1095F000A6614E6DE661D0266F687600A751882778
:10960000AE68BF00E651EE687C3FE651E4262F6964
:109610007600A7516F698036A751AF697C3EA7518C
:10962000EF698036A75189272E6ABF00E651D426FC
:109630006F6A7600A751AF6A8036A751D627EE6AC7
:109640007F00E6518B262F6BB600A7516F6B7C3ED7
:10965000A751AF6B8036A751DA27EE6B7F00E6513A
:109660008D262F6CB600A7516F6C7C3EA751AF6C56
:109670008036A751EF6C7C3EA7518F272E6DBF001F
:10968000E6516E6D7C3FE6519026AA6DB600A25160
:10969000EA6D7C3EA2512A6E8036A2516A6E8E6DB2
:1096A000164326608026AA6EB600A251EA6E503696
:1096B000C2642A6FA2516A6F04360265AA6FA25172
:1096C000ED6FBE2245659625019E52009446B25824
:1096D000AD00019E6251D83D7259019E82650435EC
:1096E0007259019ED8356251D43D7259019DC265AF
:1096F000C62040002A589825AD006251019D0430D3
:109700002A58CA25019E4C3022506D0072594C35A2
:109710006251CA6DF14DF24E2A600A6E6A604A6E5D
:10972000AA628A6EEA62CA6E72620A6FB2624A6F97
:109730006A628A6F2A636246C96F69639958A9632E
:10974000C02149005A580431EA635A5804312A6446
:109750005A5804316A645A580431AA645A58043178
:10976000EA645A5804312A655A5804316A655A58CD
:109770000431AA655A580431EA655A5804312A66F8
:109780005A5804316A665A580431AA665A58043144
:10979000EA665A5804312A675A5804316A675A5897
:1097A000D049AA67DA590437EA67DA590437CA6731
:1097B000DA59CD490437CA67DA59CC4904370A6007
:1097C000DA59CB4954370A60EA2149005A58C94945
:1097D0000A60EC2149005A58C7490A601858C7491D
:1097E0000860F02149005858C5490860F221490035
:1097F0005858C4490860F42149005858C2490860C3
:10980000F62149005858C1490860F82149005858C4
:10981000BF490860FA2149005858BE490860FC2039
:1098200040001A58BC4904300A601A58BB490A6003
:10983000802189005858BA49086081208000185852
:10984000B8490860822080001A58B748B7490260BA
:109850008320800018580860842080001858B4497C
:109860000860852080001858B24908608621890068
:109870005858B1490860872189005858AF49086095
:10988000882080001858AE490860D859AD4904377F
:109890000860D859AC4904370860D859AB49043737
:1098A0000860D859AA4904370860D859A94904372B
:1098B0000860D859A849043708609220D95904375C
:1098C0003160D95904377160D9598000B160195895
:1098D0000430F16019580430316119580430716155
:1098E00019580430B1611A580430F2611958019FB7
:1098F0002962C43899493A58019FCA6504303A58D8
:10990000019F4A6504303A5898278A65BF00D859A4
:10991000019A48609920BC3F8000D2591858019F95
:10992000104388609A2080001858C860D4204000F6
:109930003A58D62701980A617F00C0598861D8201B
:10994000019F40003A58DA270198CA617F00C05948
:10995000019F0862DC2040003A58DE274A62019AE3
:109960007F00B430D25918580437104348619C2006
:10997000019A8000D25918580392104388629D20A2
:10998000800018580437C8629E2080001858086369
:109990009F20800018584863A020800018588863D2
:1099A000A12080001858C863A220800018580864BD
:1099B000A32080001B580198C25913430B6000F08C
:1099C000F9FA0C2800D0D7E06549664A0B680B38D5
:1099D00013400B600A68644B13430B60029B1B68C7
:1099E000002B75D01A00C024FC32176E5F4864004B
:1099F00039186960976F39182963D26F01001218FE
:109A00006A631A5904341218EA631A590434121892
:109A10002A641A59043412186A641A59DE27121873
:109A2000C820AA6440001A5810305218EA64CA22AA
:109A300052009A587F0052182A65CC2252009A5838
:109A40003C3452186A65CE2252009A585218AA65C0
:109A50001A5808305218EA651A58083052186A66BF
:109A60001A5808305218EA661A58503052186A6765
:109A7000DA5904375218AA67DA5904375218EA67D4
:109A8000DA59184D5218EA671A59174C5218E267FA
:109A90000C37DA59164C52182260EA2252009A58B2
:109AA000144C52182260FC2252009A581A4C521838
:109AB0002260FE2252009A58184C521822601A58FE
:109AC000194C5218226050301B5800205B18F3616B
:109AD000274B284A1A80FFF739FBC046807308409D
:109AE0007C740840847308408873084008740840F8
:109AF0000C74084010740840147408401C7408402A
:109B00002074084024740840287408402C740840CD
:109B10003074084034740840387408403C7408407D
:109B20004074084044740840487408404C7408402D
:109B30005074084054740840587408405C740840DD
:109B40006074084064740840687408406C7408408D
:109B500070740840747408407874084000770840B6
:109B6000AC780840C0C0FFFF1010000024240000A3
:109B70002ECFFF1F1823000000F01CFA062801D08A
:109B8000FFF7E3FA0323084900200A689A430A60B2
:109B90000A681343C6220B60044B5200A350044BC7
:109BA000044A1A80FFF7D2FAAC78084080366A5A25
:109BB0002ECFFF1F1869000003000420002B36D0B1
:109BC0001B4A5968002011609968D160D9681161F9
:109BD000196951615969916499699161D969D16132
:109BE000196A1166596AD164996A5165D96AD16254
:109BF000196B5163596B1165996B9165D96BD1657F
:109C0000196C5164596C9166996CD166D96C516626
:109C1000196D1163596DD163996D1162D96D5162DE
:109C2000196E9162596E11649A6E024B1A607047F8
:109C300000620840B0780840F0B53C4B3C4C85B021
:109C4000E3633C49060006F0CDF8E56D2D0B2D03CE
:109C5000284380252D020543E565300009F088F88A
:109C60000022354B07F04AFE0090019105F084FF79
:109C700006F006FB060009F07BF802000B000098D6
:109C8000019908F0ADFC2D4B002206F04BFA431E63
:109C900098412B4D36182E60300009F069F80022EB
:109CA000284B0290039108F02FFA02000B0007F0F6
:109CB000BBFA254A254B07F021FE029A039B0600BA
:109CC0000F000098019908F08BFC00221D4B08F052
:109CD0001BFA02000B0007F0A7FA1B4A1B4B07F008
:109CE0000DFE32003B0007F09FFA32003B0008F007
:109CF00077FC05F0EBFE2B68FE251B04ED03626B81
:109D00002B40134D2A4013438022120613436363F2
:109D100008F0F8FF4021A06300200E4B9A6A0A4326
:109D20009A629A6A8A439A6205B0F0BDFFFFFF0704
:109D30000076084040420F0080848E410000E03FE2
:109D400038D5FF1F80847E410090D0038084DE3FA1
:109D5000FFFF80FF8073084010B500F07DFC982362
:109D60000349044A1B06885803438B5010BDC04664
:109D7000007004403810000042B203000120002AA5
:109D800007DB044A0449106B1B040840034300200E
:109D900013637047FC900540FFFF00FF03000120A4
:109DA000002B1CD00E4A00201169196051695960BE
:109DB00091699960D169D960116A1961516A5961D3
:109DC000916A9961D16AD961116B1962516B5962BB
:109DD000916B9962D26BDA62024AD26A1A63704757
:109DE000FC700840007008400A4B0B495A6B520047
:109DF00052085A639A680A409A60DA6D07490A4025
:109E00004021DA65064B9A6A0A439A629A6A8A4343
:109E10009A627047007608400000FFF0FF7FFFFF66
:109E200080730840030010B5FF2803D1FFF7DCFF63
:109E3000002010BD42B20120002AFADB044A054985
:109E400090680840184390231B0518439060EFE783
:109E5000007608400000FFF00823024A11680B4317
:109E600013607047807308400821024A13688B43CF
:109E70001360704780730840FF22054B05485B68FC
:109E80001B0C1340416811409942FBD17047C046FA
:109E90008073084080720840F8B51B4D070001240C
:109EA0006E6A00282DD0194A6B6A194813406B62FC
:109EB000FFF7C2FEFFF7D0FFFFF7DEFF00F0F2F87A
:109EC000002804D100F0EEF80234002800D000246D
:109ED000002000F0C1FAFFF7C7FF002C03D10D48A6
:109EE000FFF7AAFE0400FFF77FFF002C03D1380024
:109EF000FFF754FF040080226B6A120216401E43D3
:109F00006E622000F8BDC04600700840FF7FFFFF72
:109F10004036288E809C2B8F0300012030B50D0029
:109F200014008FB0824214D8180026F0DFF80A4BD4
:109F30000A4A5B685B005B0F1370002809D1280098
:109F400026F0DDF8012C04D1002802D101A8FFF78A
:109F5000A3FF0FB030BDC0460075084004F8FF1FD6
:109F600070B505000C00FFF7F7FE01222100280064
:109F7000FFF7D2FF00280BD12B685A68054B1178E8
:109F800019705178597092789A7022681278DA7044
:109F900070BDC04600F8FF1F0438082803D8034BE3
:109FA000185680B270470248FCE7C046A99D0300DE
:109FB000FFFF000010B5034B1869000EFFF7ECFF20
:109FC00010BDC04600900540F0B5002585B0019059
:109FD000029103920026FFF74FFF2F1C039B9E4226
:109FE00016D1300007F0E4F8011C041C381C06F000
:109FF000CDFB07F077F8019B211C1880281C06F088
:10A00000C5FB07F06FF8029B1880012005B0F0BD7A
:10A01000164B8022DC6B802320051B011201000DF2
:10A020002340144201D0F0231B02184300B207F072
:10A0300079F8011C381C06F00DFA80238022240CCC
:10A04000071C1B0120051201000D2340144201D002
:10A05000F0231B02184300B207F064F8011C281C0F
:10A0600006F0F8F90136051CB6B2B7E700700840F3
:10A07000094B0A499A6A0A409A628022996A5203F5
:10A080000A439A628022996A92030A439A629A6A00
:10A0900003490A409A6270477C740840FFFFDFFF63
:10A0A000FFFFCFFF0021F0B5D64D97B00AAB9E1C45
:10A0B00019806B6AD44A0593AB6A318006932B688A
:10A0C0000F000793AB6808936B6B09932B681340E1
:10A0D0002B60C02320229B03AB606B6A93431A0062
:10A0E0001E2313436B62C94BEB622963FFF7C0FF6A
:10A0F000EB6A310040220AA80093FFF765FF0AAB24
:10A10000C34C1B882770638033882773E381009BCF
:10A11000FF373B400393009B3F221B0A3B40FF2736
:10A120000493009B3F043B400193009B01991F0E49
:10A130003B06FC270293039BBF01103B13400B43DC
:10A1400002990AA80B43049910390A023A401343B2
:10A1500031004022EB62FFF737FFF0233F222371EB
:10A1600023740AAB1B883100E38033880AA863821A
:10A17000039B10331340019A1343029A1343049A2A
:10A180001032120217401F434022EF62FFF71CFFFC
:10A190001023237223750AAB1B88201D638133882B
:10A1A000E382009BEB620223E65E310025F0B0FF04
:10A1B000009020000E23E75E1030390025F0A8FF44
:10A1C000019020003100083025F0A2FF061C20007D
:10A1D0003900143025F09CFF311C041C009806F057
:10A1E00039F9019906F036F9211C06F033F9FA2104
:10A1F000890506F095FC8221C905041C06F090FC37
:10A2000005F0F0FC06F024F80300FB3B02900095FB
:10A210000020352B00D9B0E08E20211CC00506F0AF
:10A22000B5FA05F0DFFC06F013F803270BAB03903B
:10A230000193381F09280DD8764DFC3505F0C8FD6F
:10A24000AE00B800BF00C600CD00D400DB00F600B1
:10A25000FD000401029806F0ABFFFE26041C6E48C8
:10A26000B605011C301C06F091FA011C201C06F0FA
:10A2700057FC8221C905041C06F052FC05F0B2FC13
:10A2800005F0E6FF019B211C18808E20C00506F01A
:10A290007DFA05F0A7FC05F0DBFF019B0137588034
:10A2A000FFB2043301930E2FC3D10A21029B5B4DF1
:10A2B0001804039B0BACDB04DB0C184326882861D5
:10A2C00060884E4305F08EFD554F36043E4080B207
:10A2D00006436E61A388E2881B04D2043B40D20C83
:10A2E0001343AB61238962891B04D2043B40D20C27
:10A2F0001343EB61A389E2891B04D2043B40D20CD7
:10A3000013432B62238A628A1B04D2043B40D20C83
:10A3100013436B62A38AE28A1B04D2043B40D20C33
:10A320001343AB62238B01201B041F40638B3D4909
:10A33000DB04DB0C1F43EF62A28BE38B1204DB0414
:10A340000A40DB0C1A432A63238C628C1B04D20460
:10A350000B40D20C13436B63A28CE38C3249120482
:10A36000DB04DB0C0A401A43AA63238D628D1B04B5
:10A37000D2040B40D20C1343EB63009B059A5A6244
:10A38000009B069A9A62009B079A1A60009B099AA2
:10A390005A63009B089A9A6017B0F0BDAB68180C1E
:10A3A00006F006FF061C6868000C06F001FF58E77F
:10A3B0002B69180C06F0FCFE061CA868F4E76B6914
:10A3C000180C06F0F5FE061C2869EDE7AB69180CC1
:10A3D00006F0EEFE061C6869E6E7EB69180C06F06D
:10A3E000E7FE061CA869DFE72B6A180C06F0E0FE02
:10A3F000061CE869D8E76B6A180C06F0D9FE061C43
:10A40000286AD1E700700840FF57FFFF20208080B6
:10A41000B2ECFF1F948D03006666E641FC700840B5
:10A420000000FF0F0000FF1F0000FF3FAB6A180C89
:10A4300006F0BEFE061C686AB6E7EB6A180C06F06A
:10A44000B7FE061CA86AAFE7EB68180C06F0B0FE72
:10A45000061CE86AA8E7C046F0B58FB0684C0290C9
:10A4600008A825F070FE0BA825F06DFE636A039323
:10A47000A36A049323680593A3680693636B079309
:10A4800000230193029B002B0BD05E4A0C209368A3
:10A49000019301995C4B0B409360FFF7C3FCFFF7FE
:10A4A000DBFCC0262368594AB603134020222360F0
:10A4B000A660636A0BA993431A001E2313433F222D
:10A4C000636208AB5B79F027134008AA12790B2569
:10A4D000120413430A793F0312061A434B79FC21F5
:10A4E0001B0289010B401343E362013DEDB22B04D3
:10A4F0003B4033434022A3600BA908A8FFF764FD4B
:10A5000008AB00229B5E424A002B50DD9342ECDCFC
:10A510000BAB00215B5E002B4EDD9342E5DCFC269D
:10A5200000253F27B601290008A825F063FE290071
:10A530000BA825F05FFE08AB1B7A002B42D008ABBE
:10A540001B7D002B3ED008AB5B7A002B3AD008ABCA
:10A550005B7D002B36D03F2208AB5B790BA9134003
:10A5600008AA1279120413430A7912061A434B7986
:10A57000FC211B0289010B401343E362029B002B69
:10A5800007D0FFF771FCFF20FFF74CFC1D4B019A31
:10A590009A60039B6362049BA362059B2360079BF5
:10A5A0006363069BA360FFF763FD0FB0F0BD5B42E2
:10A5B0009BB2934299D8ABE75B429BB2934200D9DE
:10A5C00093E7ACE708AB1B880BA908AA53800B885C
:10A5D00001354B80537912793B40120413430A79B9
:10A5E00008A8120613434A79EDB21202324013430F
:10A5F000E3624022FFF7E8FC0F2D00D093E7AAE7C3
:10A600000070084000760840FFFFF8FFFF57FFFF8B
:10A610006C07000010210E4B10B55A695C680D489C
:10A620000C420DD05C6892B221435960012303753E
:10A63000C368002B03D0017D0069C9B2984710BDE3
:10A640000E215A685C6892B221435960F0E7C04617
:10A6500000B005403CD5FF1FF022054B12011968E0
:10A660000A431A608022520419681142FCD07047D4
:10A670000090054070B5194C05001949200004F000
:10A680009BF8182322689A4322602268110019401F
:10A690001A42FAD1134B1148A3601022012304F08F
:10A6A000DFF802210D48FF3126F058FD002D03D0C0
:10A6B0002900122025F0D2FFC4200B4B80001A582D
:10A6C0000A491140802212040A431A50C0218022F4
:10A6D0004900D2025A501A6070BDC0460090034033
:10A6E000B29D0300FFFF000000E100E0FFFF00FF5C
:10A6F000182204490B6893431A00082313430B6084
:10A700007047C046009003401822044B19689143DB
:10A71000196019681142FCD17047C046009003408F
:10A72000014B58687047C0460090034010B50300C5
:10A7300010220021014804F093F810BD009003405E
:10A74000014B1A6D1A6570470090034010B5FFF772
:10A75000F7FF8021024B4902186800F0D5FD10BDBB
:10A760005CD5FF1F10B525F053FDFA220A4B0400FB
:10A770001860410F00239200C00005F021FDFA226D
:10A78000C043064BA10F188092000023A00005F0E3
:10A7900017FD034B188010BD54D5FF1FCAECFF1FD7
:10A7A000CCECFF1F70B50A4B1C78002C0FD1012593
:10A7B00008481D70FFF75EFFFFF7D4FF280000F088
:10A7C0008BFD054B21001860044800F003FD70BDAF
:10A7D00006F8FF1F4DA700005CD5FF1F84CEFF1FAA
:10A7E0000023064A995C002903D18039D8B2D1549C
:10A7F000704701330B2BF5D1FF20F9E707F8FF1F56
:10A80000044B185C1F239843203843425841C0B280
:10A810007047C04607F8FF1F044B185C1F2398437E
:10A82000403843425841C0B27047C04607F8FF1F46
:10A8300070B5040001200A2C26D8164D2B5D002B84
:10A8400022D025F007FF2B5D1F211A00DF208A434D
:10A85000203A024215D180220B4013430E490F4A81
:10A860002B55DB0611D51378013B13700C78137848
:10A870001C4306D10A4D2B78002B02D0FFF744FF72
:10A880002C7025F0E3FE002070BD0B78013B0B70AF
:10A89000ECE7C04607F8FF1F12F8FF1F13F8FF1F71
:10A8A00014F8FF1F10B50400FFF7C2FF002801D104
:10A8B000014B185510BDC04607F8FF1FF0B58BB00F
:10A8C00009AB0093002601235548320055495B42ED
:10A8D0000068099600F032FD25F0BCFEFFF720FF6E
:10A8E00083B2049325F0B2FE4F4A049913884F4F68
:10A8F000CB1A9BB206934E4B4E4C1D8811803B7871
:10A90000059325F0A7FE3B781F211A008A43402AB1
:10A9100036D10A000B40013213433B7025F096FEFE
:10A92000E268A368002A02D19D4200D99DB2013697
:10A93000F6B2013720340B2EE1D125F08BFEFFF764
:10A94000EFFE049BC01A80B23B4BA84260D31D8827
:10A950004519ADB2394B3A4A1B78127813430BD0E4
:10A96000FFF7D2FE049B5D19A8B2FFF7DFFEFFF7E9
:10A97000BFFE0122334B1A7025F068FE0BB0F0BD0C
:10A98000202A42D125F062FE069B02930023039306
:10A99000E368002B03D1A368029A93420DD925F0F6
:10A9A00059FEA268E36802980399121A8B41A260CB
:10A9B000E360FFF7B5FE2083B0E70D22059B13404F
:10A9C0000793059B13420CD0002200233000A260A5
:10A9D000E360FFF72DFF2369002BA8D0606998473B
:10A9E000A5E725F037FE22686368A260E360FFF701
:10A9F00097FE079AE168A36820838A4202D19D42AC
:10AA000000D99DB225F022FEE5E725F01FFE8EE776
:10AA10001B882A1A9A429DDA181885B29AE7C0460E
:10AA20005CD5FF1FFFFFFF00CEECFF1F07F8FF1FE5
:10AA3000CAECFF1F30D3FF1FCCECFF1F12F8FF1F23
:10AA400013F8FF1F14F8FF1F10B5040025F002FED5
:10AA50000F491F220B5D18009043802802D025F07B
:10AA6000F5FD10BD0B48DA0600D40B480278013220
:10AA700002701F221340213213430B5525F0E6FDCF
:10AA80008021064B4902186800F03EFCE9E7C04609
:10AA900007F8FF1F13F8FF1F12F8FF1F5CD5FF1FF9
:10AAA000F0B585B00400160001910293FFF7C0FED7
:10AAB000051E31D11B4B3200186829002B0005F010
:10AAC0009FFB07000E000390FFF72AFE164B620162
:10AAD0009B181883002E03D1FA239B009F421ED39C
:10AAE000FA22002338003100920005F069FB1F268E
:10AAF0000E4A135DB343019E334313550A4B620163
:10AB00009B18029A18601A610A9A9860596020008E
:10AB1000D9605A61FFF798FF280005B0F0BD012009
:10AB20000021E4E754D5FF1F30D3FF1F07F8FF1FB4
:10AB3000F0B5284B00241B78002585B0002B42D0AF
:10AB4000254B1F6825F086FD244BFC371B680193BD
:10AB5000BB693E6A029301231E40BB69039325F043
:10AB600075FD019B2000991BA64230D02300039A5B
:10AB700012184B41DD43D44302F086FC7F68184B2A
:10AB800001375F430600B8421DD0020029002000B3
:10AB9000002305F015FB05000C003800002105F02E
:10ABA0002FFB2A002300019002913800002105F0BC
:10ABB00027FB320004000D0000230198029905F0E4
:10ABC000FFFA24184D412000290005B0F0BD3300E4
:10ABD000029ACDE705F8FF1F80CEFF1F58D5FF1F53
:10ABE00040420F00F0B500274B4B87B002934B4B10
:10ABF00003934B4B04934B4B059302ABFB584A49D1
:10AC00001A0C5218FF210B40FE39994012680A4273
:10AC100073D004ABFB585A6812030FD480225968D2
:10AC20009203114202D09968114207D180225968DB
:10AC30001204114261D09B6813425ED03B4BFD5819
:10AC40003B4B2800FC5803F08BFA0190280026F0BB
:10AC5000F9F88021C90206000023084203D0280029
:10AC600003F08EFA0123802189020E4203D02800CE
:10AC700003F086FA0123802149020E4203D0280006
:10AC800003F07EFA0123B20217D5EA68002B14D133
:10AC9000E369002B02D0E369013BE3616369002BA8
:10ACA00003D01A70636901336361E369002B04D137
:10ACB0006368002B01D020009847802109040E42D0
:10ACC0000DD0019B0B420AD0A369002B1BD0A369B6
:10ACD000013BA36123695A1C22611B78EB60802130
:10ACE00009030E4202D0280003F04AFA8021C90568
:10ACF0000E4202D0280003F043FA0437082F00D098
:10AD00007BE707B0F0BD280003F012FA2368002BA0
:10AD1000E5D020009847E2E71400381015003810FD
:10AD2000004005400050054000700440F4910300CD
:10AD300060D5FF1F10B5024803F072FC10BDC0467D
:10AD400000800540014B18607047C04668D5FF1F62
:10AD5000034B10B51B68002B00D0984710BDC046B0
:10AD600068D5FF1F102307B5009101930100024829
:10AD700003F060FC07BDC04600800540F0B5002729
:10AD800091B006000C0015001C491022684604F022
:10AD90006FFF0C2239000DA80C9704F0BBFF3A009E
:10ADA00008A83A540137102FFBD104AF3A00310004
:10ADB000FFF7D8FF3B787F2B0CD82100380025F017
:10ADC00039FA23787F2B0FD82900200025F032FA9A
:10ADD00011B0F0BD38000CA925F02CFA220069460C
:10ADE0000CA825F045FAECE720000CA925F022FA82
:10ADF0002A0069460CA825F03BFAE9E7C59D030047
:10AE0000F0B589B013AE377810260EAD10CDB4462C
:10AE1000149E2D780797F60712D5129E0393069677
:10AE200066460596109E0B0002920100119A0D488D
:10AE300004960195009403F06DFCC0B209B0F0BD1A
:10AE4000129E0393069666460596109E0B0002928C
:10AE50000100119A049601950094024803F016FC33
:10AE6000EBE7C04600800540F8B50C4B06000F002C
:10AE700072460021186801F0BFFF0124051E0AD0A8
:10AE800002003900300008F0F7FC041E00D0022454
:10AE9000280001F0E5FF2000F8BDC0467C940300C7
:10AEA000104B10B51B680400002B06D12100603048
:10AEB000FFF7DAFF0300180010BD0B4B724618684D
:10AEC000002101F099FF01230028F4D02300A033D2
:10AED0001860200008F0EAFC02230028EBD1DB1800
:10AEE000E9E7C04668D5FF1F7C940300F7B5104B17
:10AEF00001900E00170000217246186801F07CFFD7
:10AF00000124051E0DD003003A003100019808F01D
:10AF1000E6FC0400052806D0002806D1280001F030
:10AF20009FFF2000FEBD0324F8E70224F6E7C04699
:10AF30007C940300124B10B51B680400002B06D153
:10AF40000200010060322031FFF7D0FF10BD0D4B31
:10AF500072461868002101F04FFF03000120002B0A
:10AF6000F4D02200A0321360200008F0E2FC0300BD
:10AF70000320052BEAD00138002BE7D10230E5E7AA
:10AF800068D5FF1F7C940300074B1968074B1A789C
:10AF9000490504D5002A01D000221A707047002A02
:10AFA000FCD10132F9E7C0460090024016F8FF1FBD
:10AFB0000721044A10B513688B431360FFF7E4FFC1
:10AFC00010BDC046B490024070B50024214D96B02B
:10AFD0002B780094A3423AD101A803F061FC8023AE
:10AFE0005B001593F0231B0314936B469C7196230F
:10AFF0006A46DB000D201849138125F02FFB01A9BB
:10B00000164803F08BFC04226946144826F0BFF86A
:10B01000C4B2FFF7B9FF0723C3261149B6000A6877
:10B0200010489A430A60104A915908408021090249
:10B03000014391518021890111600C4A11680B4331
:10B040001360009B581C08F0CBFC01232B702000E0
:10B0500016B070BD15F8FF1FB1AF000000900240A0
:10B06000B4900240FF00FFFF00E100E0B890024012
:10B0700010B5002488B01C22210001A8009404F01F
:10B0800049FE0122074B1A6020000434684425F071
:10B09000A8FA202CF8D122006946034825F0BDFB10
:10B0A00008B010BDA4CEFF1F6CD5FF1FF0B58BB04C
:10B0B00006000D0017000021202202A804F02AFE3D
:10B0C000214A002F01D00123136013681F498B42CE
:10B0D00038D001331E4C1360002F27D00023F95CB9
:10B0E000E25C521802A9CA540133202BF7D102AAFC
:10B0F0002021100025F04BFA236801332360002340
:10B10000216802AA8C46D25804330192624404C4D6
:10B11000202BF5D1ADB2281C202D00D9181C0023FE
:10B1200080B2984209D800B20BB0F0BDE35D02AA2C
:10B13000D3550137202FF9D1D9E702AAD25CF254B6
:10B140000133EEE70348EEE7A4CEFF1FA08601001F
:10B150006CD5FF1FFFFF0000044A1368002B04D0CA
:10B16000013B1360002B00D162B670478CD5FF1FE6
:10B1700072B6024A13680133136070478CD5FF1F03
:10B18000014B18687047C04690D5FF1F094B00213E
:10B190001A000832D167084A1A67084ADA65084A6D
:10B1A0009A64084A5A63084A1A62084ADA60084AE6
:10B1B0001360704798D5FF1F10D6FF1FFCD5FF1FE7
:10B1C000E8D5FF1FD4D5FF1FC0D5FF1FACD5FF1F8B
:10B1D00094D5FF1F1B4A0300106830B5002813D018
:10B1E000C46814601A68184C0260012202715A681F
:10B1F0000023C3600361236892B2C2808160002B88
:10B2000003D12060C060006130BDDD8819699542BE
:10B2100006D301611A69C3602060D0601861F3E74A
:10B22000CC88944205D8C36001611A69D060186166
:10B23000EAE7DB68D9889142FBD31A69C3600261EF
:10B24000F3E7C04694D5FF1F00D7FF1F10B5FFF7E7
:10B250008FFF074825F0D3F90400FFF77DFF002C8E
:10B2600004D000236371A3602371E360200010BD4C
:10B270000892030070B504000D0001000B4825F092
:10B28000D1F9012600280AD06379DEB2002B08D15B
:10B29000FFF76EFF012363712671FFF75DFF30003A
:10B2A00070BD691E8D41AE1CF9E7C04608920300CF
:10B2B00070B501000500074825F0B4F90124A0424B
:10B2C00005D10024FFF754FF6C71FFF745FF200004
:10B2D00070BDC0460892030070B50500FFF748FF37
:10B2E000084825F08CF90400FFF736FF002C06D043
:10B2F000002325752371A3602361E360A36120000F
:10B3000070BDC046FC91030070B504000E00010042
:10B31000094825F087F90500012085420BD1FFF788
:10B3200027FF2169A36931432161002B00D01D71E2
:10B33000FFF712FF002070BDFC910300F7B51F005E
:10B34000089B04000E0001250192002B20D0010073
:10B35000144825F067F900281AD0FFF709FF124BAF
:10B3600008991A682369A26133400B60019900298A
:10B3700001D1002B01D1B3420CD10025237D2571D1
:10B38000012B03D12369B34323611571FFF7E4FE59
:10B390002800FEBD0225002FF8D0002301351371CF
:10B3A000F4E7C046FC91030090D5FF1F70B5084C30
:10B3B000084D2B68236023681A79002A05D01A6883
:10B3C000002AF6D098689047F3E7DB68F2E7C046BA
:10B3D00090D5FF1F00D7FF1F10B5FFF7D7FE03F072
:10B3E00001FC25F032F900210248FFF7F3FEFFF7D8
:10B3F000DDFFC046A8CEFF1F084A03001168814246
:10B4000003D2516801208B4207D3916900208B42FF
:10B4100003D9D069834280414042704718D7FF1F4B
:10B42000F7B505001A4C1B480E00001B0C2104F058
:10B43000D9FC002183B20193019A8BB29A4201D8C0
:10B44000062711E02368AB421FD8A77AA288002FF5
:10B450000CD092009A18954217D20027ED1AADB27F
:10B46000AD087580238933803800FEBDE0884243F3
:10B470009A188446954208D2ED1A6146A8B204F0A3
:10B48000B1FC708023893380EEE701310C34D3E7BF
:10B49000348400007084000070B50500094C0A482F
:10B4A0000C21001B04F09EFC83B20020834201D1DA
:10B4B000064870BD0C34221F1288AA42F9D0013010
:10B4C00080B2F3E73484000070840000FFFF0000C6
:10B4D000F0B518242C4F2D4E3A7885B0624395591B
:10B4E0003B7808356343F3185B68AB4247D90822C1
:10B4F000290002A825F091F9029B0133F0D1039BAA
:10B5000001930133ECD13B7863432C00F258083CA3
:10B510000832AA422CD1F6181D4B3361736100200A
:10B5200005B0F0BD0822210002A825F076F902AB93
:10B530001A78DB7993421AD1AA2B16D118253B78B9
:10B540006B43F3181C613B786B43F2580832A242FC
:10B55000E5D8039A01921202120C12D1083C210084
:10B56000083202A825F059F9EDE7552BE6D0083C42
:10B5700018223B785343F3580833A342D2D90B2007
:10B58000CEE7F6187461CAE717F8FF1F18D7FF1F38
:10B590000000FF3F70B518244443084B1600E258E2
:10B5A000072008328A4208D81B195B688B4204D3F3
:10B5B0003000082225F031F9002070BD18D7FF1F98
:10B5C0001823F0B51F4F050038781F4E4343F3187A
:10B5D00019691E4A87B0914206D10024DB68103BEE
:10B5E0002B60200007B0F0BD02AAFFF7D3FF041EB6
:10B5F00026D1039B01931B021B0C13D138781833FF
:10B600004343F318596904AAFFF7C4FF002802D086
:10B610002C600400E5E7059B02AA1B021B0C53717A
:10B620001B0A937118223978039B4A431B02B158B5
:10B630001B0CB6183269083B5B189B1A2B60D0E7CD
:10B640000023FBE717F8FF1F18D7FF1F0000FF3F7D
:10B65000F7B51825002745430D4E0E4C33686A4652
:10B66000082128590093019725F0FDF8B8420CD124
:10B670006419606833686A460821073801970093A7
:10B6800025F0F1F847424741FFB23800FEBDC04601
:10B6900014D7FF1F18D7FF1FF0B599B004931EAB46
:10B6A00005911E8806AB0700150003CA03C30122DB
:10B6B000554B1B780133134017325343534A9B5861
:10B6C00006AAFB1A511D0B709AB22B78120A4A7007
:10B6D000AA2B00D194E00C23049A53434C4A9B18A4
:10B6E000D9889B884B439BB29E4200D388E09B1B2A
:10B6F0009BB23000019304F075FB83B202933400D7
:10B7000002E0403C4037A4B2331B9BB2002C26D051
:10B7100018213D4A3D4812784A4369681258090287
:10B72000090C8918C918402C0ED9402208A825F008
:10B7300074F84021380008AA25F09EF80028E0D0CF
:10B740000C23180019B0F0BD220008A825F065F8F8
:10B750002100380008AA25F08FF80028F0D1019BBD
:10B76000002B43D0E019072203000C26134003935B
:10B77000049B00255E43264BF61810422AD0039BFB
:10B7800090430132D31A08AF9BB201000400380085
:10B79000049325F042F8FF20029AF388534332685D
:10B7A000D318039A19785219D2B2B9540135019AB3
:10B7B000ADB2954205D02A000499013302408A4275
:10B7C000EFD30821200008AA25F056F80028B7D1A9
:10B7D00020000830F288029B53435A1933689A18A4
:10B7E000019B591B25F048F80028A9D1082105988C
:10B7F00006AA25F041F800239842A2D00D33A0E715
:10B800000023029301937AE717F8FF1F18D7FF1F51
:10B81000348400001823584310B5064C0022231826
:10B82000D968005901F0D8FB0023984200D00333B7
:10B83000180010BD18D7FF1F002270B54B0714D198
:10B8400018240B4B1D780B4B6C43E55885420CD8E4
:10B850001B195B68834208D30C1801339C4204D83F
:10B8600001F0BAFB42424241D2B2100070BDC04664
:10B8700017F8FF1F18D7FF1FF0B58DB00490008890
:10B88000FFF70AFE09227E4B0092984200D1D6E0D3
:10B890007C4B1B780093002B43D10C2568437A4DD9
:10B8A0004519EB88A97A2A680193049B002914D0D2
:10B8B00000981871049B01985B88584310180390F6
:10B8C000002908D09B00985800282CD0FFF794FD41
:10B8D000002800D0B3E0AA2308E01B79002BE9D0B0
:10B8E000AB8801990392594355230191059309A807
:10B8F000FFF766FE0723019A019C1A4021001C42B3
:10B9000003D00824A41AE4B2641823001033069369
:10B91000099B0293029A069B934208D90122594B34
:10B920001A7011239DE0AA2301900593DFE71826E2
:10B930003200564B564F18784243BB18196907918D
:10B9400054498C460799614505D15E68D759073E31
:10B95000361B083712E059690AAAFFF71BFE4B4B4A
:10B960001B7873430B9EDB593602360CF618079F83
:10B97000361BEEE7029B361B1B1B0293069B029AAB
:10B9800093420AD221003000FFF756FF002859D118
:10B99000002C57D0029B9C42ECD900223B4B1978DB
:10B9A00018234B433A495B58F31A99B29B075CD171
:10B9B000002AB3D0059C049B08A82A895B880472DE
:10B9C000092008AC00190270120A42700B22180AF2
:10B9D0001219507013700D22059812191170090A6E
:10B9E0005170E073A97A002903D029689B005B5845
:10B9F0000393039B002B3AD1137053700821380036
:10BA00000AAA24F030FF00282AD118221F4B1B78E5
:10BA100053431F4AD21817610B9B1B021B0C00D00B
:10BA20005761AA7A002A1ED0002B08D0049B5A889E
:10BA30002B6892009B1818681E6001F011FA00989C
:10BA40000DB0F0BD08213800FFF7F6FE002805D143
:10BA5000029B9C42A1D8083B02937AE701229DE712
:10BA60000D230093EBE70092E9E71F23F9E730008D
:10BA7000039A019924F000FF0028BFD00C23F0E7BF
:10BA8000FFFF000018F8FF1F3484000017F8FF1FA5
:10BA900018D7FF1F0000FF3F73B5144C0090230020
:10BAA0000191C2331D882300C4331E882300C03394
:10BAB0001B88AB4202D10020864213D1062210001F
:10BAC00068436946201804F0D3F823000135ADB26D
:10BAD000C2331F2D07D81D8001201F2E02D8361813
:10BAE000C434268076BD00221A80F5E7D0ECFF1F13
:10BAF00018234343094A10B5D1180400C96898585F
:10BB000001F094FAC3B20420002B05D10238012CB5
:10BB100002D82000FFF77EFE10BDC04618D7FF1FD9
:10BB200070B50125831C00D0451904240E4E3560E4
:10BB3000013CE4B2002C09D00020FFF7D9FF002817
:10BB4000F6D10130FFF7D4FF0028F1D10020074BD8
:10BB50001870FFF77DFD03001320002B02D0356025
:10BB6000FFF7B6FC70BDC04614D7FF1F17F8FF1FC4
:10BB7000012370B515000B4A4340040013700029DF
:10BB80000ED0FFF747FE032801D0002D08D1182062
:10BB9000054B064A5C704443A2585A6001221A7051
:10BBA00070BDC04617F8FF1F08D7FF1F18D7FF1F2B
:10BBB00001004B1E9941F0B52D4F85B08B0004223A
:10BBC0003968050003A8009324F027FE7B6804224F
:10BBD000D91F009B03A8C918039E24F01EFE039BD7
:10BBE0000422B96903A8019324F017FEF969009BA8
:10BBF00007390422C91803A8039C24F00EFE019BF8
:10BC0000039A9E421DD1731C27D01A4B94420CD12B
:10BC1000621C11D0184AA64204D31E600023137080
:10BC200005B0F0BD1C600123F9E7002229000120C6
:10BC30001E60FFF79DFFF3E701221E602900100040
:10BC4000F7E7944205D1631C03D00A4B00221C6025
:10BC5000F4E70222084B1A70E2E79442F9D1631C20
:10BC6000F7D0044B0122290000201C60E1E7C04608
:10BC700018D7FF1F14D7FF1F17F8FF1F0122F0B5B9
:10BC8000A34C95B023780133134007936B461B7F79
:10BC900018000893FFF7BEFD032825D01821079848
:10BCA0009C4B4843C25808320A9222784A439A1859
:10BCB00012690292029C984A94421CD10A9B0493F6
:10BCC0001823934C95482278924942705A4352580F
:10BCD000426001220270089A049822700A9A8242F5
:10BCE00000D019E28C4A19E20898FFF701FF0028FA
:10BCF000D4D015B0F0BD00271B185B680591073B39
:10BD000003930A9B0493824B824D1878059B029AF9
:10BD100043435B5908339342D2D80EAA0299FFF7E6
:10BD200039FC0CAB1A7ADB7B9A425FD10E9B1C026A
:10BD3000240C2000FFF7B0FB794B0690984255D0B9
:10BD40009C4253D0059B079A53435C59083412AD6B
:10BD500008222100280024F060FD129B013302D14B
:10BD60006B6801330ED02B78E879984224D02600F6
:10BD70000836079B059A08345A43664B9B185B6844
:10BD8000B342E4D80EAB1B78AA2B01D0552B2DD192
:10BD90000C22069B634E5A439619B37A002B55D05A
:10BDA0000EAB1C79DA78240214433268A3009B5846
:10BDB000002B4BD1029D40E026000E9B0EA91A02DB
:10BDC0002B68120C1B021B0C08369A42D1D10B783F
:10BDD000AA2B0FD1AA2809D1C8782A790979EB783A
:10BDE000120209021A4301438A42C2D1029B083B54
:10BDF000029388E7552BBCD1AA28F7D1B9E72900CF
:10BE000012AAFFF7C7FB129B013303D1139B0993BF
:10BE100001331BD0139B09931B021B0C0CD10CABE1
:10BE2000DA7E1B7F1B0213439C4205D1129B328991
:10BE30001B021B0C9342D9D00835354B059A187854
:10BE4000344B42439B185B689D42D8D3B388F48837
:10BE50005C430EAB1A78AA2A68D1B27A002A0CD1B8
:10BE60000E9D029F2D022D0C294B059A1878294B07
:10BE70004243D3580833BB4236D9F2880721100019
:10BE8000130008400A4203D008231B1ADBB2D31860
:10BE900003990092CB1A03930499069B03980EAA68
:10BEA000FFF7FAFB002800D023E7B37A002B13D06A
:10BEB00024F0D0FB0CAA147B0CABDB7A24021C43CD
:10BEC0003368A4001C192068FFF796FA002801D0F7
:10BED000039B236024F0BAFB0027029B083B0293DC
:10BEE000049B083304930EE7390012AAFFF752FBB4
:10BEF0000CAB1B7E552B08D10CABDB7F552B04D133
:10BF0000129B1B021B0CAB420ED0083FACE7C04695
:10BF100017F8FF1F18D7FF1F0000FF3F08D7FF1FAC
:10BF2000FFFF000034840000002FA6D0072221006C
:10BF300023001140144203D008235B1ADBB21B1903
:10BF4000039AD31A0EAA03931378AA2B00D0D5E034
:10BF5000B288F3880021534379485200099324F0B2
:10BF60007EFC029DBD4239D800231C000D93069330
:10BF7000099B002B5AD155220CAB1A76BB787978E5
:10BF80001B020B4319210CA809180B701B0A4B70DC
:10BF90001B2300200CA95B18012118705870694BF5
:10BFA0000CAC1B781D3001330B40059900194B4335
:10BFB0006549E2775B580399CB1A99B203700B0A73
:10BFC00043708B0700D097E00821049812AA24F050
:10BFD0004AFC002800D19BE00D208AE6594B12ACA8
:10BFE000220029001878FFF7D5FA2278E379083D76
:10BFF0009342B7D1AA2BB5D12379E2781B02134320
:10C00000B2889A42AED9226878781102BA78090CBF
:10C01000120202439142A5D149495B005A5A002AB3
:10C02000A0D162681202120C5A529BE70822FF212B
:10C0300010A824F014FC0825B388069A93422DD941
:10C04000F388059A0B93069B59003D4BC95A082368
:10C05000581B10AB18183B4B1B7853433A4A9B585C
:10C060000B9A121B954230DB92B20C9200292AD116
:10C07000B9797A7909021143C9180C190B9B0699F1
:10C08000594361180C9A24F0C8FB0C9BEC1A069DCE
:10C09000E4B20135ABB20693002C2AD10D9B0821E6
:10C0A000D800039B10AAC01824F0DDFB002845D15E
:10C0B0000D9B01339BB20D93099B082B00D85AE7C7
:10C0C000083B099354E7E418DBE7E31800290ED195
:10C0D000B9797A790902114359180B9A069B5A4388
:10C0E00089182A002C1924F098FBE4B2D6E75918D5
:10C0F000F7E7250000249FE71F20FAE5A4B2069B7E
:10C10000049903980094FFF7C7FA002800D0F0E5DF
:10C11000029B083B0293E3E6049A083A07984343DC
:10C12000CB181A615A61094A0898136801331360E1
:10C13000FFF78EFA43425841C0B2DAE50C20D8E549
:10C1400096EEFF1F17F8FF1F18D7FF1F14D7FF1F0A
:10C15000F0B50024260003688DB00693838806AAF4
:10C160009380438805880779019304940294644975
:10C170000B00C4331B88002B0ED1019A06AB1D8027
:10C180005A801F7106980799FFF786FC00281DD179
:10C19000162420000DB0F0BD0A008C46C032127883
:10C1A000DBB2002B15D1002E10D1029B012B39D10F
:10C1B000019A06AB5A801D801F710623049A5048CD
:10C1C000534306A90622C01803F052FD212CCED0FD
:10C1D000DFE7062160465143085A0390A8420FD179
:10C1E0006144081D05900879012803D0012F03D16F
:10C1F000059B1F700126E9E7498801988142F9D023
:10C2000040490398884205D10299002902D10131A1
:10C21000049202910132013BD2B2DBB21F2AC0D993
:10C220000022BEE7019A06AB1D805A801F71069856
:10C230000799FFF731FC061E5FD1062206A908A860
:10C2400003F016FD304B1C78002C54D12C4BC4331A
:10C250001B88002B1BD108980999FFF71DFC0028AB
:10C2600000D195E700230293B0E70AA8FFF704FB8B
:10C270001128F0D1FFF702FD002801D1234B1870DF
:10C280000AA8FFF7F9FA041EE5D02124E3E71C49C8
:10C290000B00C4331B880293002BDCD00F00062355
:10C2A000C0373D8806226B430135C9180AA8ADB2D4
:10C2B00003F0DEFC1F2D1BD83D80029A104B013A83
:10C2C000C4331A800AA9062206A803F0D1FC06ABE3
:10C2D0001D8A5B8A019306AB1F7D0A4B9D42C4D128
:10C2E000019BAB42D3D1012FD1D12224019DB2E7D2
:10C2F00000233B80E1E73400ADE7029E66E7C046DD
:10C30000D0ECFF1FFFFF000019F8FF1F18F8FF1FF8
:10C31000F0B587B00390224E22480C21801B03F019
:10C3200061FD0025012783B21F4C02930195029BFA
:10C33000AB4202D1019807B0F0BD039B002B04D0A3
:10C340006388002B01D0013B63802378002B1CD035
:10C350006288002A22D1338904A90B80B37A002B8A
:10C3600018D0E3880A714B80002323700F4B04A878
:10C370001B78002B04D1FFF77FFA112805D104A800
:10C38000FFF7E6FE162800D127700135ADB208345C
:10C390000C36CCE704AA53801771E5E70197F4E760
:10C3A000348400007084000096EDFF1F19F8FF1F11
:10C3B00013B51F4A030012780C000E20002A13D078
:10C3C0000938002B10D069461800FFF729F800281B
:10C3D0000AD16B461C71174B68461B78002B04D0A2
:10C3E000FFF7B6FE162820D116BDFFF745FA112833
:10C3F000FAD1FFF743FC0028F6D10F4B0F4C187011
:10C4000063780230012BEFD81800FFF771FB00288A
:10C41000EAD11823627820705A43094B68469B186A
:10C42000084A1A61FFF728FADEE70F20DCE7C0466A
:10C430001BF8FF1F19F8FF1F18F8FF1F08D7FF1F71
:10C4400018D7FF1F0000FF3FF0B5444B444887B0AA
:10C45000C01A0C2103F0C6FC83B2039300231D0015
:10C460001C0002933F4B1A00C4321688002E2AD0BB
:10C470001A00C0321588019306276F43019BF85AB2
:10C48000FFF70AF8384B98420ED00C235843334B31
:10C49000C018837A002B07D0019B0268DF197B88C4
:10C4A0009B009B58002B05D0062301216B43019A6A
:10C4B0004942D1520135013EADB2B6B21F2D00D96D
:10C4C0000025002ED8D1294B1B78002B0BD10C2630
:10C4D0006E43224BF618039BAB4227D9B37A002B4D
:10C4E00029D000271CE0012304AA5B42049310001A
:10C4F00002331371FFF72CFE0400162818D02228EF
:10C5000029D12224AEE73368B80000211818FFF7BC
:10C510004FFF0400052801D0002819D10137BFB210
:10C52000B388BB42EFD8029B012B0DD1222CE8D05F
:10C53000200007B0F0BD01213068FFF739FF04008B
:10C54000052801D00028F1D10135ADB20C36C2E783
:10C5500001230293EAE70F24EAE7C046348400008F
:10C5600070840000D0ECFF1FFFFF000019F8FF1FD0
:10C57000F0B54F4B85B01B78002B1DD04D4B1B7871
:10C58000002B19D14C4C2378002B04D0FFF776FBFD
:10C59000002800D12070494C2378002B1DD018238F
:10C5A000627860685A43464B9B185A68904205D39C
:10C5B000444A1A610023237005B0F0BD424D2900A2
:10C5C00000F034FD00222900606800F005FD00281D
:10C5D00003D163685D196560EEE73C4F3B78002B43
:10C5E0002CD002A823F0FDFF0298652103F080FC07
:10C5F0000E0023F01BFEFA2204000D000023300081
:10C600009200002103F0FCFD0023314A314E8018D6
:10C61000594122002B000090019130687168121A74
:10C620008B410199994209D802D10099914205D8CC
:10C630000120FFF76DFE346075603870264D2B00C9
:10C64000C4331B88002BB7D02B00C4331E88002EA8
:10C65000B2D02F000621C0373C8806226143013446
:10C66000691802A8A4B203F003FB1F2C1DD83C805C
:10C670002B00013EC4331E8002AB1B88174A934235
:10C680000AD102AA52889A42DED102AB1B79012B51
:10C69000DAD1FFF7D9FED7E702A8FFF7EDF81128A6
:10C6A000D2D102A8FFF754FD86E700233B80DFE7E5
:10C6B0001BF8FF1F19F8FF1F18F8FF1F08D7FF1FEF
:10C6C00018D7FF1F0000FF3F000800001CF8FF1FE5
:10C6D000F07E0E0090D4FF1FD0ECFF1FFFFF000084
:10C6E000F0B50025B64BB7488FB0C01A0C210193A6
:10C6F000089503F077FB80B2431E20241E2B00D93F
:10C7000059E1019A03959388102B00D9CBE1039B43
:10C710000C3201339BB2984200D0B2E0AA4A002307
:10C720001100C0310B8011002020C4321380A74AB1
:10C73000C2310B801188A64A00900098137001380E
:10C7400080B29180009008320028F6D1A14B187079
:10C75000A14B1B78002B00D09DE000F015FC9F4BF7
:10C76000009A9F4E1A70022333709E4B9E485B08BE
:10C77000D9B2DBB243439D4D9D4AEB602A60D2188B
:10C78000501E6B62013B9B186860681CC177EB61AF
:10C7900000982972AA61FFF70BFA3378022B77D140
:10C7A0000120FFF705FA3478022C71D001230134FF
:10C7B0001C406B4604941B7C18000593FFF72AF875
:10C7C000032860D0337818267343EC5804222100E4
:10C7D00009A824F022F8099B0825013309930023B6
:10C7E000043402932B1B0793079B1F197C4BBFB28A
:10C7F0001A787E4B72439B185B689C4200D289E09A
:10C80000099B0022069300231827754E0C920D9366
:10C810003378764D7B43E9184A68944238D2049CB9
:10C82000C9687C435A59029B04399A18C91A63593A
:10C83000181F029BC01824F016F8002828D16D4B51
:10C840000D901B68082160590CAA0C9324F00BF87A
:10C8500000281DD12C190D906068069B082107380F
:10C860000CAA0C9323F0FFFF002811D133785B4A08
:10C870005F4353707B59536001231370059B3370E2
:10C8800006E003933FE70598FFF732F9002899D0B7
:10C890000122514B1A70524B1A78022A61D0FEF7CE
:10C8A00017FE041E00D086E00122534B0AA81A701E
:10C8B000FEF786FE041E00D0F0E00A9B7F2B02D814
:10C8C000FFF7DCF904001821454B1A78474B4A431F
:10C8D0009B181F69494B9F426DD00491404B434ABE
:10C8E0001878049B43439B580833BB4200D887E029
:10C8F0000021019B9B7A022B00D1BDE0019A009B95
:10C900000C3201920098039A01339BB2824252D0BA
:10C910000093EEE72A0021000AA823F07EFF0A9B7D
:10C92000013304D10B9B0693013300D168E70B9BC5
:10C930001B021B0C08D00D21181F08AA891882B2EF
:10C94000120A08704A700293049A284B7243D05816
:10C95000290038180AAA23F086FF002898D1083445
:10C9600042E7002630001E70FFF7DAF805000400E9
:10C9700008A8FEF725FE330031000198C28807267B
:10C9800017003740324204D00136F71BFFB2BC46D5
:10C990006244878808327A43039F89185A1C92B2EE
:10C9A0000C309F420AD1089B8031994200D97CE02B
:10C9B000002D00D173E720000FB0F0BD1300DDE7BC
:10C9C0003484000070840000D0ECFF1F30CFFF1FC4
:10C9D00096EDFF1F1CF8FF1F1AF8FF1F08D7FF1F57
:10C9E00017F8FF1F040000000008000018D7FF1F01
:10C9F00000D8070014D7FF1F1BF8FF1F0000FF3FE0
:10CA00000CAD2A003900FEF7C5FD2A78EB79934278
:10CA10002DD1AA2B2BD12B681802000CFEF73CFD60
:10CA2000234B984223D00C235843224BC018837ABF
:10CA3000022B1CD12E79EB7836021E430368B60018
:10CA40009E19336818000293FEF7D6FC00280ED119
:10CA5000029B01330BD0184B049A1B785343174A9F
:10CA60009A586B681B021B0C03D09B183360083F5D
:10CA700034E701235B42F9E7019B988800239AB2CF
:10CA8000904200D83AE7019D9A002D68AA180295B5
:10CA90001568013500D111600133F0E70020FFF780
:10CAA0003FF8040087E71C2485E71D2483E7C04680
:10CAB000FFFF00003484000017F8FF1F18D7FF1F86
:10CAC00070B5094D10242B78002B0BD1FFF708FE11
:10CAD000041E07D1FEF7BAFB044B1860002801D1F1
:10CAE0002C701934200070BD1BF8FF1F04D7FF1FE6
:10CAF0000121F0B50500384B87B0186849427746E8
:10CB0000FEF7B8FB02AB28009A1D04A923F0ABFD89
:10CB1000041E31D102ABDB8800930C23009A5343EF
:10CB20002E4A9B1801939B7A002B50D02E68300020
:10CB3000FEF762FC002830D1002E2ED0284A1300C8
:10CB4000C4331988002912D01300062502A8C03367
:10CB50001B880789448928005843865ABE4212D14F
:10CB600016187688A6420ED101235B428352002418
:10CB7000009B1C4ADB009C54174B1868FEF798FB7F
:10CB8000200007B0F0BD013301399BB289B21F2BE1
:10CB900000D900230029DED1E9E7019B3A000021FA
:10CBA000D88800F029F9061E13D02968002908D07A
:10CBB00002ABDA880C235343084AD318DA8823F0EF
:10CBC0002CFE23F047FD2E6023F040FDD4E71B240C
:10CBD000D2E71A24D0E7C04604D7FF1F34840000F0
:10CBE000D0ECFF1F96EDFF1F0121F0B50400314D81
:10CBF00087B049422868FEF73DFB02AB9F1D3A0013
:10CC0000200004A923F02FFD061E19D10C233A8819
:10CC10001B365343284A9B189B7A002B10D0276859
:10CC20003800FEF7E9FB061E10D1002F02D03800B5
:10CC300000F016F923F00EFD0023236023F006FD1B
:10CC40002868FEF735FB300007B0F0BD1B4A130023
:10CC5000C4331988002921D01300012702A80089B4
:10CC6000C0331B88009002A840897F4201900620B3
:10CC70005843865AB446009EB44506D116187688A5
:10CC8000B446019EB44500D18752013301399BB2AD
:10CC900089B21F2B00D900230029E8D1002623F0F8
:10CCA000D9FC266023F0D2FC31002000FFF780FB86
:10CCB0000600C5E704D7FF1F34840000D0ECFF1F37
:10CCC000F7B50E000121104D070049422868FEF714
:10CCD000D1FA0E4B0E241B78002B0FD0093C002FED
:10CCE0000CD000226946380023F0BDFC041E05D19B
:10CCF0006B4668461E71FFF72BFA04002868FEF7A2
:10CD0000D7FA2000FEBDC04604D7FF1F1BF8FF1F47
:10CD100010B5094C2368002B02D1FEF731FA2060D0
:10CD20000121064C49422068FEF7A4FAFFF720FCD7
:10CD30002068FEF7BDFA10BD10D7FF1F04D7FF1FF4
:10CD400070B50E0001210400074D49422868FEF726
:10CD500091FA31002000FFF72BFB04002868FEF752
:10CD6000A7FA200070BDC04604D7FF1FF7B5002109
:10CD70001C4F1D4B04223800198023F070FD1B4E00
:10CD80001B4C1C4D6B8820001900019323F0C0FC44
:10CD9000019B002B10D12B882889E381AB88A081CF
:10CDA0002382002B03D13B68002B00D13C6000287C
:10CDB00017D014340835E5E73100200023F0AEFC2D
:10CDC000A37C094A0133A374074BF4601B88013329
:10CDD00013802B881033F618019B013B9BB2019303
:10CDE000D6E7FEBD58DEFF1FB6EEFF1F48D7FF1F78
:10CDF00008DEFF1F32CFFF1FF8B506000F1E154CCF
:10CE000001D1154B1C6823F025FC002E05D0E389C9
:10CE1000B34204D2A389002B1AD1002510E0238A43
:10CE2000BB42F7D1200023F0B9FC00280CD0103011
:10CE300005000A4A1388013B1380E37C0133E37445
:10CE400023F004FC2800F8BDA389B342E2D2E4E752
:10CE50001434DAE708DEFF1F58DEFF1FB6EEFF1FAF
:10CE6000F8B50326002813D0154B1038040098425B
:10CE70000ED3144B98420BD823F0ECFBE368124D11
:10CE80009D4209D0AA89002A04D123F0DFFB0326A2
:10CE90003000F8BD1435F3E7A7680326002F0BD147
:10CEA0003E000A4A2100138828000133138023F032
:10CEB00035FCEB7C013BEB7423F0C8FBE8E7C04694
:10CEC00048D7FF1F08DEFF1F08DEFF1FB6EEFF1F5B
:10CED0000100020070B5002008250A4C0A317D329D
:10CEE0000B781B0258402B0006B2400080B2002E87
:10CEF00000DA6040013BDBB2002BF5D101318A4200
:10CF0000EED170BD21100000F0B5802706000500AD
:10CF100085B0009101923F03019B991B009B491929
:10CF2000F3189D4201D100241BE0082202A823F03F
:10CF300074FC23F08FFB8023DB029D420CD208237C
:10CF400029000E4802AA23F0C1FE040023F07EFB54
:10CF5000002C06D10835DFE7BD4205D323F076FB70
:10CF60006624200005B0F0BD054B02AA19680548EB
:10CF70000823691823F006FFE7E7C0465CDEFF1FC1
:10CF80002CDFFF1FC4DEFF1F70B50E4D2B78002B6A
:10CF900016D10D4801F06CF823F05CFB0B4E30000D
:10CFA00001F0A6F823F052FB094C042122003000C6
:10CFB00023F008FF2368074A9B18236001232B7086
:10CFC00070BDC0469CF8FF1F5CDEFF1FC4DEFF1F64
:10CFD0002CDFFF1F0000FCFFF8B504000E00170057
:10CFE00023F038FB8023DB029C420AD23B00320054
:10CFF00021000B4823F084FE050023F027FB2800C6
:10D00000F8BD802366251B039C42F6D2054B3200F7
:10D01000196805483B00611823F0C4FEECE7C046E0
:10D020005CDEFF1F2CDFFF1FC4DEFF1F70B5040096
:10D030000E0023F00FFB8023DB029C420AD2320059
:10D0400021000B4B0B4823F028FE050023F0FEFACD
:10D05000280070BD802366251B039C42F6D2064B38
:10D06000320019680548024B611823F07BFEECE79B
:10D070006B66656B5CDEFF1F2CDFFF1FC4DEFF1FCE
:10D0800070B5134D010004007F22280023F0D6FB69
:10D090000026B04213D10A2228000E4923F0CEFB0D
:10D0A000B0420ED02800FFF713FFEB6F1B021B0CE2
:10D0B000834206D17F222900200023F0AEFB3000FE
:10D0C00070BD7F22FF21200023F0C9FB0126F6E777
:10D0D00000F807000F9E030070B50400FFF754FF2F
:10D0E000114D7F222900200023F0A8FB030000201F
:10D0F000834218D12000FFF7EBFE23007D33187028
:10D10000000A0A4958700A22200023F086FB802179
:10D1100028000901FFF78AFF002804D122007F219F
:10D12000280023F0A9FB70BD00F807000F9E030044
:10D13000384910B58A4209D037498A4220D0374948
:10D140008A4222D10121364AD1541EE0354A127852
:10D15000934215D1B021344A89035368DB00DB08C0
:10D160008B423FD01DD8802189038B4231D00DD80E
:10D170008021C9028B423CD0E02149038B4235D04B
:10D180002A4A2B492B4800F0DBFC10BD9021890373
:10D190008B4223D0A02189038B42F1D1D27A264B36
:10D1A0001EE0A021C9038B4231D00AD89021C903C7
:10D1B0008B4228D09821C9038B42E1D192681F4B42
:10D1C00023E0C021C9038B42DAD193681C4A1B0CAF
:10D1D00002E093681B4A1B0C1380D1E7D27A1A4BEA
:10D1E0001A70CDE79368194A1B0CF5E7D27A184BF1
:10D1F000F6E793681749180C088017490B80D36825
:10D20000164A1B0CE8E79268154B1A60B8E792685B
:10D21000144BFAE7B8140000B9140000B51400006C
:10D2200019D3FF1F9DF8FF1F30DFFF1F40DFFF1FD7
:10D23000CCDFFF1F0040024021D3FF1F00E1FF1F92
:10D24000BEEEFF1F5CCFFF1F20D3FF1F5ACFFF1F73
:10D2500022D3FF1FB8EEFF1FBAEEFF1FBCEEFF1F69
:10D26000FCE0FF1F04E1FF1F10B50D4C0021200062
:10D2700023F0ABFB3F2008220A498B7883431343FA
:10D280008B70094B596009498B7883431A438A7024
:10D2900000232000064A074900F0E4FB10BDC04609
:10D2A0000040024030DFFF1F40DFFF1F4CDFFF1F49
:10D2B00031D10000CCDFFF1F70B51D00114E04AB53
:10D2C000745D1B78002C1CD00F4C5205E160D10816
:10D2D0006268A060520F52070A430F210B40626040
:10D2E0001A00A37809488B431343A370084A094BDB
:10D2F0000949157254601D7000F0F6FB002800D13A
:10D30000705570BD19D3FF1F4CDFFF1F0040024056
:10D310005CDFFF1F9EF8FF1FCCDFFF1F10B5084C1E
:10D320002378002B0BD0074A074BC0B2107218703D
:10D330000649074800F004FC002800D1207010BD09
:10D3400018D3FF1F40DFFF1F9DF8FF1FCCDFFF1F1B
:10D3500000400240064B9A79D20702D4054B186868
:10D3600070471B7A044A1B0710685B0FD840F7E729
:10D3700000400640D0CEFF1FCCCEFF1F10B5114A93
:10D38000114B117BC90714D41868002810D01378EA
:10D3900051789B06147B5B0F8A06D840E4B2920F4B
:10D3A00006D0E20704D4062B05D0072B07D040098E
:10D3B00010BD5868E9E7142102F014FDF8E70C21CC
:10D3C000FAE7C04600400640B0F9FF1F014B18685D
:10D3D0007047C046B0F9FF1F4168074A074BD1505C
:10D3E0000378C0209B0400031168034004480140F7
:10D3F0000B4313607047C0460070044044100000A7
:10D40000FFFFF3FF10B50E4C63789B0701D500209A
:10D4100010BDA379DB060FD4FFF7B0FF0028F6D0CC
:10D42000E378E2785B069B0FD2095B009B18054A04
:10D430005B009B5A5843EBE7034B1868EEE7C04686
:10D44000004006402A9B0300D0CEFF1F10B50C4AB7
:10D4500093791B079B0F012B07D0022B08D00020CC
:10D46000834201D1FFF7CEFF10BDFFF773FFFBE74B
:10D47000127B044BD20701D41868F5E75868F3E72C
:10D4800000400640B0F9FF1F70B5084D084CFFF78B
:10D49000DDFF2959090F013102F0A4FC2959490384
:10D4A000490F013102F09EFC70BDC046007004407F
:10D4B00044100000044B00201B7810B59B0701D5D9
:10D4C000FFF748FF10BDC0460040064030B50121BF
:10D4D0000500094C0D40227B237B0A408B432B43E4
:10D4E0002373824206D1002030BDC046013B002B91
:10D4F000FBD1F8E7014BF9E700400640DD050000ED
:10D5000002680D49002310B58A4204D90B4B93429F
:10D510009B415B4201333C24094900794A781B0155
:10D52000A243024313434B700B00002803D0022296
:10D5300099791142FCD010BD9798000000127A0032
:10D5400000400640F7B5204C0192E678A579002707
:10D55000F6B2EA0604D52025E7787D400127E5707C
:10D560002578AC46C5003820624605403538104065
:10D5700005432570207BC20706D46078420703D597
:10D580000220A5790542FCD01020A5790542FCD1E6
:10D59000002F00D0E67060251F20019AC9015201BA
:10D5A0002A4030400A430243D2B2E270E17891420D
:10D5B000FCD10321A27992080A42FBD1002B00D0B2
:10D5C00098470020FEBDC04600400640F0B5EFF38E
:10D5D000108472B60D4E0E4AB568B446954208D016
:10D5E00000250C4B0C4F9B089B009D4209D16346C4
:10D5F0009A60030010339B00D058D15084F31088F8
:10D60000F0BD7E5956510435EFE7C04600ED00E00D
:10D6100000C0FF1FC000000000800000036810B5BC
:10D62000002B03DA024B1B68984710BD014BFAE749
:10D6300070DFFF1F74DFFF1F10B5034B034819682D
:10D64000FFF7ECFF10BDC04668DFFF1F00C00240BF
:10D6500010B5034B03485968FFF7E0FF10BDC04603
:10D6600068DFFF1F00D002400368064A13400360D2
:10D670000368054A1340036080235B0402681A4272
:10D68000FCD17047FFFFFFEFFFFFFFBF0368174AA2
:10D6900010B51340036080235B0302681A42FCD17B
:10D6A000802302689B041A43026001680A001A4042
:10D6B0001942FAD101680E4B0B430360B3231B04DC
:10D6C000426043630B4B8821890051188900013265
:10D6D0000B50202AF7D1E132036100214361FF3270
:10D6E00083618364803002F015FB10BDFFFFFBFFF8
:10D6F0001F002800FFFFFF3F024BC018431E984148
:10D700007047C04600C0FDBF70B504000D0023F097
:10D710000EF91F20236D104ADB0FDB0723652B88D2
:10D72000216D5B0513402A7902400A43F821134317
:10D73000AA78490312040A40F8211343EA788900C1
:10D7400052010A4013436A7920009206120C1343D7
:10D750002365FFF789FF70BD0000E07F1023F0B55F
:10D760001600454A0D00116804000B431360802326
:10D7700002681B0613430360802385B05B032268A5
:10D780001A42FCD02B7A002B5ED163683B4A1340CF
:10D79000636023685B005B08236080235B0322686F
:10D7A0001A42FCD12000FFF771FF7F21AB7A22687B
:10D7B000013B8A430B401343EA7A002A49D0802276
:10D7C000616852010A4362602A7B2021002A44D00A
:10D7D00062680A4362606A7B002A41D08022D203D9
:10D7E00013436A7A012A3ED1802212031343AA7B93
:10D7F000002A3BD0802252021343EA7B002A38D011
:10D800008022D202134323602B6801AF9C463B0069
:10D81000103507CD07C33B79F978C9187B790431F6
:10D82000C91863464B43191E00D10131300002F084
:10D83000D9FA0138FF2800D9FF20388039002000AC
:10D84000FFF762FF05B0F0BD802362689B011343C0
:10D850009EE762680A490A40B5E762688A43B9E709
:10D86000084A1340BDE7084A1340C0E7074A13407F
:10D87000C3E7074A1340C6E73C800440FFDFFFFFD1
:10D88000FFEFFFFFFFFFBFFFFFFFF7FFFFFFFEFF01
:10D89000FFFFFBFF0901F0B545180400F020C02789
:10D8A0002E1DF36F000503403F050120BB422BD026
:10D8B000F36F16480835184080231B050343F367B0
:10D8C0005368DB00DB08EB67202395782B40584238
:10D8D00043410F485B420340C020C0031B18E806C9
:10D8E00002D5802040030343611808002D072D0B4B
:10D8F0002B43C0259468883004600020D2682D0531
:10D900002B438C310A60F367F0BDC046FFFFFFF088
:10D910000000A0FFF7B5090141180B1DDF6F0B23B5
:10D920003D0E06002B400120022B34D10B000833A2
:10D93000DB6F178000933B0D03401B0101933B0CF1
:10D940001C000F231C409C462300019C23437C0D9C
:10D9500020403F24400103439078A0430343937049
:10D96000009BD8005368C0085B0F5B0703435360FC
:10D970000B0088331B688C3193600B68D360B368ED
:10D9800063461D40023D68426841044D044B4042DD
:10D990002840C018FEBDB368FCE7C04647EBFFFF58
:10D9A000B9140000C023F7B51B0114000700C658C6
:10D9B000050022F0CCFF803780003B181B680B224B
:10D9C0009C46031DFF183B68019363461B0E1A40DB
:10D9D000022A40D1B603B20F009262460121664688
:10D9E000120D0A403603360F1201324366463F27B6
:10D9F000760D0E4076013243A678BE431643019A57
:10DA0000A670D6006268F608520F52073243626071
:10DA1000624622800022009E761801324900D2B26E
:10DA2000C9B2B242F9D300222818890088300834DC
:10DA300091420BD10F201840023843425841074B06
:10DA400040421840064BAA68C018FEBD86183668CA
:10DA5000A6500432ECE70120AB68F6E747EBFFFF86
:10DA6000B9140000F8B50D00160098220400520009
:10DA7000002128001F0002F04DF92000FFF73CFEB6
:10DA8000134BC0B28000C550124A134BC0C51A6078
:10DA9000002E15D080232268DB0413432360CC239F
:10DAA00062681B021343802263600C4B12011A60F0
:10DAB0001A601A601A601A60802292041A60F8BD17
:10DAC0002368074A134023606368064A1340EAE765
:10DAD00078DFFF1F71DB00007CDFFF1F00E100E04B
