:020000040000FA
:108000008B4201D30B03C01A5241C30A8B4201D3E6
:10801000CB02C01A5241830A8B4201D38B02C01A91
:108020005241430A8B4201D34B02C01A5241030A08
:108030008B4201D30B02C01A5241CDD2C3098B42ED
:1080400001D3CB01C01A524183098B4201D38B016A
:10805000C01A524143098B4201D34B01C01A52410D
:1080600003098B4201D30B01C01A5241C3088B4252
:1080700001D3CB00C01A524183088B4201D38B003D
:10808000C01A524143088B4201D34B00C01A5241DF
:10809000411A00D201465241104670475DE0CA0FB6
:1080A00000D04942031000D34042534000229C4676
:1080B00003098B422DD3030A8B4212D3FC22890180
:1080C00012BA030A8B420CD3890192118B4208D356
:1080D000890192118B4204D389013AD0921100E0B8
:1080E0008909C3098B4201D3CB01C01A52418309CC
:1080F0008B4201D38B01C01A524143098B4201D3F9
:108100004B01C01A524103098B4201D30B01C01A23
:108110005241C3088B4201D3CB00C01A524183089D
:108120008B4201D38B00C01A5241D9D243088B42F3
:1081300001D34B00C01A5241411A00D20146634696
:1081400052415B10104601D34042002B00D54942FA
:10815000704763465B1000D3404201B5002000F039
:1081600005F802BD0029F8D016E770477047C046F1
:108170008446101C62468C46191C634600E0C046CB
:108180001FB501F0A1FF002801D40021C8421FBD86
:1081900010B501F0EBFE4042013010BD10B501F00A
:1081A00093FF002801DB002010BD012010BDC04658
:1081B00010B501F089FF002801DD002010BD01206D
:1081C00010BDC04610B501F00DFF002801DC0020F5
:1081D00010BD012010BDC04610B501F003FF0028FE
:1081E00001DA002010BD012010BDC0468446081CE5
:1081F0006146FFE71FB500F099FC002801D400217B
:10820000C8421FBD10B500F01DFC4042013010BD3A
:1082100010B500F08BFC002801DB002010BD012010
:1082200010BDC04610B500F081FC002801DD002023
:1082300010BD012010BDC04610B500F02BFC002879
:1082400001DC002010BD012010BDC04610B500F0BB
:1082500021FC002801DA002010BD012010BDC0461D
:10826000002B11D1002A0FD1002900D1002802D003
:108270000021C943081C07B4024802A1401802901B
:1082800003BDC046E9FEFFFF03B4684601B502988E
:1082900000F064F8019B9E4602B00CBC7047C046DB
:1082A000F0B515042D0C0F0001002E00C6468446C3
:1082B0000004140C000C090C46434D436043614319
:1082C0004019340C241800B5A54203D9802040027F
:1082D00080464144250C6D18614659437A43300469
:1082E00049192404000C2018891880BCB846F0BD38
:1082F0009E2110B5C905041CFFF7A8FF002803D173
:10830000201C00F03FFF10BD9E21201CC90500F07D
:1083100071FD00F037FF80231B069C466044F2E7A6
:1083200070B500220C4B04000D00FFF755FF00282C
:1083300004D12000290002F035FD70BD064B00225B
:108340002000290002F09CF902F02CFD80231B067E
:108350009C466044F1E7C0460000E041F0B5574656
:108360004E464546DE46E0B504000D00924699466D
:1083700083B08B4230D82DD04946504602F08CFD58
:1083800029000600200002F087FD331A9846203BA2
:108390009B4633D45A465346934042461F005346A9
:1083A00093401E00AF423AD8AF4200D178E05B461E
:1083B000A41BBD41002B00DA75E0002200230092CF
:1083C000019301235A46934001930123424693406F
:1083D000009328E08242CFD900220023009201932B
:1083E0000C9B002B01D01C605D600098019903B0CC
:1083F000F0BCBB46B246A946A046F0BD424620238B
:108400009B1A5246DA40414613004A468A401700FA
:1084100042461F43534693401E00AF42C4D9002238
:108420000023009201934346002BD9D0FB0772082A
:108430001A4346467B080EE0AB4201D1A2420CD85B
:10844000A41A9D41012024196D410021013E2418E8
:108450004D41002E06D0AB42EED9013E24196D41AC
:10846000002EF8D1009801995B4600196941002B54
:1084700024DB2B005A464446D3402A00E2401C002D
:108480005B461500002B2ADB26009E4033002600A9
:108490004746BE403200801A9941009001919FE703
:1084A000A342BCD883E74246202300219B1A002226
:1084B000009101920122DA40019286E74246202390
:1084C0009B1A2A0046469A402300F3404446134331
:1084D0002A00E2401C005B461500002BD4DA42461D
:1084E0002F002023260097409B1ADE403B00334399
:1084F000CDE7C046F0B54646D6464F464D0242024D
:10850000C0B5520A6E0A4700B0463F0E4E00C40F77
:10851000D00094463B008246360EC90FAD098C420E
:108520006DD0B81B814600284DDD002E00D188E0BB
:10853000FF2F5AD08023DB041D434B4601221B2B07
:108540000ADC2B004A464946D3402022521A954065
:108550002A00551EAA411A4353469A1A530100D4C1
:10856000B9E092019609300002F078FC05388640A7
:10857000874200DDD4E03300C71B20200137FB40D9
:10858000C71BBE403200561EB24100271A43530794
:1085900004D00F231340042B00D00432530100D425
:1085A0009CE07B1CFE2F00D19AE09201520A944677
:1085B000DBB2D8056346E40718432043E0BCBA4663
:1085C000B146A846F0BD002849D0F31B002F00D0CB
:1085D000B6E05246002A60D0013B002B00D1FCE0FF
:1085E000FF2E00D0B4E00C004246002A78D0802054
:1085F000C00310434202530A9C46FF23D9E7B91B2C
:10860000002971DD002E3FD0FF2FEED08023DB0448
:108610001D4301221B2907DC2A002023CA40591AC6
:108620008D406B1E9D412A435244530153D501375F
:10863000FF2F55D001237B49134052080A401A43AB
:10864000A5E7002D2CD001235B429C46E1444B461C
:10865000002B00D1ADE0FF2F00D06EE7C5E7FE2074
:108660007E1C304260D1002F00D093E05246002A99
:1086700000D1B6E0002D9CD0521B500100D4C3E0C5
:1086800053460C00EA1A82E7002D09D0013900296F
:1086900000D18BE0FF2FBCD1A7E70C00424637008A
:1086A000FF2FA2D05202530A9C46FBB281E7FE2163
:1086B0000137394265D1002B7ED1002800D1AAE0D4
:1086C000002D00D175E72A0052440027530102D53E
:1086D000554B01371A40530700D05AE7D208DFE75D
:1086E0000022FF23944664E70029E0D0F31B002F0B
:1086F0003ED0FF2E00D177E780220100D204114343
:108700008A4601221B2B08DC524620215046DA40C3
:10871000CB1A9840431E984102433700521984E710
:10872000414A3F1A324032E753465E1B73012DD453
:10873000002E00D017E7002200240023944638E7DB
:10874000FF2E00D14FE780225046D20410438246CC
:1087500001221B2B08DC524620245046DA40E31A43
:108760009840431E984102430C003700AA1AF5E6D0
:10877000002893D0013B002B4FD0FF2EC1D14246A1
:1087800033E7FF2FACD055446A08A4E753460C00EA
:10879000EE1AE8E65346002B28D1002D00D022E740
:1087A0008023DB039C460024FF2302E72A00524477
:1087B0003BE753465A1BD1E6002800D114E7002DB1
:1087C00000D112E78023DB031A4200D10DE74146B6
:1087D000194200D009E7424607E70C003700AA1A01
:1087E000BCE6002D13D00C00C446E2E6002D00D1FB
:1087F000FBE68023DB031A4200D1F6E6404618422E
:1088000000D0F2E60C00EFE6002A00D063E7002279
:1088100000249446CDE6C446CBE62A0037005244F5
:1088200003E7C046FFFFFF7DFFFFFFFBF0B54F46AC
:108830004646D6464502C0B547000C1C6D0A3F0EA1
:10884000C60F002F66D0FF2F6CD00023EA008025D2
:1088500099469A46ED0415437F3F60026100430A42
:108860009846090EE40F002948D0FF2910D0802235
:10887000D800D2040243904600207F394A46330094
:108880007F1A02436C4992008A586340DBB29746D4
:10889000002B6DD10220FF3F33E0002398462600D5
:1088A000454682465346022B00D17FE0032B00D180
:1088B00094E0012B17D038007F3000285FDD6B0774
:1088C00004D00F232B40042B00D004352B0103D5FB
:1088D00038005A4B80301D40FE2867DCAD016D0A20
:1088E000C0B202E01E0000200025C0052843F607A4
:1088F0003043E0BCBA46B146A846F0BD002B2BD1B0
:1089000001204A4633004E49024392008A58634090
:10891000DBB29746002D13D104239946033B002771
:108920009A469AE7002D05D108239946063BFF2772
:108930009A4692E70C239946093BFF279A468CE713
:10894000280002F08BFA7627431F9D4000237F42C8
:1089500099469A463F1A80E7180002F07FFA42468D
:10896000431F76219A404942091A9046002085E724
:10897000FF21032082E71E00FF200025B5E7012329
:108980001B1A1B2BAFDC9E372900BD40D9406A1E45
:1089900095410D436B0704D00F232B40042B00D0CF
:1089A00004356B0144D5012000259EE7FF200025FA
:1089B0009BE780250026FF20ED0396E700239846DD
:1089C0008020C003054209D04346034206D14546F4
:1089D00005436D022600FF206D0A86E78020C00354
:1089E00005436D02FF206D0A7FE741466A01480199
:1089F000824219D21B210025013F012614006D007F
:108A00005200002C01DB904201D8121A3543013983
:108A10000029F3D1501E824138007F301E001543DB
:108A2000002800DD4BE7AAE71A210125121AE4E726
:108A3000AD0100206D0A58E738130300FFFFFFF770
:108A40007813030070B542004E024C0045026D0AD7
:108A5000120EC30F760A240EC90FFF2A0FD0FF2C67
:108A600011D00120A24200D070BDB542FCD18B4292
:108A70000DD0002AF8D12800451EA841F4E70120B6
:108A8000002DF1D1EBE70120002EEDD1E9E7002028
:108A9000EAE7C046F0B5420046024D024C00C30F63
:108AA000760A120E6D0A240EC80FFF2A1FD0FF2C63
:108AB00010D0002A1FD171427141002C01D1002D2C
:108AC0001ED000290ED183421ED00221581E08401C
:108AD0000138F0BD002D26D1002AF4D17142714138
:108AE0000029F0D00028F4D101204042F1E7002E07
:108AF00019D1FF2CEED0002CE5D1002DE3D1E4E715
:108B00000020002EE5D0E0E7A24205DCEADBAE4221
:108B100002D8E7D30020DCE741424141484202212C
:108B200008400138D5E702204042D2E7F0B54200C4
:108B300046024D024C00C30F760A120E6D0A240E37
:108B4000C80FFF2A0DD0FF2C0FD0002A23D171426D
:108B50007141002C0FD1002D0DD10020002E14D01A
:108B60000DE0002E10D1FF2C15D1002D0CD1002AC4
:108B700003D171427141002908D1834210D00221F2
:108B8000581E0840013800E00220F0BD0028FCD14A
:108B900001204042F9E7002CEFD1002DEDD1EEE7A6
:108BA000A24205DCF2DBAE4202D8EFD30020ECE7B4
:108BB000414241414842022108400138E5E7C046B0
:108BC000F8B557464E464546DE464402E0B54500F8
:108BD0000F1C640A2D0EC60F002D47D0FF2D4DD05F
:108BE000002380209A469B46E400C00404437F3D56
:108BF0007802430A99467A00FB0F9846120E4B46BC
:108C000044D0FF2A11D0D8008023DB0403439946C7
:108C100000207F3AAD18474653467740691C0F2B1A
:108C20003FD8724A9B00D3589F46FF35002B00D097
:108C300079E0524602231A4392460220EBE7474668
:108C40004C4683465B46022B28D0032B00D1C6E05E
:108C5000012B4FD100200024C005FF0720433843DB
:108C6000F0BCBB46B246A946A046F8BD002C71D167
:108C700004239A46033B00259B46B9E7002C63D1A9
:108C800008239A46063BFF259B46B1E7002B50D1AF
:108C9000524601331A4392460120BCE7FF200024CC
:108CA000DAE74846260C2404220C0404240C4B4624
:108CB00020001B0C504374435A435E431219030CAB
:108CC0009B189C4203D980225202944666440004B9
:108CD0001A04000C12189401601E84411B0C920EA1
:108CE0009B1914439B011C431B0172D5012063088F
:108CF00004401C4308007F3000283CDD630704D09B
:108D00000F232340042B00D00434230103D58031EA
:108D10000800374B1C40FE28C0DCA401640AC0B226
:108D20009AE737008EE7524603231A439246032000
:108D300071E7484602F092F84A46431F9A402D1ABE
:108D400091460020763D66E70C239A46093BFF25B5
:108D50009B464DE7200002F081F87625431F9C409A
:108D600000236D429A469B462D1A41E78024002736
:108D7000FF20E40370E701231B1A1B2B00DD69E7CA
:108D80009E3120008C40D840631E9C410443630701
:108D900004D00F232340042B00D0043463011AD5E0
:108DA0000120002458E78020C003044209D04B462C
:108DB000034206D14C46044364024746FF20640A3E
:108DC0004AE78020C003044364023700FF20640A9E
:108DD00042E729008EE7A4010020640A3CE78020D6
:108DE000C00304436402FF20640A35E7B81303009C
:108DF000FFFFFFF7F0B54646D6464F4643025B0AF3
:108E0000DA0094464A02C0B54400560A051CB04632
:108E1000240E4E0092091F0020009246ED0F360EE0
:108E2000C90FFF2E00D17FE0012251408D4251D069
:108E3000A21B9146002A00DC7EE0002E00D199E0C2
:108E4000FF2C00D18CE080235246DB041A4392466B
:108E50004A4601231B2A08DC53462021D340891AA5
:108E600052468A40511E8A4113436246D31A5A0120
:108E700000D4F3E09B019E09300001F0EFFF0538BC
:108E80008640844200DDF7E03200041B20200134DC
:108E9000E240041BA64033005E1EB341002413438E
:108EA0005A0704D00F221A40042A00D004335A0172
:108EB00000D4D6E0621CFE2C00D1DAE09B015F0AF0
:108EC000D0B2C0053843ED072843E0BCBA46B146EE
:108ED000A846F0BDA21B9146002A63DD002E00D1FA
:108EE00099E0FF2C3CD080235246DB041A43924683
:108EF0004A4601231B2A08DC53462021D340891A05
:108F000052468A40511E8A41134363445A0100D499
:108F1000A4E00134FF2C00D1ABE0012297491A40B4
:108F20005B080B401343BBE7002A32D08D4235D09B
:108F3000FF2252429146A1444A46002A51D0301B9A
:108F4000002C00D09CE06346002B00D1DFE001380C
:108F5000002800D1F7E0FF2E00D099E00D00434635
:108F6000002B00D185E08027FF031F437F02FF20F5
:108F70007F0AA6E75246002A74D001225242904648
:108F8000C1444A46002A00D1C8E0FF2C00D05FE768
:108F9000E6E701225140A94200D049E7FF225242B0
:108FA0009146A1444A46002A43D0311B002C00D1EF
:108FB0008CE0FF2E00D192E080236246DB041A434E
:108FC000944601231B2909DC202063466246CB40DE
:108FD000411A8A401100481E81410B43340053441A
:108FE00094E7FE22661C324264D1002C00D082E05D
:108FF0006346002B00D1ABE05346002B00D160E765
:10900000634652469B1A5A0100D4AAE06346524670
:109010000D00D31A44E75246002A23D001225242BF
:109020009046C1444A46002A75D0FF2C00D05FE725
:1090300096E7FE260134264253D1002872D16346BA
:10904000002B00D193E05346002B00D139E7634455
:1090500000245A0102D54A4A013413405A0700D06D
:1090600020E7DB08FF2C00D17AE75B025F0AE0B261
:1090700027E7FF20002724E7414B241A33400FE75E
:10908000FF2E00D16AE780236246DB041A43944630
:1090900001231B2809DC202463466246C340201AB2
:1090A00082401000441EA041034352460D0034008C
:1090B000D31ADCE6634652469E1A730117D4002E7B
:1090C00000D0D9E6002500200027FAE66346002BF1
:1090D00044D0013900294CD0FF2E00D071E743461F
:1090E0003EE7FF2CC5D0524662445308B6E76346BC
:1090F0000D00D61AC0E66246002A16D15346002B50
:1091000000D02BE780270025FF20FF03D9E60D00C4
:1091100043463400A6E753466344F7E663465246A7
:109120009B1AA4E66246002AD9D05246002A00D1F2
:1091300016E78022D203134200D111E740461042C5
:1091400000D00DE70AE752460D003400D31A8EE630
:109150005346002B08D00D004746B2E64346340084
:1091600080E7002B00D079E700250027A9E64746D5
:10917000A7E6534634006344C8E6C046FFFFFF7DC0
:10918000FFFFFFFB41024200C30F490A0020120EFD
:109190007E2A03D99D2A02D9094A9818704780204F
:1091A00000040143952A07DC9620821AD1404842E8
:1091B000002BF3D10800F1E7963A9140F7E7C0465B
:1091C000FFFFFF7F70B5002813D0C317C5185D409F
:1091D000C40F280001F042FE9E2301001B1A962BAB
:1091E0000FDC082801DD08398D406D026D0AD8B208
:1091F00002E0002400200025C0052843E4072043A6
:1092000070BD992B0BDD05222E00121AD6400200EC
:109210001B3295402800451EA8413500054305290D
:1092200001DD4A1F95402A00084E3240680709D0E8
:109230000F202840042805D00432500102D59F2376
:1092400032405B1A9201550AD8B2D5E7FFFFFFFB07
:1092500070B5051E0ED001F001FE9E2304001B1AFE
:10926000962B0CDC082801DD083CA5406D026D0A38
:10927000D8B201E000200025C005284370BD992B1D
:1092800009DD020029001B3291404A1E914105224E
:10929000121AD5400D43052C01DD621F95402900AF
:1092A000084E31406A0709D00F202840042805D015
:1092B00004314A0102D59F2331401B1B89014D0A0D
:1092C000D8B2D9E7FFFFFFFBF0B54F46D64646467A
:1092D0000D0001001800C0B517002B035A0A4B0FF0
:1092E0001343CA00914602036E004100520AEC0F7C
:1092F0007D0F1543760D490DC00F8246AC46FF0029
:10930000721A844200D198E0002A00DC81E0002932
:1093100000D1B6E0C9498E4200D172E18021280017
:10932000090408438446382A00DD5EE11F2A00DD77
:10933000EEE1202039006546801A8740D140854003
:109340000D4339004F1EB9416746D7402943DB1B07
:109350004A46551AA945894149425B1A98464346EF
:109360001B0200D4CCE043465B025B0A98464346AE
:10937000002B00D12CE1404601F070FD01000839BE
:10938000202228004346521A8B40D0408D40034390
:109390008E4200DD17E18E1B721C1F2A00DDA7E143
:1093A000202118002E00891A8D408840D640D340D5
:1093B000691E8D4130439846002605436B0709D04E
:1093C0000F232B40042B05D02B1DAB42AD416D422A
:1093D000A8441D0043461B0200D494E0974B721C26
:1093E0009A4200D19DE04146954BED0819400B0093
:1093F000520549075B0229431B0B520D120513430B
:10940000E407234308001900E0BCBA46B146A84669
:10941000F0BD002A43D08A1B002E00D02AE14C4622
:109420001C4300D1D1E1541E012A00D11FE2834D1B
:10943000AA4200D172E2220023E1002A00DC98E077
:10944000002942D07D498E4200D1DAE080212800F7
:10945000090408438446382A00DD29E11F2A00DC7C
:1094600087E1110065462039CD40202A04D04020F4
:109470006146821A91400F4339004F1EB9410D4396
:109480001BE12900394300D1B5E0511E012A00D16A
:10949000ABE16A48824200D1B2E10A0043E7694980
:1094A000751C0D4200D0CFE0002E00D093E149465C
:1094B000194300D1D1E16146394300D0E3E1494687
:1094C0005807C9080143DB0826E02900394300D1C9
:1094D00091E0511E012A05D05848824200D18FE107
:1094E0000A00B8E73D004D444D4589416344984624
:1094F00049428844434602261B0200D5EBE0013E68
:109500006B0700D05CE74346E9085A071143320075
:10951000DB084A48824221D01B0352051B0B520D27
:109520006CE70023002169E72A003A4369D04A46E4
:109530005807D108DA0880231B0308431A4207D0D2
:109540002900ED081D4203D12A00FF0848073843CF
:10955000430FC1005B07C908194313000A001A43EF
:1095600000D113E28022120313431B03334A1B0B67
:1095700044E7002A4BD08A1B002E00D1E7E02F4899
:10958000814200D195E1802000040343382A00DDA8
:1095900043E11F2A00DDDBE120201D004E46801A3A
:1095A0008540D64035434E4686403000D340461E67
:1095B000B0419C440543ED19BD429B415B4263446D
:1095C00098460E007FE01E4A761A13409846F5E64C
:1095D000280001F043FC010018311F2900DCCFE610
:1095E0002B00083883400025D2E662463A4311003A
:1095F0004F1EB941ACE649465807C9080143DB088C
:1096000087E749465A07C9081143DB08A6E70D4911
:10961000701C084200D0BBE0002E00D014E1494687
:10962000194300D175E12900394300D07EE1494654
:109630005807C9080143DB086EE7C046FF07000072
:10964000FFFF7FFFFE0700004946CD1B6146581A09
:10965000A94589414942884601004046091A884681
:10966000090200D5A6E04146294300D07FE6002349
:10967000002451E7C74CA14200D1C7E08024240454
:109680002343382A54DC1F2A00DDCCE0202448463E
:10969000A41A1D004E46A040D640A5400400D34069
:1096A00062463543661EB441D31A9C46254344E0C6
:1096B00062463A4315006F1EBD414D444D458941F8
:1096C00049428846984443461B0200D418E7B14BF0
:1096D00001369E4249D04246AF4B01211A40130049
:1096E0006A080D401543D9075B0898460D4365E6A7
:1096F00018001F3EF040202A03D040218A1A9340D0
:109700001D43691E8D410023002698460543F7E658
:10971000110065462039CD40202A04D04020614602
:10972000821A91400F4339004F1EB94129430FE679
:109730004A4613431D006B1E9D417D1BAF429B415A
:1097400062465B42D31A984654460E0007E64846E6
:10975000184300D1B3E0501E012A00D10DE18D4D18
:10976000AA4200D1A5E0020010E732000023002148
:1097700044E620213800891A65468F408D40D0404C
:10978000791E8F4105433D436746D740DB1994E777
:10979000804A904200D1ECE0390049444945924169
:1097A000634452429B18DD0749085B08984606004F
:1097B0000D43A5E64A46BD1AAF4289416246494279
:1097C000D31A5B1A98465446D1E56C07F908214331
:1097D000EB0804009DE64A461A4375D161463943B9
:1097E00014D1802300241B03BCE64A46D51BA9459F
:1097F0008941624649429B1A5B1A98460126AEE5AA
:109800004A46D1085A071143DB08A7E66346F90820
:109810005A0754461143DB08A0E64A4613431D008D
:109820006B1E9D41C7E614001E00203CE640202A26
:1098300005D04024A21A93404A461A4391464D4609
:109840006B1E9D41354378E74A461A4300D06BE6CC
:109850006B07F9081943EB0880E66146394354D099
:109860006346F9085C072143DB08040054E64A46D6
:10987000BD1AAF42894162464942D31A5B1A9846E3
:10988000040001266BE54A46D51BA945894162467D
:1098900049429A1A521A9046120232D54A46BD1AC5
:1098A000AF42894162464942D31A5B1A9846040086
:1098B00084E56346F9085A071143DB084EE6F908C8
:1098C00068070143EB0824E662463A4300D198E674
:1098D0004A46D1085A071143DA0880231B031A426B
:1098E00008D06046C5081D4204D154462A00F90834
:1098F000430719434B0FC9005B07C90819431300FD
:109900002CE64146294300D0FAE500230A00002452
:1099100002E66B07F9081943EB08FDE56346F90811
:109920005B07194363460400DB0817E63D004D441E
:1099300063444D45894198464942884443461B0249
:1099400000D4DDE54246144B01261A409046D7E587
:1099500010001E002038C640202A05D04020821A60
:1099600093404A461A4391464D466B1E9D413543EE
:1099700021E602000023002140E54A46D519BD42F8
:1099800089416344984649428844B3E50021014A2D
:109990000B0033E5FF070000FFFF7FFFF0B55746E0
:1099A0004E464546DE46E0B5814605000C034800BC
:1099B00092461F0085B0240B400DCE0F002859D0D1
:1099C000874B984200D198E06B0FE4001C43802342
:1099D0001B0423439846834BED009B460023994686
:1099E000834400933C037B005046240B5B0DFF0F28
:1099F000002B67D07A4A934218D07A49420F8C469E
:109A0000E40059461443802263441204CB1A1443E1
:109A10009B46C200002033007B409A464B460F2BEA
:109A200000D9EFE070499B00CB589F466F4B5246E0
:109A30009C462243E344002A00D095E04946022395
:109A40001943894600240220E5E70023002400256D
:109A500052461B052343D20713432800190005B0C3
:109A6000F0BCBB46B246A946A046F0BD0024002586
:109A70005B4BEDE74B462343984600D189E0002C31
:109A800000D1E0E1200001F0E9F9010002000B390A
:109A90001D235B1A49461000D940083884400B004A
:109AA0004D4623439846854051483C03831A9B46C4
:109AB0000023994600937B005046240B5B0DFF0F5B
:109AC000002B97D15246224355D0002C00D1CAE139
:109AD000200001F0C3F902000B3A1D2301009B1A7C
:109AE00052460839DA408C40144352468A40414B72
:109AF00058449B46834400208DE74B4623439846B9
:109B000040D108239946063B00258346009369E728
:109B1000B246009B022BA9D0032B00D111E2012BEE
:109B200093D0354A5A44002A00DC3CE16B0700D050
:109B3000A7E1ED084346DB0106D542462F4B1A400C
:109B400090468022D2005A442D4B9A428EDC4346E6
:109B5000520558075C020543240B530D78E7BA46BB
:109B6000A04615000090D4E74A4603231A439146C5
:109B7000032052464FE749460123194389460024F2
:109B8000012048E70C239946093BA04683460093F1
:109B900028E70423994600239B46013300250093C0
:109BA00020E7002380249A4600250D4B24034FE72D
:109BB000802341461B03194208D01C4206D11C4396
:109BC0002403BA461500064B240B41E78024434684
:109BD00024031C432403B246014B240B38E7C04640
:109BE000FF07000001FCFFFFF813030001F8FFFF6F
:109BF0000DFCFFFFF3030000FF030000FFFFFFFE6B
:109C0000FE070000444500D216E100D111E1012316
:109C10005B429C462E0040460025E3442302140E7E
:109C20001C431B0C994623041F0C12024946009248
:109C30000197FEF7ADF902007A430B04310C804620
:109C400019438A420BD901235B429C460919E0441F
:109C50008C4204D88A4202D9831E98460919881A70
:109C60004946FEF795F909048C4631046646019A87
:109C7000090C4243030031438A4204D90919013BCC
:109C80008C4200D811E1891A4246009E12041A4300
:109C9000330C1F00100C9046029313043204160C70
:109CA00032001B0C5A4303967B4346437843170C00
:109CB000BC469B1963449E4203D980267602B44673
:109CC00060441E0C301816041B04360C9E19814289
:109CD00000D29CE000D197E0AE1B091AB54280414A
:109CE0004042081A844200D111E14946FEF750F97A
:109CF000019A0B044243310C050019438A4207D9EB
:109D00000919013D8C4203D88A4201D9851E0919DF
:109D1000881A4946FEF73CF909048C463104664628
:109D2000019A090C4243030031438A4207D90919B9
:109D3000013B8C4203D88A4201D9831E0919039E34
:109D4000891A32002D041D43029F2B041B0C5A4319
:109D50007B439C46280C4643130CB444634478432D
:109D60009E4203D980267602B44660441E0C12043B
:109D70001B04120C30189B18814206D302D0012319
:109D80001D43CEE6002B00D1CBE661186E1EA1422A
:109D900000D2A4E0814200D2C9E000D1D9E0350070
:109DA000EDE701256D420121891A382900DD4CE6D5
:109DB0001F2900DC7FE01F235B429A1A4346D340F1
:109DC000202904D04446654A5A44944025436A1EDB
:109DD000954107222B43150000241D401A4200D153
:109DE000A1E00F2200241A40042A00D198E01A1D95
:109DF0009A429B415B42E4181300220200D48FE098
:109E000001230024002523E6B54200D364E743463E
:109E10005A1E009B9C4665441F009D429B415B422D
:109E20001B19C9188C423AD2884263D860D0904638
:109E300052E7AA4200D9EAE64346DE0758086B0813
:109E40001E43ED07EAE6484601F008F8010002006B
:109E5000153120321C2900DC1AE64B4608388340B5
:109E60000025984620E600F0F9FF03001A0015329D
:109E700020301C2A00DC30E65446083B00229C407F
:109E800035E60F232B40042B00D152E605235B421D
:109E9000AB429B4104355B42ED0898444AE68C4254
:109EA000C5D1AF42C0D9904616E78A4200D8EAE64B
:109EB000831E0919E7E62A4A28005A44434695407A
:109EC0009340C8406A1E9541444603432B43CC400F
:109ED0005A0792D00F221A40042A88D18DE7350004
:109EE000814200D04BE7009A934200D047E718E642
:109EF000AE429CD902235B429C46009BE0449C46B8
:109F000065449D429B415B421B19C918E4E6154A12
:109F10005A44002A00DC44E701230025984409E65E
:109F200065076402240BDB081D43002390E5009EB7
:109F3000023D7200B242BF417F423C1909190092B2
:109F4000CEE78024434624031C432403064B240B02
:109F50007EE5009A9A42EAD33500C4E73E04000049
:109F60001E040000FF030000FF070000F0B54F468D
:109F70004646D646944691461A03120B184DC0B574
:109F80004C000F0392465A00060080463F0B01200A
:109F9000640DC90F520DDB0FAC420AD0AA4203D0A8
:109FA000944201D157450DD0E0BCBA46B146A8460F
:109FB000F0BD3D003543F7D1A242F5D1524665468A
:109FC0002A43F1D10120C845EED1994206D0002C98
:109FD000EAD13E433000461EB041E5E70020E3E70A
:109FE000FF070000F0B54E4645465746DE460400E2
:109FF0001800E0B516001B031B0B324D0F034A007F
:10A0000099464300A446B0463F0B520DC90F5B0D65
:10A01000C00FAA4229D0AB4218D0002A2AD13C4313
:10A02000A34665426541002B02D14C46264327D00A
:10A03000002D15D1814228D0022001390840013875
:10A04000F0BCBB46B246A946A046F0BD4D462E43E5
:10A050002FD1002AEED13C4365426541002DE9D065
:10A060000028EDD101204042EAE73D00254320D100
:10A070009342EBD0002BDDD14C462643DAD1DBE70F
:10A080005B460020002BDBD0D6E79A420ADCE7DBF8
:10A090004F45D1D810D000204F45D1D20029E1D072
:10A0A0000800CDE74342584102234042184001389E
:10A0B000C6E702204042C3E7C445BDD80020C445DE
:10A0C000BED2EBE7FF070000F0B54E4645465746C7
:10A0D000DE4604001800E0B516001B031B0B314DD3
:10A0E0000F034A0099464300A446B0463F0B520D69
:10A0F000C90F5B0DC00FAA4211D0AB4214D0002A89
:10A100002FD13C43A34665426541002B14D14C46F8
:10A11000264311D15B460020002B17D010E03D00F4
:10A12000254312D193421CD14D462E430DD1002A16
:10A1300004D13C4365426541002D0DD1814216D0CA
:10A14000022001390840013800E00220F0BCBB4683
:10A15000B246A946A046F0BD0028F7D101204042F2
:10A16000F4E7002BEAD14C462643E7D1E8E79A42D0
:10A1700006DD434258410223404218400138E5E7DA
:10A180009A42E9DB4F45DBD806D000204F45DDD2AF
:10A190000029E3D00800D9E7C445D1D80020C44540
:10A1A000D4D2F5E7FF070000F0B557464E464546C6
:10A1B000DE46E0B598460C034B000600924687B099
:10A1C000240B5B0DCF0F002B6CD0DD4A934200D1E6
:10A1D00086E0420FE4001443802212041443D94A5B
:10A1E000C500944663440093002399469B4643462A
:10A1F00042461E03D20F5B0050469046360B5B0D65
:10A2000000D178E0CE4A93421DD0CE49420F8C4611
:10A2100000996344F6008C46164380229C44120445
:10A2200063461643C2000020009300994346013163
:10A230008C4649467B4001930F2900D97EE0C24BF2
:10A24000890059588F465246009B324300D056E150
:10A25000BB4900268C4663444946009302231943B8
:10A2600089460220E1E74346019334001500834606
:10A270005B46022B5ED0032B00D1F3E1012B00D013
:10A2800018E1002200240025019B12052243DB0770
:10A290001A432800110007B0F0BCBB46B246A946DD
:10A2A000A046F0BD2500054300D141E1002C00D1BE
:10A2B000ADE1200000F0D2FD010002000B391D23AA
:10A2C00010005B1A3100350008388440D9408540C1
:10A2D0000C439E48831A0093002399469B4686E7C9
:10A2E0000500254300D01CE108220093022300242E
:10A2F00091469B467BE75246324300D10AE1002E4D
:10A3000000D176E1300000F0A9FD02000B3A1D23D8
:10A3100001009B1A52460839DA408E4016435246D5
:10A320008A40009B8949181A03008C466344002028
:10A3300000937AE700240025814AA5E72F0C2D041D
:10A340002D0C2B00110C1204120C534398461300D1
:10A3500028007B43994648434844834640460B00C7
:10A36000000C824658467B4350440293814506D9EF
:10A370009A4680235B029946CA4453460293030CD3
:10A380009B4643461B0400041B0C984603004344B1
:10A390000493330C99462B003604360C73439846CD
:10A3A00033007B439A464B465D435F4343465544E7
:10A3B000180C4019824503D980235B029A46574402
:10A3C000050CEB19059343461D042D0C00044019A0
:10A3D000250C2404240C270057436A4390462A0086
:10A3E0003B0C9A464A436143414451448344884567
:10A3F00003D980235B02984642443F040B0C3F0C78
:10A400000904C919270098464B4677435C436E43BD
:10A410005D433B0C9946A4194C4442440395A64223
:10A4200004D980235B02984645440395029B3F0470
:10A430005B441E008342804123049846059B3F0CE9
:10A440004744984676188E428941474440423D1819
:10A45000A846934649428A46C3449F42BF4180452D
:10A460008041039BDA449846534640427F4207436B
:10A47000240C934592418A4589413F19DC0D049B88
:10A4800075021D43681E85415346524249420A43A4
:10A49000BF184744F60D7F0235435A023C4315432B
:10A4A000FB0100D4C1E001216A080D401543E20719
:10A4B0001543640826496144002956DD6B0709D01D
:10A4C0000F222A40042A05D02A1DAA42AD416D421E
:10A4D00064191500E30104D580211E4AC900144007
:10A4E00061441D4A914200DD24E76207ED086402E1
:10A4F00049051543240B4A0DC6E60197B8E6104AF4
:10A500000320944663444A46009303231A4391462A
:10A5100052468AE64946012319438946002601200E
:10A5200083E60C2200930323050091469B465EE6DA
:10A530000423994600230093013300249B4656E6EA
:10A54000FF07000001FCFFFF381403000DFCFFFFB4
:10A55000FF030000FFFFFFFEFE0700000023802432
:10A560000025444A019324038EE60120401A38282E
:10A5700000DD86E61F285BDD1F2223005242511AB0
:10A58000CB401900202803D03B4A62449440254325
:10A590006A1E95412A000A4307210D000024154038
:10A5A00011425BD00F2100241140042953D0111D0A
:10A5B000914292415242A4180A0023024BD5012233
:10A5C0000024002560E680231B031C4209D01E42A4
:10A5D00007D133431C0343461500240B254A01933E
:10A5E00052E68022120314432403224A240B0197CB
:10A5F0004AE600F033FC03001A00153220301C2A12
:10A6000000DC84E65646083B00229E4089E600F0C6
:10A6100025FC01000200153120321C2900DC4EE629
:10A62000340008380025844053E6009B9C4641E7EF
:10A630001249220061442E008D408A40C640691EA6
:10A640008D4132432A43C4405307B6D00F211140F5
:10A650000429ACD1B1E765076402240BD208154385
:10A66000002211E68022120314432403014A240B22
:10A670000AE6C046FF0700003E0400001E0400007A
:10A68000F8B557464E464546DE460400E0B51F0085
:10A6900010000B03620F4E00CD0F5B0A390313430A
:10A6A000490AE200440F2143C24C91469246C00041
:10A6B0007A008046760D520DFF0FA24200D1B4E021
:10A6C00001246740BB46BD4200D188E0B41AA446CD
:10A6D000002C00DCB2E0002A00D1C5E0B54A964269
:10A6E00000D18BE28022120411436246382A00DD39
:10A6F000A1E11F2A00DD16E220270C00BF1ABC4092
:10A700000200A0466446B840E240444614430200BA
:10A71000501E82416046C14022435B1A49468C1A52
:10A72000A145924152429B1A984643461B0200D4CF
:10A7300017E143465B025B0A98464346002B00D173
:10A740006CE1404600F08AFB0200083A202120001C
:10A750004346891A9340C84094400343964200DD23
:10A7600057E1961B711C1F2900DDCBE12022180048
:10A770002600521A94409040CE40CB40621E944135
:10A780003043984600260443630709D00F23234033
:10A79000042B05D0231DA342A4416442A0441C0005
:10A7A00043461B0200D4DFE0824B01369E4200D1BB
:10A7B000FBE04246804BE4081A4013007105520743
:10A7C0005B0222431B0B490D0905ED071943294381
:10A7D0001000F0BCBB46B246A946A046F8BDB41A6C
:10A7E000A446002C58DD002A00D19EE0714A964212
:10A7F00000D13BE18022120411436246382A00DD79
:10A80000C1E01F2A00DCBBE10C00203AD44022004A
:10A810006446202C04D040273F1BB94008438046A3
:10A820004446611E8C411443B1E00C0004432AD01D
:10A83000BB46BD422DD0614CA446B4446446002CB6
:10A840005CD0941BA446002E00D015E14D461D435C
:10A8500000D1C3E1651E012C00D10CE2554EB4427B
:10A8600000D1F8E1AC460EE10A00024300D136E126
:10A870002200013A012C00D1C6E14E4CA44500D182
:10A88000F4E0944631E701246740BB46BD4200D066
:10A890001CE74A4CA446B4446446002C00D1CFE0E7
:10A8A000941BA446002E00D15CE1424EB24200D17E
:10A8B000ECE18026360433436446382C00DDB3E1F6
:10A8C0001F2C00DD38E22026361B1C00B4404F460A
:10A8D000A0466446E74044463C434F46B7403E00EE
:10A8E000771EBE4134436646F340C918241884429B
:10A8F0009B415B429846160088444EE0304A741CE7
:10A90000144200D0D6E04A461A43002E00D05BE144
:10A91000002A00D1A5E10A00024300D0BBE14A466B
:10A920005907D2080A43DB0827E00A00024300D196
:10A9300074E12200013A012C05D01E4CA44500D13F
:10A9400094E0944659E74844484592415B1898463C
:10A95000040052429044434602261B0200D5C4E044
:10A96000013E630700D011E74346B4465907E208A9
:10A970000A43DB080F498C4540D061461B0349055B
:10A980001B0B490D20E701430C00611E8C414C4418
:10A990004C45924152429046984443461B02E0D5B2
:10A9A000044B01369E4200D09FE03100002300227C
:10A9B0000AE7C046FF070000FFFF7FFF01F8FFFF27
:10A9C000FE070000002A00D160E10A0002434DD0DA
:10A9D0004A465C07D20822438024DB082403234232
:10A9E00007D0CE08264204D15D463300C20849078D
:10A9F0000A43510FD200D20849070A4311001943F4
:10AA000000D1C8E1802109030B431B03D5491B0B6F
:10AA1000DAE6D549B61A0B409846B5E6200000F0B4
:10AA20001DFA020018321F2A00DC8FE623000838C6
:10AA30008340002492E608430200501E82416DE6E6
:10AA4000CA4C721C224200D0ADE04A461A43002E86
:10AA5000B8D1002A00D158E10A00024300D059E1E0
:10AA60004A465907D2080A43DB0886E74A4659078F
:10AA7000D2080A43DB08C1E7BA4DAA4200D11EE161
:10AA800080252D042B436446382C5DDC1F2C00DD13
:10AA9000D0E0202567462D1B4E461C00FE40AC40F2
:10AAA00034434E46AE403500FB406E1EB541C91AD8
:10AAB0002C434EE04A46141AA14592415242904618
:10AAC0005F1A3A004746D21B9046120200D58BE02F
:10AAD0004246224300D030E6002300254DE74A4697
:10AAE0005907D2080A43DB0844E742469E4B6108F7
:10AAF0001A401300012214400C43DA075B08984601
:10AB0000144341E61A001F3EF2401600202903D0EC
:10AB10004022511A8B401C43621E9441002334434F
:10AB2000984600261DE70C00203AD44022006446D7
:10AB3000202C04D040273F1BB940084380464446A0
:10AB4000611E8C412243E9E54C4623431C00631EF1
:10AB50009C41041BA0429B415B42CB1A98465D4638
:10AB60001600E2E54E461E4300D1AEE0661E012C03
:10AB700000D1FDE07B4FBC4200D107E1B4469BE62B
:10AB800064462022121B0C00944007009040A0460F
:10AB90006446421E90416246E7404446D1403C43F1
:10ABA00004435B18F3E66F4CA24200D1D5E0484461
:10ABB0005B184845894149425B18DC0740085B083F
:10ABC000984616000443CCE6002A00D082E00A0032
:10ABD000024340D1802300251B0313E74B07C20823
:10ABE0001A435D46CB08C5E64A46841AA042924104
:10ABF000CB1A52429B1A98465D469EE54A46590733
:10AC0000D2080A43DB08F9E64A46141AA1459241E4
:10AC10005B1A52429B1A9846012686E54A46590716
:10AC2000D2080A43DB08A5E64C4623431C00631EFA
:10AC30009C415BE665461E00203DEE40202C05D081
:10AC400040252D1BAB404C461C43A2465446631E78
:10AC50009C4134437DE74B07C2081A435D46CB084D
:10AC6000CCE60A00024300D136E74B07C2081A437C
:10AC70005D46CB0881E64A46841AA0429241CB1A2F
:10AC800052429B1A98465D4601264EE54B07C20884
:10AC90001A43CB08B2E64A46141AA14592415F1AFC
:10ACA0005242BA1A904612026BD54A46841AA04202
:10ACB0009241CB1A52429B1A98465D4664E54B0777
:10ACC000C2081A435D46CB0898E64B07C2081A43F0
:10ACD000CB084FE60A00024390D04A465C07D208F0
:10ACE00014438022DB081203134208D0CE08164218
:10ACF00005D1C0084907084304005D463300610FD1
:10AD0000E2004907D2080A4378E64B07C2081A4313
:10AD1000CB0832E648445B18484592419846524277
:10AD20009044434604001B0200D41AE642460E4BF0
:10AD300001261A40904614E666461F00203EF74062
:10AD4000202C05D04026361BB3404C461C43A2465F
:10AD50005446631E9C413C43C8E511000023002279
:10AD600032E5C046FF070000FFFF7FFFFE0700003F
:10AD70004A461418844292415B18984652429044C5
:10AD8000E9E54246224300D1A6E6EAE54B07C208C0
:10AD90001A43CB0832E600220149130014E5C046ED
:10ADA000FF0700000A0030B5134C530009030500EB
:10ADB000090B00205B0DD20FA34204DD0F48834234
:10ADC00002DD0F4BD01830BD8020400301430D48F9
:10ADD000C01A1F2808DD0C48C31AD9400B0058427E
:10ADE000002AF0D11800EEE7084CC540A4466344A1
:10ADF00099400B002B43F2E7FE0300001D04000006
:10AE0000FFFFFF7F3304000013040000EDFBFFFF92
:10AE100010B5041E10D000F021F80F4B1B1A0A28A1
:10AE200011DC0B222100121AD14015300A035B05F8
:10AE30008440120B5B0D01E0002300221B0513432D
:10AE40002000190010BD22000B3882405B05120360
:10AE50000024120B5B0DF1E71E0400001C210123EE
:10AE60001B04984201D3000C10391B0A984201D3ED
:10AE7000000A08391B09984201D30009043902A2CB
:10AE8000105C40187047C046040302020101010132
:10AE9000000000000000000010B5002903D1FFF7FA
:10AEA000DDFF203002E0081CFFF7D8FF10BDC046D0
:10AEB00030B581B014001D0008232A001EF042FAAC
:10AEC000002805D0210008232A0028001EF03AFAA5
:10AED00001B030BD30B581B014001D0008232A0038
:10AEE0001EF054FA002805D0210008232A0028006B
:10AEF0001EF028FA01B030BDF0B48AB0140000266C
:10AF000001961E00730000270097002B59D0761E73
:10AF1000029606000F0000200021019A0993039475
:10AF2000029C009DAC4202D300232C4602E0254641
:10AF3000009B5B1B9C4235D30796069708940195AE
:10AF4000079C019DAD0065592C0CADB20595069D81
:10AF50009E00AE59350CB7B2059E7E4367430497F9
:10AF60006C43059F7D43049FED19BD4202D28027AB
:10AF70007F02E4192F0CE4192F04F519BD4200D209
:10AF8000641C4019A84200D2641C0919A14200D2D5
:10AF9000521C019C641E01945B1C089C9C42CFD2F5
:10AFA000079E069F039B1860080011000022009B6B
:10AFB0005B1C0093039B1B1D0393009B099CA342F6
:10AFC000AED30AB0F0BC704710B5140008231EF0D1
:10AFD000DDF9002805D008232200A94920001EF031
:10AFE000B1F910BDF0B589B006000C00082231009F
:10AFF00020001EF069FA0025009501950295E06A8F
:10B000000390206B0490606B0590A06B0690E06B42
:10B0100007909C4F33003A0069463000FFF748FF25
:10B0200033003A0069463000FFF742FF0795206B76
:10B030000390606B0490A06B0590E06B069033006A
:10B040003A0069463000FFF733FF33003A006946A3
:10B050003000FFF72DFFE06B0790A06B0690059581
:10B0600004950395A06A0290606A0190206A00909E
:10B0700033003A0069463000FFF71AFFA06A0790D4
:10B08000206A0690606B0290206B0190E06A00904D
:10B0900033007D4A69463000FFF71CFF606A00906C
:10B0A000A06A0190E06A0290606B0390A06B04902C
:10B0B000E06B0590606B0690206A079033003A00C1
:10B0C00069463000FFF7F4FEE06A0790606A069078
:10B0D00005950495206B0090606B0190A06B029029
:10B0E000E06B03903300684A69463000FFF7F2FED8
:10B0F000206B07900695A06A0590606A0490206A0C
:10B100000390E06B0290A06B0190606B00903300A5
:10B110005D4A69463000FFF7DDFE606B07900695DB
:10B120000295E06A0590A06A0490606A0390E06B63
:10B130000190A06B00903300534A69463000FFF73E
:10B14000C9FE09B0F0BDF0B5A1B00F00082218A9E2
:10B150001EF0BAF94C4D082210A928001EF0B4F9CF
:10B16000082168461EF0BCF9082108A81EF0B8F9AD
:10B170000124009413E0082318AA10A918A81EF0AF
:10B1800005F908236A4608A968461EF0FFF800285A
:10B1900005D008236A46290068461EF0D3F818A88F
:10B1A0001EF041F9002861D110A81EF03CF90028DA
:10B1B0005CD1189820401AD118A81EF050F90098B8
:10B1C000204003D168461EF04AF90DE008236A4684
:10B1D000290068461EF0B6F8060068461EF03FF9E2
:10B1E0000798F1070143079118982040E4D0109880
:10B1F00020401AD110A81EF032F90898204003D13F
:10B2000008A81EF02CF90DE0082308AA290008A8B8
:10B210001EF098F8060008A81EF021F90F98F10713
:10B2200001430F9110982040E4D0082210A918A8DB
:10B230001EF06DF900289ED5082310AA18A910A8A1
:10B240001EF0A4F8082308AA694608A81EF09EF874
:10B250000028A4D0082308AA290008A89DE70822EE
:10B26000390008A81EF030F921B0F0BD18A81EF072
:10B27000DAF80028F3D0082239006846F2E7000027
:10B2800078140300F8B80000D8B80000F8B582B010
:10B2900004000F001600099D280028306862403025
:10B2A0002860203068602030A8602030E8602030BE
:10B2B0002861203068612030A8612030E8612030AA
:10B2C00028620821A8691EF00BF90821E8691EF020
:10B2D00007F90821286A1EF003F90094FF242800CA
:10B2E00000F042FA2011C00E0019401180003058C1
:10B2F000E106C90EC840C00704D52A0039000098ED
:10B3000000F07AF9641EEAD52C00089D029E21689F
:10B31000206AFFF718FF0823626A2168A069FFF717
:10B32000EBFD616AA069FFF75DFE0823626A216890
:10B33000A069FFF7E1FD616A3000FFF753FE0823C3
:10B34000626A2168E069FFF7D7FD616AE069FFF78B
:10B3500049FE0823626A2168E069FFF7CDFD616A52
:10B36000E069FFF73FFE0823626A2168E069FFF7A2
:10B37000C3FD616A2800FFF735FE03B0F0BD0B0086
:10B3800000D17047F0B581B0040017000D003E00F9
:10B39000A036306800F0E8F92006400F80003858E9
:10B3A000E106C90EC840C00706D5326839004031F1
:10B3B0003800203000F020F9641E6D1EE7D101B086
:10B3C000F0BD30B581B00500A0202C582168206A5E
:10B3D000FFF7B9FE0823626A2168A069FFF78CFDB8
:10B3E000616AA069FFF7FEFD0823626A2168A0690F
:10B3F000FFF782FD616A28006030FFF7F3FD082344
:10B40000626A2168E069FFF777FD616AE069FFF72A
:10B41000E9FD0823626A2168E069FFF76DFD616A52
:10B42000E069FFF7DFFD0823626A2168E069FFF742
:10B4300063FD616A28008030FFF7D4FD01B030BDA4
:10B4400070B506003400A0342568002D28D02800EF
:10B450002830686240302860203068602030A86062
:10B460002030E86020302861203068612030A861F9
:10B470002030E861203028620821A8691EF030F8E9
:10B480000821E8691EF02CF80821286A1EF028F827
:10B490000020207144480168002901D0300088470D
:10B4A00070BD0000F0B5A9B006000F003F4D0822A6
:10B4B00029001EF02CF8002806D5082229003800A3
:10B4C0001EF025F8002801D400206BE0082318AAFC
:10B4D00031003000FFF710FD18A96846FFF782FD24
:10B4E000102118A81DF0FCFF314C18AB220000BF42
:10B4F00031A16846FFF7DCFC2098002806D108221D
:10B50000290018A81EF003F800280DDD082318AA4A
:10B51000290018A81DF03AFF002805D0082318AA12
:10B52000244918A81DF00EFF082308AA310018A806
:10B53000FFF7E2FC08A96846FFF754FD102108A8B0
:10B540001DF0CEFF08AB220023A16846FFF7B0FC38
:10B550001098002806D10822290008A81DF0D7FF5E
:10B5600000280DDD082308AA290008A81DF00EFFF9
:10B57000002805D0082308AA0E4908A81DF0E2FEFD
:10B58000082318AA39003800FFF7B6FC18A9684646
:10B59000FFF728FD082208A968461DF0B8FF401EE5
:10B5A0008041C00F29B0F0BD380F0020D8B800008E
:10B5B000F8B8000078140300FCFFFFFFFFFFFFFF57
:10B5C000FFFFFFFF0000000000000000000000007F
:10B5D00001000000FFFFFFFF4B60D2273E3CCE3B47
:10B5E000F6B053CCB0061D65BC86987655BDEBB35E
:10B5F000E7933AAAD835C65A70B506000D00140074
:10B60000E0691DF0E8FE002811D00822A169300091
:10B610001DF05AFF0822E16928001DF055FF08219E
:10B62000206A1DF05DFF0120216A086070BD206A5C
:10B630000823626A0100FFF75FFC616A2068FFF778
:10B64000D1FC0823626A31002068FFF755FC616A6B
:10B650006068FFF7C7FC0823626A216A2800FFF7C9
:10B660004BFC616AA068FFF7BDFC0823626A216891
:10B67000A068FFF741FC616AA068FFF7B3FC00BF58
:10B6800095A523692A006168A069FFF723FC0823B8
:10B69000626A216A2069FFF72FFC616A206AFFF75E
:10B6A000A1FC63692A00A168E069FFF713FC206927
:10B6B0000823626A0100FFF71FFC616A2068FFF738
:10B6C00091FC60690823626A0100FFF715FC616A5A
:10B6D000E068FFF787FC0823626A21686068FFF76B
:10B6E0000BFC616A6068FFF77DFC0823626A2169D0
:10B6F0002068FFF701FC616A2069FFF773FCE368CB
:10B700002A0021691800FFF7E5FB6068236800BF85
:10B7100079A20100FFF7CCFBA3692A002168E06849
:10B72000FFF7D8FB606803002A00A169FFF7D2FB8E
:10B730000823626A61686069FFF7DEFB616A60691D
:10B74000FFF750FC0823626A2169A068FFF7D4FB69
:10B75000616A2068FFF746FCE3692A002168606996
:10B76000FFF7B8FB70BD000070B50400E0691DF084
:10B7700032FE00280CD00821A0691DF0B1FE08217E
:10B78000E0691DF0ADFE0821206A1DF0A9FE70BD24
:10B79000E1690823626A0800FFF7AEFB616A60682E
:10B7A000FFF720FC636800BF53A52A0019001800AA
:10B7B000FFF77EFB0823626A6168A069FFF79CFBC4
:10B7C000616AA068FFF70EFCA06803002A00010070
:10B7D000FFF76EFB60680823626A0100FFF78CFBCD
:10B7E000616A6068FFF7FEFB606803002A000100E1
:10B7F000FFF75EFB0823626A216AE069FFF77CFBC2
:10B80000616A2069FFF7EEFB206A0823626A010083
:10B81000FFF772FB616A6069FFF7E4FB2069236A46
:10B820002A000100FFF744FBE3682A006169A06970
:10B83000FFF73EFB606903002A000100FFF738FBB9
:10B84000616900BF24A60B003200E068FFF742FBED
:10B850000823626A6169E068FFF74EFB616AE0688D
:10B86000FFF7C0FBE06863692A000100FFF720FBD7
:10B87000E06803002A006169FFF71AFBE06808230B
:10B88000626A0100FFF738FB616A6069FFF7AAFB93
:10B89000606903003200A168FFF71CFBA369320056
:10B8A000A1686069FFF716FBA06803003200A16978
:10B8B000FFF710FB0823626AA168E068FFF71CFB32
:10B8C000616AE068FFF78EFBE36932006168E06857
:10B8D000FFF700FB70BD0000FFFFFFFFFFFFFFFF52
:10B8E000FFFFFFFF0000000000000000000000005C
:10B8F00001000000FFFFFFFF01000000000000004A
:10B9000000000000FFFFFFFFFFFFFFFFFFFFFFFF43
:10B91000FEFFFFFF00000000F0B583B00500160039
:10B920000124002E0FD00F00380000F071F8040041
:10B9300009D12B0001961800203000903A004C49A4
:10B940004C48FFF7A3FC200003B0F0BD30B581B038
:10B95000040000F05DF805000ED1202245492000CA
:10B9600020301CF0AAFF20224149200040301CF06A
:10B97000A4FF2000FFF764FD280001B030BDF0B542
:10B9800083B01D000024002D0AD00290002807D0AB
:10B990000E0005D0170003D01DF01DFD002801D0BA
:10B9A000012413E0310020313000FFF77BFD002837
:10B9B00001D105240AE001953800203000903B00B9
:10B9C000029A310020313000FFF760FC200003B004
:10B9D000F0BD30B581B004000025A020205800281B
:10B9E00004D020001DF0F7FC002801D001250CE058
:10B9F0002100403120002030FFF754FD002801D104
:10BA0000052502E02000FFF71BFD280001B030BD36
:10BA100070B506000025002E26D00024E443002245
:10BA20001021F7F743FBA04208D00022102130007C
:10BA30001030F7F73BFBA0420F4C07D1032514E071
:10BA400008233200210030001DF0A0FC0822210054
:10BA500030001DF05CFD0028F2D5320008230749B4
:10BA600010001DF06FFC00E00125280070BD0000F3
:10BA7000BC1403009C140300DC140300FC1403003A
:10BA800001000120002902D0094801600020704710
:10BA900010B5074C20680021064A0023FCF700FC83
:10BAA0000422D2430023FCF7DBFB2260104610BDCA
:10BAB00078080020C160A810D0490160D0494160D9
:10BAC000D0498160D049C160D0490161D04941610C
:10BAD000D0498161D049C16170470300012900DA72
:10BAE0007047F0B4A4B002920A91029800681290D4
:10BAF000029949681191029A926810920192029AF1
:10BB0000D2680F920392029A12690E920092029AE0
:10BB100052690D920592029A92690C920692029ACB
:10BB2000D2690B9204921A0000239C00155D2D0629
:10BB3000561C365D36042E43951C2D5D2D02354373
:10BB4000D61C345D2C4314AD9E00AC515B1C9C0094
:10BB5000155D2D06561C365D36042E43951C2D5D55
:10BB60002D023543D61C345D2C4314AD9E00AC51E0
:10BB70005B1C9C00155D2D06561C365D36042E435D
:10BB8000951C2D5D2D023543D61C345D2C4314AD20
:10BB90009E00AC515B1C9C00155D2D06561C365D4D
:10BBA00036042E43951C2D5D2D023543D61C345D85
:10BBB0002C4314AD9E00AC515B1C0F2BB5D91392D6
:10BBC0000027964E019A009B059C069D01970596BD
:10BBD00002260700F741BC460D270600FE416746D6
:10BBE0007E40B44616260700F74166467740BC46BD
:10BBF00017004F40074016000E407E406746BE19B2
:10BC00000796049E009606261F00F741BC460B27A8
:10BC10001E00FE4167467E40B44619261F00F741CC
:10BC200066467740009EF719BC4627001F402E004D
:10BC30009E437E406746BE19059F3F68F719BC4684
:10BC400014AF019E3607B60EBE596746BE1904955D
:10BC500025001C00039B9B1903920A000100079812
:10BC60003018019E761C0196059E361D0596019E94
:10BC70000F2EADD906900791019200930594049C74
:10BC8000674E06980799019A009B06950494102424
:10BC9000099614AD26000F3E3607B60EAD5907269D
:10BCA0002F00F741BC4612272E00FE4167467E401A
:10BCB000ED087540079514ADA61E3607B60EAD59B2
:10BCC0002607B60E089614AE089FF6590196079FF0
:10BCD000BC4614AFE61F3607B60EBE596746BE19FE
:10BCE000009611272E00FE41B44613262F00F7417F
:10BCF00066467740AD0A7D40009E7519019E751914
:10BD000014AE089FF55102250600EE410D270500EF
:10BD1000FD41754016270600FE416E4015004D405E
:10BD2000054017000F406F40F5193E4E3360049EEA
:10BD3000009606261F00F741BC460B271E00FE4159
:10BD400067467E40B44619261F00F7416646774095
:10BD5000009EF719BC46059F1F40069E9E437E40ED
:10BD60006746BE19099F3F68F719BC4614AF089E85
:10BD7000BE596746BE19069F0497059F069705930F
:10BD8000039B9B1903920A0001007019641C099D12
:10BD90002D1D0995402C00D27BE707910399059C46
:10BDA000069D049E129F3818029F38601198079FC5
:10BDB000C019029F786010988018029A90600F98BE
:10BDC00040180299C8600E98C018029908610D9831
:10BDD0000019029948610C984019029988610B98E2
:10BDE00080190299C861139B40330A98401E0A903B
:10BDF00000D07AE624B0F0BC7047000067E6096A1C
:10BE000085AE67BB72F36E3C3AF54FA57F520E517B
:10BE10008C68059BABD9831F19CDE05B201503000F
:10BE200060150300A821002010B500F049FE1DF0A8
:10BE300094FC00F075FE23F08CFD11F0F3F900F096
:10BE400045FE0122224B23481A70234BDA78442AFC
:10BE500003D19A78022A02D920481CF01FFC204AFC
:10BE6000198820489142F8D85A7A1F48092AF4D1F3
:10BE70009A79D9791D4852181A2AEEDC5A791C4849
:10BE8000242AEAD11A791B48022AE6D81A7A1A48D3
:10BE9000082AE2D182225989184852009142DCD105
:10BEA0001A7B1748082AD8D8DA8916481A2AD4D112
:10BEB0001A7E0221100008400A4201D01248CCE745
:10BEC00080221B8A5200934201D91048C5E710BD59
:10BED00092320020DE1E0300241C0300901F03008A
:10BEE0007206000024200300C72003007E21030007
:10BEF0003F220300F2220300862303002B240300C9
:10BF0000E02403007425030023260300B826030061
:10BF100013B56B469C1D00236220238000F09EFE1B
:10BF2000030609D50A4B9B78002B0ED020001DF08C
:10BF300033FB084B584316BD074B5A68802310004B
:10BF40005B0318401A42F6D0F0E701204042F2E7C6
:10BF5000B232002071020000807208401FB5012437
:10BF600064420C4803AB0093002223000A49006896
:10BF7000F7F7E4F91DF031FB039BDB0702D5002046
:10BF800003F09EFB1DF02AFB044B18780028E8D133
:10BF900004B010BDB81B0020FFFFFF008F1E030080
:10BFA00010B5034B01211868F7F7AEF9002010BD5A
:10BFB000B81B002070B51A4B0100DA79FF281CD09D
:10BFC0009D796C1CE4B2042A10D85855FF20013228
:10BFD0009C71DA71DA79002A18D19A715A710B00C2
:10BFE0000340FF2B01D00FF0E3F970BD5A79501CCC
:10BFF0005871985C9C715955ECE7002AEAD0587941
:10C00000013A441C5C71185CDA71E3E79A79042AFE
:10C0100001D900229A715A79042AE0D90022DDE779
:10C02000963200200023F7B5019301330B7007000F
:10C030000E00082001A922F08CFD05000720002D2C
:10C040001BD1019C0422684639681CF036FC2A008A
:10C0500020000A4922F024FA009B21001A0AA37149
:10C06000E2711A0C1B0E637208236370063B227286
:10C07000FF20337022F05AF92800FEBD26FD000093
:10C080000278044B9A704278DA70827800201A7134
:10C090007047C046C0280020164B10B59A4219D0F0
:10C0A00009D8154B9A420FD0144B9A420FD0144B1B
:10C0B0009A4214D010BD134B9A4217D0124B9A4299
:10C0C000F8D11DF0D8FAF5E71DF0A9FAF2E71DF056
:10C0D000B5FAEFE703780B7043784B70EAE78378A3
:10C0E0000B7043784B7003788B70E3E71DF0CCFA4C
:10C0F000E0E7C0462DFD000026FD000027FD000002
:10C1000070FC0000F0FD0000F2FD0000F8B5254BCA
:10C1100005009E8ADC8A9F8B234B1B78002B01D065
:10C1200010231F43214B1B78002B01D040231F43BA
:10C130002B0502D5C6239B001F436B0701D50223A5
:10C140001E432B0701D504231E4310231D4200D09C
:10C150001E4320231D4200D01E436B0605D503F06D
:10C16000C1F901281AD10443A4B22B0601D5082332
:10C170001C43EB0501D510231C43AB0501D504235B
:10C180001C433100EA2000F07BFD2100EC2000F090
:10C1900077FD3900F82000F073FDF8BD02231C4341
:10C1A000E3E7C046C02800209432002095320020EA
:10C1B000F0B587B01D000CAB1B88070002930DABD8
:10C1C0001B880091019203930FF03AF80400022FAC
:10C1D00023D98023DB009F421FD0002104AB9A1D8E
:10C1E0000720D98011F0B2F9280004AB9E791DF028
:10C1F000FCF90500009B20006380019B2780A3724F
:10C20000029B2671E380039B657123810E4B1B68A3
:10C21000002B16D0984707B0F0BD009807F094FDAA
:10C22000002801D1FF26E5E7012F07D14C30007827
:10C230001DF0E9FCC6B2002EF4D0DBE74B300678E7
:10C24000F9E71DF02FFAE6E7B0210020F0B587B03E
:10C2500005280BD8FBF702FE030C101E8EDD002311
:10C26000974A1380974A1370974A137007B0F0BD2E
:10C270000022964B1A60F9E708881FF043F8012363
:10C28000834090490A789A430A708F490A789A4302
:10C290000A70EBE716880D8830001FF033F88C4BDE
:10C2A00007001B7B8342E1D982238A4A5B00434318
:10C2B000FC329268D3180393002BD7D010232C00A4
:10C2C0001C401D4204D07F4B1C780123C4401C40FD
:10C2D0006B0606D57C4B1B78FB40DB0701D50223A0
:10C2E0001C43AB0742D5764B1A888023DB001A42E9
:10C2F0003CD01C439C20800000F0B0FC3F257649D8
:10C300000540380021F042FD80278023FF00DB003C
:10C31000029027401C420ED09F20800000F09EFC1F
:10C32000070001908020029BFF22009331002B0028
:10C33000C000FFF73DFF022004420AD0039BFF220A
:10C34000FC331F88029B3100009301972B00FFF7FD
:10C350002FFF0120044200D188E7029BFF220093B7
:10C3600031002B000197FFF723FF7FE7002C00D15E
:10C370007CE7BFE714780E22514B0E881D8802AB74
:10C38000D2180021072011F0E1F873070FD5082714
:10C390003D420CD0C42000F061FC00224306019213
:10C3A0000092380022004D499B0EFFF701FF102735
:10C3B0003E420ED03D420CD0C42000F04FFC002283
:10C3C0004304019200923800220044499B0EFFF77B
:10C3D000EFFE20273E420ED03D420CD0C42000F09C
:10C3E0003DFC0022430401920092380022003B49A8
:10C3F0009B0EFFF7DDFEB30700D437E704200542AC
:10C4000000D133E700232200019300933349FF3327
:10C41000A9E70E222A4B07201C8802ABD2180D88F0
:10C42000002111F093F803F05DF8013843425841C0
:10C43000023028420AD04020044207D00023019352
:10C440000093FF331A002549FFF7B2FE2B070FD5E3
:10C45000802634420CD0C42000F000FC00224304AB
:10C460000192009230001D499B0EFF32FFF7A0FEA3
:10C47000EB0610D58026760034420CD0C42000F0A4
:10C48000EDFB0022430401920092300013499B0E01
:10C49000FF32FFF78DFE6B0700D4E7E68025AD0085
:10C4A0002C4200D1E2E6C42000F0D8FB0022430673
:10C4B00001920092280009499B0EFF3253E7C046C3
:10C4C000BE2800209432002095320020B0210020A8
:10C4D000241C0300BC2200206E020000FFFF0000AD
:10C4E000024B18884006C00F7047C046BE28002087
:10C4F000F7B580270D4B7F011B8804003B4213D00A
:10C500001DF052FF0A490600200021F03FFC050003
:10C51000C42000F0A3FB4304FF2238009B0EA1B20D
:10C5200001960095FFF744FEF7BDC046BE280020E7
:10C530006E02000010B5104B1B78012B1BD18C2212
:10C5400000210E4C0E4B5200206819701CF0D7F9D8
:10C550007F2123685A1D1E33FF33117007329A4220
:10C56000FBD10522002107481CF0C9F9082200214F
:10C5700005481CF0C4F910BD93320020B4210020FE
:10C58000A83200209F32002096320020F7B5070025
:10C590000E000024584B9B780093009BA3424AD87E
:10C5A00021F0F5F9002802D1013002F0A9FE534B29
:10C5B000534A33401380002F00D193E0802303249B
:10C5C00032001B014F4D504834401A401E4241D0AA
:10C5D0000123B0222B704D4B8C211A7014234C4A2E
:10C5E000490013704B4A13704B4A137064224B4B33
:10C5F0001A7010F005FE0190002827D000232B7040
:10C600000725474B9F423CD1464A474B012C2BD034
:10C61000022C2ED0002C30D114701C70022D36D07C
:10C620003000FFF773FD0024009BA3425CD1012082
:10C6300002F060FC2CE020001EF004FA011E02D182
:10C64000200002F09DFD0134E4B2A6E7FFF772FF7F
:10C650000025D6E700682A700028F9D023F025F9D4
:10C660000028F5D01F25CCE7FF21117000221A7099
:10C67000D4E700211170FF22F9E7FF211170197032
:10C68000CCE738001EF02CFE0190012802D00225D4
:10C690002800FEBD38001EF035FE224A224B012C38
:10C6A0000CD0019981400800022C0FD0002C15D12C
:10C6B0001178814311701A788243D8E78440117849
:10C6C000E4B2214311701A78A243D0E7C8B21178BE
:10C6D000814311701A78104318709FE7C8B211781F
:10C6E0000143F6E73D009BE720000021013402F002
:10C6F000B9FBE4B298E7C046241C0300FC1F00000D
:10C70000BE28002093320020B42100209E32002059
:10C71000A4320020A5320020A6320020A73200203B
:10C72000FFFF00009432002095320020F0B5484B06
:10C7300007001E780D0085B0012E60D1454BC42046
:10C74000FC339B680724009300F088FA4004800EB5
:10C750001CF04BFF010021408E403F4AC308DBB272
:10C76000D15C60430E43D6543C4B1C6824182B0705
:10C7700002D500223A4B1A706B062ED5E90A2B051A
:10C780003FD523780133237000262379D420013349
:10C79000237102AB5E7100F061FA02AB991D088053
:10C7A0005A1D082010F0D2FE02AB5B7938005BB254
:10C7B00063711DF053FE019038001DF054FE294BAB
:10C7C00001211B7B0833DBB29C46B3B263452DD3FA
:10C7D000234A13780133DBB21370EB060FD5204BDD
:10C7E0001B78002B0BD1822040007843009B181847
:10C7F0001DF01EFF012802D1A3790133A37105B0FA
:10C80000F0BD07220B001340114203D1A37801337E
:10C81000A370B9E7022B03D1E3780133E370B3E7E8
:10C82000062BB1D1637801336370ADE70B00B340E1
:10C83000019A1BB21A4012B2002A06D003401BB262
:10C84000002B02D0A3790133A3710136BDE7C046A6
:10C8500093320020BC2200209F320020B42100200F
:10C86000A8320020241C0300F0B5584B89B01B7877
:10C87000012B00D0A2E00022554F019202933B7899
:10C88000002B00D192E00026019BDB00DBB2059378
:10C890003B78029AF340134200D183E0059B9B1939
:10C8A000DBB203930723039A53434A4A1568ED18F2
:10C8B0000523EB560493484B049A1B785BB29342D2
:10C8C00000DD7DE0142A00DD7AE0444B2A781B78F5
:10C8D0009A4200D976E0424B6A781B789A4200D996
:10C8E00072E0404BAA791B789A424AD908230093F8
:10C8F0000EF0A6FC009B04000380039B07A9837233
:10C900002B7843806B788380EB78C3802B7903810D
:10C91000049BC372AB79037300231220079322F0A8
:10C9200018F9002823D13E2307990B70303B4B7038
:10C93000F1338B702388CB701B0A0B7163884B71AA
:10C940001B0A8B71A388CB711B0A0B72E3884B7295
:10C950001B0A8B722389CB721B0A0B73A37A4B734E
:10C96000E37A8B73237BCB73029821F0DFFC03986F
:10C97000FFF720FB0722002128001BF0C0FF7F23C8
:10C980006B71194B2A791B789A4206D9072200212C
:10C9900028001BF0B4FF7F236B71029A3B78B240F2
:10C9A00093433B700136082E00D071E7019B01379D
:10C9B0000133DBB20193052B00D060E709B0F0BD75
:10C9C000042394E7029B92E7022390E7933200202E
:10C9D0009F320020B42100209E320020A43200208B
:10C9E000A5320020A6320020A73200200300080054
:10C9F0001100164A10B593421ED00AD8144A934229
:10CA000014D0144A934214D0134A934217D00120F1
:10CA100010BD124A934215D0114A9342F7D1B22366
:10CA20008178104A5B000020D154F1E7FFF7FAFA51
:10CA3000EEE71CF0EBFDEBE71CF06DFEE8E7FFF71F
:10CA40001FFBE5E71CF05BFEE2E7C0462DFD0000A2
:10CA500026FD000027FD000070FC0000F0FD000036
:10CA6000F2FD0000BC220020054A10B51360054B02
:10CA70001B68002B02D104481BF010FE10BDC046FD
:10CA8000BC210020B82100208D270300094B70B580
:10CA90001B680C001500002B02D107481BF0FEFD9F
:10CAA0009847064B2900200000221B689847012068
:10CAB00070BDC046B82100202C280300BC210020F6
:10CAC000014B18607047C046B82100208022C62064
:10CAD000FF21054B52041A6080001A588A43110046
:10CAE00080220A431A50704700E100E00A4B13B558
:10CAF00004000A491868FBF7C5F90022800A002CD7
:10CB000000D113BD0192019B834201D3013CF6E7A2
:10CB1000019B01330193F6E75408002088130000BD
:10CB200070B50025374C384E4C212000357000F090
:10CB300085FB625DFF2A63D10135202DF9D10123E8
:10CB400006223249324833701BF0B7FE314B1A7857
:10CB5000531E0F2B04D81F21E38F8B431343E3870E
:10CB60002D4B1A78531E062B05D8E38A5203DB049B
:10CB7000DB0C1343E382294B1A78531E062B05D88E
:10CB8000238B5203DB04DB0C13432383C822244B87
:10CB900012011B88934200D8E385230030331A78B2
:10CBA000204B4021187813008B43002801D10B0043
:10CBB00013432200303213701B4B1B78032B06D813
:10CBC0002100032032310A78824313430B70174A45
:10CBD000E378907DD17D83430B43E370230090790C
:10CBE000473318702300D2792C331A70CB0603D444
:10CBF0002822E38E9343E3861CF0B1FDC04670BD4E
:10CC000000239DE7C0280020BA3200208C3200208B
:10CC1000C6280020D51E0300DD1E0300DA1E030017
:10CC2000221C0300D61E0300DB1E0300241C03008D
:10CC300072B6024A1378013313707047AB3200208A
:10CC4000054A1378002B05D0013BDBB21370002B93
:10CC500000D162B67047C046AB320020064B5A681E
:10CC6000002A01D00021596004494018008880B290
:10CC7000002A00D05A607047006008400000084059
:10CC8000014BC0180180704700000840F0B5002B30
:10CC900014D015004908490040180C495C1E80B2A8
:10CCA000A4B24618A91A89B28C4208D801218B4334
:10CCB0009C4203D1135D054A80180380F0BD69785A
:10CCC0002F780902394331800235EBE70000084034
:10CCD000F7B5002B17D00025490849005C1E401805
:10CCE000A4B280B2571CAEB2811989B20191B4428C
:10CCF0000AD801218B43C01880B29C4203D1135D36
:10CD0000074A80180380F7BD7E5D515D36020E43F1
:10CD1000B4460349019E0235711866460E80E2E76B
:10CD200000000840F0B5002A10D00C000B4D531E37
:10CD30009BB24619651AADB2AB4208D80124A24392
:10CD4000934203D1054ACB5C80180380F0BD65781F
:10CD500027782D023D4335800234EBE70000084080
:10CD6000002070B51BF0A3FA084B5A68002A01D0C6
:10CD700000215960C1200125054CC000215AA9435A
:10CD80002152002A00D05A6070BDC04600600840A1
:10CD900000000840F8B50123274D04002A881A42F4
:10CDA0001AD0264E32781A4201D1984214D101236A
:10CDB000234F3B709C420BD141210020FFF760FFC5
:10CDC000200000F07FFA02201DF0CCFB00233B7016
:10CDD000012233789343337002232A881A421AD0EF
:10CDE000164E32781A4201D19C4214D10123154FBC
:10CDF0003B70022C0BD143210020FFF741FF2000A4
:10CE000000F060FA05201DF0ADFB00233B7002220C
:10CE100033789343337008222B88134207D0074995
:10CE20000B78134203D0042C01D193430B700222E0
:10CE3000054B5A60F8BDC0460E290020AC320020D8
:10CE4000B8320020B932002000600840C12201231E
:10CE50000D49D200885A03438B520C4B5B68DBB2FE
:10CE60005B2B0FD80A4B0B4A1A625A629A62DA623B
:10CE70000123094A5B421360084A1360084A1360A1
:10CE8000084A13607047C04600000840807208409E
:10CE90007C740840555555556C74084070740840B2
:10CEA000747408407874084010B51BF023FC0B4BD9
:10CEB0001A78012A08D1002098705A78012A03D1E3
:10CEC0005870D8701BF070FC054B1A78012A01D1FC
:10CED00000225A701BF00AFC10BDC046B23200207E
:10CEE000AE32002070B505001BF004FC0E4C237818
:10CEF000DEB2012B0DD1A3782B43A3706378012BF5
:10CF000007D0002108001BF04DFC002801D16670FD
:10CF1000E070064B1A78012A02D1587805435D70FB
:10CF20001BF0E4FB70BDC046B2320020AE320020E0
:10CF300070B505001BF0DEFB1B4C2378012B1CD1C8
:10CF4000042D0AD1194B1B7D002B06D080231849D4
:10CF50005B034A681A42FCD104E0A378AB43A37098
:10CF6000042DF3D06378012B19D1A378D8B2002B0C
:10CF700015D16070E0701BF017FC0E4E3378012B5A
:10CF80000AD12378012B02D12379012B04D0FFF79A
:10CF9000E7FE7378AB4373701BF0A8FB70BD2800ED
:10CFA000FFF7F8FEE9E7C046B2320020BC220020BD
:10CFB00080720840AE32002070B504001BF09AFB6E
:10CFC000184B5B68DB022AD4174D184B28781B7866
:10CFD00004432C70164C012B07D12378012B02D16E
:10CFE0002379012B01D0FFF7BBFE2378012B16D14B
:10CFF0006378012B13D129780E4B8A0702D51A7852
:10D00000013A1A701A78002A02D00922114206D079
:10D010000020032260701A70E0701BF0C5FB1BF04B
:10D0200065FB70BD80720840AC320020AE3200203B
:10D03000B2320020A30C002010B51BF05BFB0A4BA2
:10D040001A78D1B2012A04D19878033202439A7037
:10D05000D970064B1A78012A03D1597803320A4352
:10D060005A701BF043FB10BDB2320020AE320020DC
:10D07000C12370B50C4ADB00D35ADB0713D51BF074
:10D0800039FB0A4C2378DDB2012B0AD16378012BDE
:10D0900007D0290000201BF085FB002801D1657016
:10D0A000E0701BF023FB70BD00000840B23200208E
:10D0B00010B51BF01FFB042305498A781A438A70B8
:10D0C000044A51780B4353701BF010FB10BDC0464F
:10D0D000B2320020AE32002070B51BF00BFB0F4DBA
:10D0E0002B78DCB2012B0AD16B78012B07D0002101
:10D0F00008001BF057FB002803D16C70E870002477
:10D1000002E06C711BF0F2FA1BF0F0FA044BDB78D2
:10D11000002B00D00124200070BDC046B232002098
:10D12000AE32002070B51BF0E5FA0B4C2378DDB26F
:10D13000012B0ED1A27807331343A3706378012B20
:10D1400007D0002108001BF02DFB002801D16570DD
:10D15000E0701BF0CBFA70BDB232002010B51BF0AE
:10D16000C9FA0B4B1A78012A0ED108219A788A4302
:10D170009A705A78012A07D19A78D0B2002A03D13E
:10D180005870D8701BF010FB1BF0B0FA10BDC046F1
:10D19000B2320020802380200E4A5B04516810B513
:10D1A0000B43536080001CF011FB0B4B1B78012BD1
:10D1B00005D11BF0FBFA012802D1FFF747FE10BD95
:10D1C000064B1A78012A02D11B79012BF7D0FFF701
:10D1D000C7FDF4E780720840AE320020B232002072
:10D1E000114B70B51B78012B0DD1022100240F4B80
:10D1F000DA8A988A11430E4AD98202439A820D4BE9
:10D200001D79A54200D870BD20000B4920F08DFF8C
:10D210008022520002430849200092B2013420F0DB
:10D220007AFFE4B2EDE7C046B2320020C028002009
:10D2300002C0FFFF241C0300220F000010B50A00EB
:10D240000249FAF765FD012010BDC0462016030013
:10D25000024B33331878072318407047C02800204A
:10D2600010B504000820FFF7F9FC044B204381B2FD
:10D2700008201980FFF704FD10BDC0460E290020CC
:10D2800010B504000138072808D8FAF7E7FD0412A2
:10D29000071407070716EA201DF016F90820FFF704
:10D2A000DDFC074B204381B208201980FFF7E8FC22
:10D2B00010BDEC20F0E7EE20EEE7F820ECE7C046EA
:10D2C0000E29002010B504000820FFF7C7FC044B0E
:10D2D000A04381B208201980FFF7D2FC10BDC046E0
:10D2E0000E290020013883B210B5F820032B01D895
:10D2F000024AD05C00221DF0C0F810BD492A03008C
:10D3000010B5034B1888034B1880FFF7DBFF10BDE7
:10D310000E2900200C29002010B5024B1888FFF7B9
:10D320009FFF10BD0C29002070B542780378C578A6
:10D3300012021A43837844792D021D430379240293
:10D340001C4301290CD111006620FFF799FC29002C
:10D350006820FFF795FC21006A20FFF791FC70BD63
:10D36000EA210020090120F0C4FE2A00002004491F
:10D3700020F0BFFE22000020024920F0BAFEEEE7B6
:10D38000A20E0000A40E000070B546780378C578A0
:10D3900036021E43837844792D021D430379310000
:10D3A0002C2024021C43FFF76BFC29002E20FFF7E2
:10D3B00067FC21003020FFF763FC0A4BDB79022B6E
:10D3C0000FD032000020084920F093FE2A000020F0
:10D3D000064920F08EFEEB2122000020090120F0FA
:10D3E00088FE70BD0C220020AC0E0000AE0E0000C6
:10D3F00070B50400012914D16620FFF72FFC060048
:10D400006820FFF72BFC05006A20FFF727FC267039
:10D41000A570360A2D0A030A6670E57020716371E3
:10D4200070BD01481BF03AF90B29030070B50400E8
:10D430000D00012906D12420FFF710FC41082940E6
:10D44000217070BD01481BF029F9C0467329030003
:10D4500037B56B46DA71134B040031331B780D007E
:10D460005B0703D001211048FFF70AFC6B4600223E
:10D47000D91D0D2010F06AF86B46D979ED010D43E6
:10D480008021C9002943B820FFF7FAFBA1B2CE20C2
:10D49000FFF7F6FBFFF746FE46210020FFF7F0FB03
:10D4A00037BDC046C02800201E05000037B56B46BA
:10D4B000DD1D0E4B287031331B7804005B0703D051
:10D4C00001210B48FFF7DCFB002229000E2010F0A1
:10D4D0003DF88021C9002143B820FFF7D1FBFFF7B9
:10D4E00021FE47210020FFF7CBFB37BDC0280020DD
:10D4F0001E05000073B51D006B46D871124B0C0061
:10D5000031331B7816005B0703D001210F48FFF76A
:10D51000B7FB6B460022D91D0D2010F017F86B46A3
:10D52000D979F6013143AD022943B82089B2FFF71A
:10D53000A7FBA1B2CE20FFF7A3FBFFF7F3FD462127
:10D540000020FFF79DFB73BDC02800201E050000D2
:10D5500013B56B46D8710F4B0C0031331B785B074A
:10D5600003D001210C48FFF78BFB6B460022D91D2D
:10D570000E200FF0EBFF6B46D979A4022143B820AF
:10D5800089B2FFF77DFBFFF7CDFD47210020FFF7B4
:10D5900077FB13BDC02800201E05000070B5482190
:10D5A0000020FFF76DFBFFF7D9FDB820FFF756FB12
:10D5B000402405002540204213D12A0029000F20D5
:10D5C0000FF0C4FFBA20FFF749FB084B04003133CA
:10D5D0001B785B0703D029000548FFF751FB2000AB
:10D5E00070BDB820FFF73AFBE3E7C046C028002033
:10D5F0001E05000073B500256B460400591D2A0066
:10D6000014200D700FF0A2FF62790A21280020F08B
:10D6100070FD6279012A04D80A212800023220F024
:10D6200068FDA37B2579032B38D9ADB2A421002056
:10D63000490020F068FD3F23A421984382B24900AD
:10D64000002020F056FD667BA279760112026B461F
:10D6500016432E4300259A1D09201249DD800FF044
:10D6600075FF6B462800DA880F4920F042FD28003C
:10D67000217904F0B5FFE0229201280032430C2109
:10D6800020F037FD280022880E2120F032FDB7213E
:10D690002A002800490020F02CFD73BDDB001D434B
:10D6A000C4E7C046EA280020C20F0000002130B5C0
:10D6B000050089B01C2201A80091FAF77BFB6A469D
:10D6C0002B78691C13706B461F22581C1BF0F5F851
:10D6D0002C780134E4B21CF072F8002809D16B46B2
:10D6E00069461A78124B01319B68D8695A801BF041
:10D6F000E4F81CF0F3F800213F2003F045FDF8208A
:10D700006A46A3B20021000101F0F2FE002009499F
:10D7100020F0F9FCFF222B7812020240002B01D1ED
:10D720003F331A430020034920F0E3FC09B030BD29
:10D7300044240020C80E000070B50D0004000C2128
:10D74000280020F0E0FC064AE4020240E0208001CC
:10D7500004400C212800224320F0CBFC70BDC046C1
:10D76000FFC7000070B50C00C67883784579360293
:10D770001E43037942782D021D43037812021A4397
:10D780002000074920F0B5FC32002000054920F0B8
:10D79000B0FCEB212A002000090120F0AAFC70BD9A
:10D7A000AC0E0000AE0E000070B50D00EA210400C2
:10D7B00042780378120228001A43090120F099FCEC
:10D7C000E278A378120228001A43064920F091FC5F
:10D7D000627923791202280003491A4320F089FC58
:10D7E00070BDC046A20E0000A40E0000F0B50122DC
:10D7F00007000D0000248B7D87B0002B4ED13349EC
:10D80000380020F080FC1F231840029007201DF0F4
:10D810008CF82F4B0390323301931A7801231A406E
:10D8200004ABDE1D3100287E1CF0E6F83378012BB6
:10D830003AD808220133337000233178039820F05E
:10D8400039FC244B244A5C43A418029A5443234ACB
:10D85000A418234A0419906844227A43A4B2801879
:10D86000C4810020EA7A82420BD02D685D436A436E
:10D870001C4B10009A4200D918002900FAF702FB4D
:10D880006843194B2018984218D81E21FAF7FAFA63
:10D89000002380B25B03184307B0F0BD134201D0F0
:10D8A0000134E4B25B08A8E7042301213370019B33
:10D8B00008221B780B42BFD0063ABDE796214900EB
:10D8C000FAF7E0FA012380B2E4E7C046980F0000BF
:10D8D000C0280020710200008FFDFFFF0E0600002F
:10D8E00044240020D47E2500C4BF0300F0B585B0D9
:10D8F0006B460500D971100000236A460D2413738E
:10D900000E226C446A44237013801CF04FFF6B4658
:10D91000DB7906005BB27F2B2FD16A461A4B2A3384
:10D920001B7813730E27220003A90A200FF00EFEA6
:10D9300020786F4480193A00207003A909200FF065
:10D9400005FE0023FF269B21E35628009BB21C0204
:10D9500033401C43A4B2220049003F8820F0C9FB99
:10D96000220028003240094920F0C3FB3A00280079
:10D97000074920F0BEFB05B0F0BD6B46102003AA9E
:10D98000D91D0FF0E3FDCDE7C02800209E0E00005A
:10D99000C20F0000F0B585B000930AAB1B880C00E5
:10D9A0000393417D06000023032900D8CB00B77BF9
:10D9B000B17D3F0249010F4300990B43717B1F4327
:10D9C0000197D300012901D802317173717B520193
:10D9D0000B431A43C0239B00134302930C23328949
:10D9E0001A4204D0300021000F30FFF7DDFE01277E
:10D9F0003100484D307E32352A7818313A401BF0DC
:10DA0000FBFF2A783100FA40707E3A4019311BF052
:10DA1000F3FF727E357ED2000C2120001543019A5F
:10DA200020F067FB029A0A21200020F062FBA4216B
:10DA30002000490020F067FB3F23A421984382B2D5
:10DA40002A432000490020F054FB2000009904F0F4
:10DA5000C7FD3389DB065AD431002000FFF7C6FE2C
:10DA6000030000905B0BC004C00C3B424AD00A2567
:10DA70004543F77A012F01D9013FFFB22000264923
:10DA800020F041FBFF231B02184033890743DB06CC
:10DA900005D4AA212000009A490020F02AFB012287
:10DAA000CB216B001A43200092B2490020F021FBE9
:10DAB000CC212000490020F026FB03230200CC21CA
:10DAC0009A43ED0B2A43200092B2490020F011FB4B
:10DAD000A3212000039A490020F00BFB33682000AB
