:020000040000FA
:1080000000CAFF1F098100008DF1000029910000C6
:108010000000000000000000000000000000000060
:10802000000000000000000000000000518100007E
:10803000000000000000000053810000C9B40000EF
:108040005981000061810000698100007181000098
:1080500029A6000081810000898100009181000033
:1080600099810000A1810000A9810000B181000078
:10807000F9AB0000C9810000D1810000D981000066
:10808000E1810000E9810000F1810000F981000038
:1080900001820000098200001182000019820000A4
:1080A00021820000B9810000298200003182000095
:1080B00039820000418200004982000051820000A4
:1080C00000B2030000010020000C000000B2030019
:1080D0000001002000000000F0B1030000CAFF1FF3
:1080E00000000000F0B1030000C0FF1F000000000E
:1080F000000D0020F826000000CAFF1F000000004D
:1081000000C0FF1F0000000010B572B606F0CEFFE1
:108110000B4C0C4B9C4206D30B4B9C420AD362B6D1
:1081200003F0C0F9FEE7A2686168206800F094F8E7
:108130000C34EEE76168206800F099F80834EBE74A
:10814000C0800000F080000008810000FEE7FEE72C
:10815000FEE7FEE7FEE7FEE710B5FFF7FCFF10BD08
:1081600010B5FFF7F8FF10BD10B5FFF7F4FF10BD15
:1081700010B5FFF7F0FF10BD10B5FFF7ECFF10BD15
:1081800010B5FFF7E8FF10BD10B5FFF7E4FF10BD15
:1081900010B5FFF7E0FF10BD10B5FFF7DCFF10BD15
:1081A00010B5FFF7D8FF10BD10B505F0E1FB10BD0D
:1081B00010B505F041FF10BD10B505F03DFF10BD35
:1081C00010B506F07DFA10BD10B5FFF7C4FF10BD65
:1081D00010B5FFF7C0FF10BD10B5FFF7BCFF10BD15
:1081E00010B5FFF7B8FF10BD10B5FFF7B4FF10BD15
:1081F00010B5FFF7B0FF10BD10B5FFF7ACFF10BD15
:1082000010B5FFF7A8FF10BD10B5FFF7A4FF10BD14
:1082100010B5FFF7A0FF10BD10B5FFF79CFF10BD14
:1082200010B5FFF798FF10BD10B5FFF794FF10BD14
:1082300010B5FFF790FF10BD10B5FFF78CFF10BD14
:1082400010B505F0A1FB10BD10B5FFF784FF10BD00
:1082500010B5FFF780FF10BD002330B55D181C1866
:10826000934200D330BD246804332C60F6E700232A
:1082700010B51C001A188B4200D310BD14600433D3
:10828000F8E7FFFFFFFFFFFFFFFFFFFFFFFFFFFF1D
:10829000FFFFFFFFFFFFFFFFFFFFFFFFFFFFFFFFEE
:1082A000FFFFFFFFFFFFFFFFFFFFFFFFFFFFFFFFDE
:1082B000FFFFFFFFFFFFFFFFFFFFFFFFFFFFFFFFCE
:1082C000FFFFFFFFFFFFFFFFFFFFFFFFFFFFFFFFBE
:1082D000FFFFFFFFFFFFFFFFFFFFFFFFFFFFFFFFAE
:1082E000FFFFFFFFFFFFFFFFFFFFFFFFFFFFFFFF9E
:1082F000FFFFFFFFFFFFFFFFFFFFFFFFFFFFFFFF8E
:10830000FFFFFFFFFFFFFFFFFFFFFFFFFFFFFFFF7D
:10831000FFFFFFFFFFFFFFFFFFFFFFFFFFFFFFFF6D
:10832000FFFFFFFFFFFFFFFFFFFFFFFFFFFFFFFF5D
:10833000FFFFFFFFFFFFFFFFFFFFFFFFFFFFFFFF4D
:10834000FFFFFFFFFFFFFFFFFFFFFFFFFFFFFFFF3D
:10835000FFFFFFFFFFFFFFFFFFFFFFFFFFFFFFFF2D
:10836000FFFFFFFFFFFFFFFFFFFFFFFFFFFFFFFF1D
:10837000FFFFFFFFFFFFFFFFFFFFFFFFFFFFFFFF0D
:10838000FFFFFFFFFFFFFFFFFFFFFFFFFFFFFFFFFD
:10839000FFFFFFFFFFFFFFFFFFFFFFFFFFFFFFFFED
:1083A000FFFFFFFFFFFFFFFFFFFFFFFFFFFFFFFFDD
:1083B000FFFFFFFFFFFFFFFFFFFFFFFFFFFFFFFFCD
:1083C000FFFFFFFFFFFFFFFFFFFFFFFFFFFFFFFFBD
:1083D000FFFFFFFFFFFFFFFFFFFFFFFFFFFFFFFFAD
:1083E000FFFFFFFFFFFFFFFFFFFFFFFFFFFFFFFF9D
:1083F000FFFFFFFFFFFFFFFFFFFFFFFFFFFFFFFF8D
:10840000FFFFFFFFFFFFFFFFFFFFFFFFFEFFFFFF7D
:108410004C080020A305070A000000008008002087
:10842000BE010606000000009C0800204701060A65
:1084300001000000700E002005000400154002003D
:10844000840E002001003C00144002008C0E00202D
:108450000100380013400200880E002001000800CF
:1084600012400200900E0020010020001140020086
:1084700010B5444A06201378002B00D081E001217A
:108480001170414A5F3111804048414A195C99544A
:108490000133102BFAD100233E4C3F48195CE218FF
:1084A0000133D170102BF9D100233C4C3C48195CAE
:1084B000E2180133D170102BF9D10023394C3A481E
:1084C000195CE2180133D170102BF9D10023374C1D
:1084D0003748195CE2180133D170102BF9D1002311
:1084E000344C3548195CE2180133D170102BF9D1A6
:1084F0000023324C3248195CE2180133D170102B42
:10850000F9D100232F4C3048195CE2180133D170A7
:10851000102BF9D100232D4C2D48195CE2180133A2
:10852000D170102BF9D100232A4C2B48195CE2188A
:108530000133D170102BF9D10023284C2848195C45
:10854000E2180133D170102BF9D10023254C2648B5
:10855000195CE2180133D170102BF9D10023234CA0
:108560002348195CE2180133D170102BF9D1002394
:10857000204C2148195CE2180133D170102BF9D13D
:10858000002010BD1E320020F8260020EC0B002039
:108590001F320020C9090020AC0B0020DC0900209C
:1085A000BC0B0020EF090020CC0B00203809002074
:1085B0005C0B0020250900204C0B0020E208002065
:1085C0001C0B0020F50800202C0B002008090020BF
:1085D0003C0B00206D0900207C0B0020800900204E
:1085E0008C0B0020930900209C0B002050090020D8
:1085F0006C0B0020020A0020DC0B00200B4A030059
:10860000128810B5824201D8013A90B2084A094C4A
:108610001168A04204D00201525A9A4201D2054880
:1086200010BD9A42FCD0013880B2F2E7F826002053
:1086300000010020FFFF000010B50400082028F012
:10864000CDFA011E0AD00A2344600360044828F0D2
:1086500096FA044B0121186802F0A2FE10BDC04634
:10866000A80E0020A00E002070B50500102028F0F4
:10867000B5FA041E11D0022303602B780A2203717D
:10868000A91C063007F070FD2100044828F077FA95
:10869000034B0121186802F083FE70BDA80E002074
:1086A000A00E002070B50125064C2378002B02D1C6
:1086B00000F08AFC257004F03BFC034B1B78002B78
:1086C000F2D170BD36320020FFA203000B7870B5E6
:1086D00006000D002C20092B1BD14A682733516856
:1086E000002903D01378107C1B18303391681620B2
:1086F0004C1EA141494208401B18D068D269411E56
:108700008841511E8A410001C31806205242104080
:10871000C01828F063FA041E4ED0012306710360CE
:108720002B78092B49D16E6803721030E0606968BC
:108730002500202228F0EEFA73683035002B13D084
:10874000E36832785D601A702800716828F0E2FAF8
:108750003378327CED18E36828005D611A74716922
:1087600028F0D8FA337CED18B368002B11D0E368F9
:1087700028009D601022B16828F0CCFA2800B27E53
:10878000E36810309A76D8610622F16928F0C2FABF
:108790001635F368002B06D010222800E368DD6050
:1087A000F16828F0B7FA2100064828F0E8F9064BEE
:1087B0000121186802F0F4FD70BD24222900083060
:1087C000EFE7C046A80E0020A00E0020FD220B7887
:1087D00070B5023B06000D001420134201D1C88879
:1087E000143028F0FBF9041E1CD004230C22036073
:1087F00006712900083028F08DFAFD22237A023B09
:10880000134206D1200014302061EA88A96828F0BC
:1088100081FA2100044828F0B2F9044B01211868BC
:1088200002F0BEFD70BDC046A80E0020A00E0020C4
:1088300070B50500282028F0D1F9041E0ED00023C1
:10884000242208C0290028F065FA2100044828F0F5
:1088500096F9044B0121186802F0A2FD70BDC046D4
:10886000A80E0020A00E00200023F0B585B00393D1
:1088700003AB009301234F4E5B4200224E49306808
:1088800002F0A8FD4D4D2B68002B15D0280028F0D4
:1088900080F9041E10D000680A280AD807F00AFDE3
:1088A00006453C434E505A6466707200201D00F02D
:1088B000E5FB200028F098F9414C2378002B03D1E8
:1088C00000F082FB01232370002004F071FE3D4F75
:1088D0003B68002B0CD0380028F05BF9041E07D051
:1088E0000368002B01D040689847200028F07CF9ED
:1088F0002A68531E9A413B68591E8B415B00134303
:10890000039303D00221306802F04AFD2E4B1B78FE
:10891000002BADD105B0F0BD2C4B1B68002BC8D08F
:10892000201D9847C5E72A4BF7E72A4B1B68002B09
:10893000BFD02100207908319847BAE7264BF5E7E8
:10894000264B1F68002FB4D02389A2796179207942
:10895000B847AEE7224B1F68002FAAD06389218950
:10896000207B6268B847A4E71E4BF4E71E4B1F68E4
:10897000002F9ED022002389E18820790A32F1E776
:108980001A4BCAE76768380028F090F8002803D12E
:10899000380002F0E7F98CE7380021F02DFA0028C2
:1089A00000D186E7002312491A00180028F0A1F828
:1089B0007FE7C046A00E0020FFFFFF00A80E0020AA
:1089C00036320020940E0020FFA20300B40E0020D7
:1089D000D40E0020B80E0020C80E0020C40E0020C7
:1089E000C00E0020BC0E0020D00E0020CC0E0020B7
:1089F000F99D020070B5294B04001D78002D49D166
:108A000001221A7004F0C2FA01F0D6FE02F09CF9BD
:108A1000234802F0A1F902F0E1FA280002F032FB4B
:108A200028F08CFE28F086FE04F068FD280004F093
:108A3000BFFD04F055F91B4D1B4B1C4A29681A60F9
:108A400000290AD11A4802F0CFFB2860002804D17F
:108A500003000200010028F04CF827F0C2FD0120BD
:108A600002F086FC134B1860002806D100231A0080
:108A70001900180028F03DF870BD00210E4828F0BC
:108A8000C4F80E48002128F0C0F80D4800F0F6F9AF
:108A90000028EBD12000FFF7E7FEEDE7353200209C
:108AA00039860000A40E0020242200208D0503003A
:108AB00004070020A00E0020A80E0020940E002025
:108AC0003188000010B5044B1860044B044819604D
:108AD000044920F0DDFF10BDB40E0020B80E0020C8
:108AE00069860000CD86000010B5034B186003486E
:108AF0002FF056FA10BDC046C80E0020CD870000EA
:108B000010B500281ED1104804F07EF90F4804F07B
:108B10007BF90F4804F078F90E4804F075F90E4C13
:108B2000200004F071F9201D04F06EF920000830D7
:108B300004F06AF920000C3004F066F920001030CF
:108B400004F062F910BDC046900E0020880E00208F
:108B50008C0E0020840E0020700E0020F0B587B02F
:108B600002930EAB1B78071E00910192039311D163
:108B7000254A9B00D3180593781E032803D807F0D5
:108B800099FB0B121920009B002B2ED10137FFB24D
:108B9000052FF1D107B0F0BD019B002BF6D00826C0
:108BA000019D1A4C24E0029B002BEFD03826029D39
:108BB000174C1DE00C9B002BE8D03C260C9D154C5F
:108BC00016E00D9B002BE1D0039B042BDED804267E
:108BD0000D9D059C0CE029002068320028F09AF8D1
:108BE0002000049904F07CF9D0E72026009D0A4C6F
:108BF000200004F08DF804900028ECD00021200023
:108C0000256004F0ADF9C1E7700E0020880E002049
:108C10008C0E0020840E0020900E0020F7B51E0060
:108C20000AAB040015001F780091002811D11C4ADE
:108C3000BB00D3180193601E032803D807F03AFB4A
:108C40000A10161D009B002B20D10134E4B2052C24
:108C5000F1D1F7BD002DF8D028000822114B18E003
:108C6000002EF2D0300038220F4B12E0089B002B70
:108C7000EBD03C2208980D4B0BE0099B002BE4D075
:108C8000042FE2D804220998019B02E020220098D8
:108C9000074B19680029D8D028F03CF8D5E7C04622
:108CA000700E0020880E00208C0E0020840E002004
:108CB000900E0020074B10B51A68930608D5064B96
:108CC0001205D2171A40054BFB21D21821F02AF8C1
:108CD00010BDC046D80E0020483A000048080000E9
:108CE000F0B505788FB0012D50D00B2D4AD0002D56
:108CF00046D142683B4B29001A6003A80C2202951A
:108D000007F084FA6B4602ACDF1D39002000DD71EC
:108D100006F052FA3978002932D04A1EA35C06AD1B
:108D20000133A35420002A0027F0ADFE2E4E290067
:108D30003278706827F0EEFF397820004A1EA35C75
:108D40000133A3542A0027F09EFE10222900F06868
:108D500027F0E0FF397820004A1EA35C0133A354BA
:108D60002A0027F090FE2B78022229001F48338327
:108D700027F0D0FF1A21327C7069694427F0CAFFBE
:108D80000FB0F0BD011D06221948F7E7D3228388F2
:108D9000520093420AD019D8082B0ED8062BEFD9CF
:108DA00000231A001900180027F0A3FE00231A0060
:108DB0001900180027F09DFE0CE00A2BE0D10023DB
:108DC0001A001900180027F094FED9E78122D2007A
:108DD0009342D5D100231A001900180027F089FE0C
:108DE000EDE7C046D80E00206C0700208407002065
:108DF0003732002007B520F05BFF074B1A6890233D
:108E00001B011A4207D0002103230A00012001910F
:108E1000009320F0ABFF07BDD80E002070B5124DB7
:108E20002C68002C01D0012070BD012002F0A0FAB6
:108E30000E4B18600028F6D021000D4827F0E5FE03
:108E400021000C4827F0E1FE21000B4802F0CCF98C
:108E5000030028602000002BE6D12300220021001F
:108E600027F047FEDFE7C046F80E0020F40E002092
:108E7000DC0E0020E80E00202407002070B504005E
:108E800007F086F8050001F09FF8134BEDB218804B
:108E90000820002D04D106F0CBFF002801D00720C8
:108EA00070BD0E4B18700E4B18700E480BF0E8F9A1
:108EB0000028F4D128F075FC06F09CFF0300052083
:108EC000002BEDD0FFF7AAFF0028E8D120000649CB
:108ED0002FF05BFAE4E7C046A00800202033002012
:108EE0002133002009710200B119030010B50E4BA7
:108EF0000E485B78002B04D0012B0BD020F036FD00
:108F000010BD202283730280094B10324280123A36
:108F10001A60F3E7C823DB00962203804380002316
:108F200052008373024BF3E741320020A208002075
:108F3000040F002010B5024806F064FD10BDC046C5
:108F4000DC070020002310B50248837006F00EFFF6
:108F500010BDC0468C07002010B520F0C7FD044BA3
:108F60005A78002A01D101325A70FFF7BFFF10BDB5
:108F700041320020037807B5002B02D0012B14D01A
:108F800007BD0D4A1378594259411170002BF7D192
:108F90000A4A1168FA2292004A4309490878009364
:108FA0001821084B27F0B6FBEAE700231A00190046
:108FB000180027F09EFDE3E741320020040F002057
:108FC00043320020598F000010B5054B1B78FF2B52
:108FD00004D10022034B5A70FFF788FF10BDC04632
:108FE0009B0C00204132002037B50D00040027F013
:108FF000CEFA2D78002D02D00D2D21D037BD164B85
:1090000021001C70154B16481D7028F0A1FB200094
:1090100006F04CFB134B187801F014FC124B122194
:109020001878124A124B009527F074FBFA22114B64
:10903000122118789200104B009527F06BFBDDE7AA
:109040002100074828F08DFB06F036FBFF22024B7B
:109050001A70FFF7B9FFD1E79B0C002041320020C6
:109060008C070020433200204432002010270000EB
:10907000458F000045320020358F000010B50400F8
:10908000FFF72EFE2078042824D807F013F90323D5
:109090002E242900FFF7AEFE1748FFF725FD002319
:1090A000164A17481370837028F064FB154806F0C1
:1090B00021FD154806F00CFD01F09CFB134B1870C8
:1090C00001F098FB01F096FB114B187001F092FB38
:1090D000104B187010BD1049104820F069FCF9E7DA
:1090E0000F491048FFF7EEFCF4E700231A001900BF
:1090F000180027F0FEFCEDE7BF0503004132002019
:109100008C07002098070020DC0700204332002055
:109110004432002045320020FC0E0020640700206D
:10912000E98F0000758F000004207146084202D0CC
:10913000EFF3098001E0EFF3088081690A88044BAE
:109140009A4200D0FEE70231816120210160704720
:10915000ABBE0000F0B585B00290002802D104201B
:1091600005B0F0BD029A029B5268FE4950681B6828
:10917000019248601868FC49019A88639468FB482A
:10918000019A0460D468FA48019A04601469F948A5
:10919000019A04605469F848019A04609469F74898
:1091A000019A0460D469F648019A0460146AF5488B
:1091B000019A0460546AF448F4490460019AF4483E
:1091C000946A019A0460D46AF248019A0460146BAC
:1091D000F148019A0460546BF048019A0460946B62
:1091E000EF48019A0460D46BEE48019A0460146C55
:1091F000ED48019A0460546CEC48019A0460946C48
:10920000EB48019A0460D46CEA48019A0460146D3A
:109210004460019A546D019A8460946D019AC4600F
:10922000D46D019A0461146E019A4461546EE24A4D
:109230008461586810609C68E04804600198DC68AC
:10924000806E204348620198C06E886201981C6954
:10925000006F2043C8620198406F08635869C86373
:10926000986988630198806F08600198C06F4860B2
:1092700001980430C06F886001980830C06FC860E2
:109280000198883000680861D869486301988C307B
:109290000468CB48046001989030006848640198E5
:1092A000943000688864019898300068C864019818
:1092B0009C30006808650198A03000684865186A0D
:1092C000C0490860586AC04908600199986AA43189
:1092D00009680143BD480160D86ABD490860186B40
:1092E0004860586B886101989C6BA83000682043E7
:1092F000C860D86B086101981C6CAC3000682043D2
:109300004861586CC86101989C6CB030006820437B
:109310000862D86C48620199186DB431096801433C
:10932000AC480160586DAC490865986DC8640198F7
:10933000DC6DB830006820438860186E08610198C1
:109340005C6EBC30006820430866986E1C00886420
:10935000D86E88340860186FC861586FC862986FFB
:10936000019D8861D86FCC350863181DC06F4863B4
:1093700018000830C06F486001982468C030006849
:1093800020430862190001988C31C43000680968D4
:10939000924C01438120616001998000C8310968C5
:1093A0002150190028681D00903109689435014347
:1093B000A16001992868D0310968043501438220F1
:1093C0008000215001992868D4310968043501438F
:1093D000E1600199D8310968286883250143AD000F
:1093E00061511900019EA031DC36306809683C3DAE
:1093F000014321611900A431080001990068E0319E
:1094000009680143764801601900A8310868754968
:10941000C8671900AC3108687349C8671900B031D2
:109420000868724908601900B4310868704908601A
:109430001900B83108686F4908601900BC31086824
:109440006D4908601900C03108686C49086019004E
:10945000C4310968C82061511900C8310968400049
:10946000E1671900CC3109683C3D61671900D031D2
:109470000968A1671900D4310968019E21661900A5
:10948000D8310968E836E1651900DC3109682150F6
:109490001900E03109685A4861511900E43109683E
:1094A00001611900E831096841661900EC31096869
:1094B00061630199E4310968C1671900F0310968F5
:1094C00081661900F431096821641900F8313568A2
:1094D0000968019E294361621900EC36FC31356848
:1094E0000E683543019EA562F03635686564019EBD
:1094F000019FF43635688426B600A5514E68FC37C6
:1095000046618E688661CE68C6630E69C6614E6923
:1095100006628E694662CE6986620E6AC6624E6ACD
:1095200006638E6A4663CE6A8663019EF8363568A6
:109530000E6B3543EA267600A5513D0085272E683F
:10954000BF00E6514E6B66668E6BA666CE6BE66616
:109550000E6C26674E6C26658E6C6665CE6CA665B5
:109560000E6D4FE00060084000620840B878084087
:10957000BC780840C0780840C4780840C8780840E3
:10958000CC780840D0780840D4780840007808406B
:10959000D8780840DC780840E0780840E478084053
:1095A000E8780840EC780840F0780840F478084003
:1095B000F8780840FC780840AC780840B07808405B
:1095C0008C78084098780840A8780840947808403B
:1095D000007508408072084000760840007008401E
:1095E0009C7008400470084008700840887008406B
:1095F0008C70084090700840947008409870084043
:10960000FC700840A6614E6DE661D0266F6876005A
:10961000A7518827AE68BF00E651EE687C3FE6514F
:10962000E4262F697600A7516F698036A751AF698C
:109630007C3EA751EF698036A75189272E6ABF006B
:10964000E651D4266F6A7600A751AF6A8036A751DB
:10965000D627EE6A7F00E6518B262F6BB600A75106
:109660006F6B7C3EA751AF6B8036A751DA27EE6B4C
:109670007F00E6518D262F6CB600A7516F6C7C3EA3
:10968000A751AF6C8036A751EF6C7C3EA7518F2756
:109690002E6DBF00E6516E6D7C3FE6519026AA6D9F
:1096A000B600A251EA6D7C3EA2512A6E8036A251CC
:1096B0006A6E8E6D164326608026AA6EB600A25191
:1096C000EA6E5036C2642A6FA2516A6F0436026590
:1096D000AA6FA251ED6FBE2245659625019E5200EC
:1096E0009446B258AD00019E6251D83D7259019E18
:1096F000826504357259019ED8356251D43D725944
:10970000019DC265C62040002A589825AD006251CF
:10971000019D04302A58CA25019E4C3022506D000C
:1097200072594C356251CA6DF14DF24E2A600A6E83
:109730006A604A6EAA628A6EEA62CA6E72620A6FD2
:10974000B2624A6F6A628A6F2A636246C96F69634E
:109750009958A963C02149005A580431EA635A58FC
:1097600004312A645A5804316A645A580431AA648C
:109770005A580431EA645A5804312A655A58043157
:109780006A655A580431AA655A580431EA655A582C
:1097900004312A665A5804316A665A580431AA6656
:1097A0005A580431EA665A5804312A675A58043123
:1097B0006A675A58D049AA67DA590437EA67DA590A
:1097C0000437CA67DA59CD490437CA67DA59CC4930
:1097D00004370A60DA59CB4954370A60EA21490054
:1097E0005A58C9490A60EC2149005A58C7490A60C9
:1097F0001858C7490860F02149005858C549086001
:10980000F22149005858C4490860F42149005858C9
:10981000C2490860F62149005858C1490860F8213A
:1098200049005858BF490860FA2149005858BE49B4
:109830000860FC2040001A58BC4904300A601A58DD
:10984000BB490A60802189005858BA4908608120C4
:1098500080001858B8490860822080001A58B7481C
:10986000B749026083208000185808608420800077
:109870001858B4490860852080001858B24908601B
:10988000862189005858B1490860872189005858B5
:10989000AF490860882080001858AE490860D85940
:1098A000AD4904370860D859AC4904370860D85925
:1098B000AB4904370860D859AA4904370860D85919
:1098C000A94904370860D859A8490437086092208C
:1098D000D95904373160D95904377160D95980009A
:1098E000B16019580430F1601958043031611958C9
:1098F0000430716119580430B1611A580430F261B2
:109900001958019F2962C43899493A58019FCA657C
:1099100004303A58019F4A6504303A5898278A65BE
:10992000BF00D859019A48609920BC3F8000D259A5
:109930001858019F104388609A2080001858C8600A
:10994000D42040003A58D62701980A617F00C059B8
:109950008861D820019F40003A58DA270198CA61EF
:109960007F00C059019F0862DC2040003A58DE2782
:109970004A62019A7F00B430D25918580437104314
:1099800048619C20019A8000D259185803921043D4
:1099900088629D20800018580437C8629E2080008D
:1099A000185808639F20800018584863A020800042
:1099B00018588863A12080001858C863A22080002E
:1099C00018580864A32080001B580198C2591343FB
:1099D0000B6000F0F9FA0C2800D0D7E06549664A20
:1099E0000B680B3813400B600A68644B13430B6021
:1099F000029B1B68002B75D01A00C024FC32176E26
:109A00005F48640039186960976F39182963D26F0D
:109A1000010012186A631A5904341218EA631A59B9
:109A2000043412182A641A59043412186A641A5930
:109A3000DE271218C820AA6440001A5810305218A5
:109A4000EA64CA2252009A587F0052182A65CC2232
:109A500052009A583C3452186A65CE2252009A58E5
:109A60005218AA651A5808305218EA651A58083070
:109A700052186A661A5808305218EA661A58503056
:109A800052186A67DA5904375218AA67DA59043744
:109A90005218EA67DA59184D5218EA671A59174CE2
:109AA0005218E2670C37DA59164C52182260EA2233
:109AB00052009A58144C52182260FC2252009A58B4
:109AC0001A4C52182260FE2252009A58184C521812
:109AD00022601A58194C5218226050301B5800202E
:109AE0005B18F361274B284A1A80FFF739FBC04601
:109AF000807308407C740840847308408873084071
:109B0000087408400C74084010740840147408402D
:109B10001C740840207408402474084028740840CD
:109B20002C7408403074084034740840387408407D
:109B30003C7408404074084044740840487408402D
:109B40004C740840507408405474084058740840DD
:109B50005C7408406074084064740840687408408D
:109B60006C7408407074084074740840787408403D
:109B700000770840AC780840C0C0FFFF101000001C
:109B800024240000B20800201823000000F01CFA72
:109B9000062801D0FFF7E3FA0323084900200A68EA
:109BA0009A430A600A681343C6220B60044B5200B2
:109BB000A350044B044A1A80FFF7D2FAAC7808404D
:109BC00080366A5AB2080020186900000300042099
:109BD000002B36D01B4A5968002011609968D1606B
:109BE000D9681161196951615969916499699161E3
:109BF000D969D161196A1166596AD164996A516546
:109C0000D96AD162196B5163596B1165996B916572
:109C1000D96BD165196C5164596C9166996CD16698
:109C2000D96C5166196D1163596DD163996D1162CB
:109C3000D96D5162196E9162596E11649A6E024B20
:109C40001A60704700620840B0780840F0B53C4B9D
:109C50003C4C85B0E3633C49060006F03FFBE56DF4
:109C60002D0B2D03284380252D020543E56530008B
:109C700009F0FAFA0022354B08F0BCF80090019187
:109C800006F0F6F906F078FD060009F0EDFA02009C
:109C90000B000098019908F01FFF2D4B002206F0E1
:109CA000BDFC431E98412B4D36182E60300009F044
:109CB000DBFA0022284B0290039108F0A1FC02007D
:109CC0000B0007F02DFD254A254B08F093F8029A6A
:109CD000039B06000F000098019908F0FDFE00228A
:109CE0001D4B08F08DFC02000B0007F019FD1B4A0C
:109CF0001B4B08F07FF832003B0007F011FD3200EB
:109D00003B0008F0E9FE06F05DF92B68FE251B0418
:109D1000ED03626B2B40134D2A4013438022120641
:109D20001343636309F06AFA4021A06300200E4BDD
:109D30009A6A0A439A629A6A8A439A6205B0F0BDA7
:109D4000FFFFFF070076084040420F0080848E41ED
:109D50000000E03F080F002080847E410090D00387
:109D60008084DE3FFFFF80FF8073084010B500F065
:109D70007DFC98230349044A1B06885803438B50F3
:109D800010BDC046007004403810000042B203000D
:109D90000120002A07DB044A0449106B1B04084019
:109DA0000343002013637047FC900540FFFF00FF52
:109DB00003000120002B1CD00E4A002011691960FD
:109DC0005169596091699960D169D960116A1961C5
:109DD000516A5961916A9961D16AD961116B1962AD
:109DE000516B5962916B9962D26BDA62024AD26A04
:109DF0001A637047FC700840007008400A4B0B491A
:109E00005A6B520052085A639A680A409A60DA6D97
:109E100007490A404021DA65064B9A6A0A439A626A
:109E20009A6A8A439A627047007608400000FFF001
:109E3000FF7FFFFF80730840030010B5FF2803D1A8
:109E4000FFF7DCFF002010BD42B20120002AFADB40
:109E5000044A054990680840184390231B0518439D
:109E60009060EFE7007608400000FFF00823024A08
:109E700011680B4313607047807308400821024A41
:109E800013688B431360704780730840FF22054BB3
:109E900005485B681B0C1340416811409942FBD197
:109EA0007047C0468073084080720840F8B51B4D6B
:109EB000070001246E6A00282DD0194A6B6A1948E0
:109EC00013406B62FFF7C2FEFFF7D0FFFFF7DEFF24
:109ED00000F0F2F8002804D100F0EEF80234002877
:109EE00000D00024002000F0C1FAFFF7C7FF002CCB
:109EF00003D10D48FFF7AAFE0400FFF77FFF002CF7
:109F000003D13800FFF754FF040080226B6A12026D
:109F100016401E436E622000F8BDC0460070084027
:109F2000FF7FFFFF4036288E809C2B8F030001208F
:109F300030B50D0014008FB0824214D8180026F0FE
:109F400051FB0A4B0A4A5B685B005B0F13700028E9
:109F500009D1280026F04FFB012C04D1002802D1A2
:109F600001A8FFF7A3FF0FB030BDC0460075084041
:109F70004A32002070B505000C00FFF7F7FE012201
:109F800021002800FFF7D2FF00280BD12B685A6868
:109F9000054B117819705178597092789A7022682F
:109FA0001278DA7070BDC0464632002004380828A6
:109FB00003D8034B185680B270470248FCE7C046EE
:109FC000B9A20300FFFF000010B5034B1869000E93
:109FD000FFF7ECFF10BDC04600900540F0B500252E
:109FE00085B00190029103920026FFF74FFF2F1CCE
:109FF000039B9E4216D1300007F056FB011C041C47
:10A00000381C06F03FFE07F0E9FA019B211C18807E
:10A01000281C06F037FE07F0E1FA029B18800120A9
:10A0200005B0F0BD164B8022DC6B802320051B01A0
:10A030001201000D2340144201D0F0231B021843EB
:10A0400000B207F0EBFA011C381C06F07FFC8023FD
:10A050008022240C071C1B0120051201000D234047
:10A06000144201D0F0231B02184300B207F0D6FAC5
:10A07000011C281C06F06AFC0136051CB6B2B7E7C5
:10A0800000700840094B0A499A6A0A409A62802285
:10A09000996A52030A439A628022996A92030A4398
:10A0A0009A629A6A03490A409A6270477C7408402F
:10A0B000FFFFDFFFFFFFCFFF0021F0B5D64D97B0C8
:10A0C0000AAB9E1C19806B6AD44A0593AB6A318037
:10A0D00006932B680F000793AB6808936B6B09938B
:10A0E0002B6813402B60C02320229B03AB606B6A5C
:10A0F00093431A001E2313436B62C94BEB6229631F
:10A10000FFF7C0FFEB6A310040220AA80093FFF777
:10A1100065FF0AABC34C1B882770638033882773A5
:10A12000E381009BFF373B400393009B3F221B0AC8
:10A130003B40FF270493009B3F043B400193009B5F
:10A1400001991F0E3B06FC270293039BBF01103BA6
:10A1500013400B4302990AA80B43049910390A02D1
:10A160003A40134331004022EB62FFF737FFF02300
:10A170003F22237123740AAB1B883100E3803388AC
:10A180000AA86382039B10331340019A1343029A77
:10A190001343049A1032120217401F434022EF6209
:10A1A000FFF71CFF1023237223750AAB1B88201DA9
:10A1B00063813388E382009BEB620223E65E310019
:10A1C00026F022FA009020000E23E75E10303900BE
:10A1D00026F01AFA019020003100083026F014FA17
:10A1E000061C20003900143026F00EFA311C041C25
:10A1F000009806F0ABFB019906F0A8FB211C06F0C5
:10A20000A5FBFA21890506F007FF8221C905041C78
:10A2100006F002FF05F062FF06F096FA0300FB3B32
:10A22000029000950020352B00D9B0E08E20211C33
:10A23000C00506F027FD05F051FF06F085FA03275B
:10A240000BAB03900193381F09280DD8764DFC35D0
:10A2500006F03AF8AE00B800BF00C600CD00D4004A
:10A26000DB00F600FD000401029807F01DFAFE264F
:10A27000041C6E48B605011C301C06F003FD011CD1
:10A28000201C06F0C9FE8221C905041C06F0C4FE8C
:10A2900005F024FF06F058FA019B211C18808E203F
:10A2A000C00506F0EFFC05F019FF06F04DFA019B22
:10A2B00001375880FFB2043301930E2FC3D10A2116
:10A2C000029B5B4D1804039B0BACDB04DB0C1843B7
:10A2D0002688286160884E4306F000F8554F360402
:10A2E0003E4080B206436E61A388E2881B04D2041C
:10A2F0003B40D20C1343AB61238962891B04D20417
:10A300003B40D20C1343EB61A389E2891B04D204C6
:10A310003B40D20C13432B62238A628A1B04D20473
:10A320003B40D20C13436B62A38AE28A1B04D20423
:10A330003B40D20C1343AB62238B01201B041F4014
:10A34000638B3D49DB04DB0C1F43EF62A28BE38B85
:10A350001204DB040A40DB0C1A432A63238C628C50
:10A360001B04D2040B40D20C13436B63A28CE38C0E
:10A3700032491204DB04DB0C0A401A43AA63238D22
:10A38000628D1B04D2040B40D20C1343EB63009B81
:10A39000059A5A62009B069A9A62009B079A1A6075
:10A3A000009B099A5A63009B089A9A6017B0F0BD07
:10A3B000AB68180C07F078F9061C6868000C07F009
:10A3C00073F958E72B69180C07F06EF9061CA8689A
:10A3D000F4E76B69180C07F067F9061C2869EDE7CC
:10A3E000AB69180C07F060F9061C6869E6E7EB69D1
:10A3F000180C07F059F9061CA869DFE72B6A180C3E
:10A4000007F052F9061CE869D8E76B6A180C07F0E8
:10A410004BF9061C286AD1E700700840FF57FFFF80
:10A4200020208080FA260020A49203006666E64180
:10A43000FC7008400000FF0F0000FF1F0000FF3FFE
:10A44000AB6A180C07F030F9061C686AB6E7EB6ACD
:10A45000180C07F029F9061CA86AAFE7EB68180C7E
:10A4600007F022F9061CE86AA8E7C046F0B58FB0ED
:10A47000684C029008A826F0E2F80BA826F0DFF856
:10A48000636A0393A36A049323680593A3680693FE
:10A49000636B079300230193029B002B0BD05E4A52
:10A4A0000C209368019301995C4B0B409360FFF77C
:10A4B000C3FCFFF7DBFCC0262368594AB6031340F0
:10A4C00020222360A660636A0BA993431A001E230F
:10A4D00013433F22636208AB5B79F027134008AA5D
:10A4E00012790B25120413430A793F0312061A430B
:10A4F0004B79FC211B0289010B401343E362013DB0
:10A50000EDB22B043B4033434022A3600BA908A8C3
:10A51000FFF764FD08AB00229B5E424A002B50DD32
:10A520009342ECDC0BAB00215B5E002B4EDD9342D3
:10A53000E5DCFC2600253F27B601290008A826F007
:10A54000D5F829000BA826F0D1F808AB1B7A002B10
:10A5500042D008AB1B7D002B3ED008AB5B7A002BB2
:10A560003AD008AB5B7D002B36D03F2208AB5B793D
:10A570000BA9134008AA1279120413430A79120690
:10A580001A434B79FC211B0289010B401343E36200
:10A59000029B002B07D0FFF771FCFF20FFF74CFC5C
:10A5A0001D4B019A9A60039B6362049BA362059B07
:10A5B0002360079B6363069BA360FFF763FD0FB0F7
:10A5C000F0BD5B429BB2934299D8ABE75B429BB232
:10A5D000934200D993E7ACE708AB1B880BA908AA04
:10A5E00053800B8801354B80537912793B4012041C
:10A5F00013430A7908A8120613434A79EDB21202EE
:10A6000032401343E3624022FFF7E8FC0F2D00D0F5
:10A6100093E7AAE70070084000760840FFFFF8FFC4
:10A62000FF57FFFF6C07000010210E4B10B55A6951
:10A630005C680D480C420DD05C6892B221435960B1
:10A6400001230375C368002B03D0017D0069C9B2E3
:10A65000984710BD0E215A685C6892B22143596038
:10A66000F0E7C04600B005400C0F0020F022054B7B
:10A67000120119680A431A608022520419681142B3
:10A68000FCD070470090054070B5194C0500194981
:10A69000200004F001FB182322689A4322602268FC
:10A6A000110019401A42FAD1134B1148A36010222D
:10A6B000012304F045FB02210D48FF3126F0D7FFAE
:10A6C000002D03D02900122026F045FAC4200B4BA0
:10A6D00080001A580A491140802212040A431A5075
:10A6E000C02180224900D2025A501A6070BDC04673
:10A6F00000900340C2A20300FFFF000000E100E061
:10A70000FFFF00FF182204490B6893431A00082337
:10A7100013430B607047C046009003401822044B5F
:10A7200019689143196019681142FCD17047C046FD
:10A7300000900340014B58687047C04600900340AA
:10A7400010B5030010220021014804F0F9FA10BDF1
:10A7500000900340014B1A6D1A657047009003404A
:10A7600010B5FFF7F7FF8021024B4902186800F08F
:10A7700017FE10BD2C0F002010B525F0C5FFFA22E2
:10A780000A4B04001860410F00239200C00005F03E
:10A7900093FFFA22C043064BA10F188092000023BA
:10A7A000A00005F089FF034B188010BD240F002086
:10A7B000122700201427002070B50A4B1C78002CAB
:10A7C0000FD1012508481D70FFF75EFFFFF7D4FF8A
:10A7D000280000F0CDFD054B21001860044800F072
:10A7E00003FD70BD4C32002061A700002C0F00203B
:10A7F000040800200023064A995C002903D180390F
:10A80000D8B2D154704701330B2BF5D1FF20F9E7B3
:10A810004D320020044B185C1F23984320384342DC
:10A820005841C0B27047C0464D320020044B185CFE
:10A830001F239843403843425841C0B27047C04636
:10A840004D32002070B5040001200A2C26D8164D88
:10A850002B5D002B22D026F07AF92B5D1F211A00E8
:10A86000DF208A43203A024215D180220B40134355
:10A870000E490F4A2B55DB0611D51378013B137097
:10A880000C7813781C4306D10A4D2B78002B02D08C
:10A89000FFF744FF2C7026F056F9002070BD0B78AE
:10A8A000013B0B70ECE7C0464D32002058320020CF
:10A8B000593200205A32002010B50400FFF7C2FFC1
:10A8C000002801D1014B185510BDC0464D32002063
:10A8D000F0B58BB009AB0093002601235548320038
:10A8E00055495B420068099600F074FD26F02FF987
:10A8F000FFF720FF83B2049326F025F94F4A04990D
:10A9000013884F4FCB1A9BB206934E4B4E4C1D886B
:10A9100011803B78059326F01AF93B781F211A0025
:10A920008A43402A36D10A000B40013213433B7060
:10A9300026F009F9E268A368002A02D19D4200D9F5
:10A940009DB20136F6B2013720340B2EE1D126F04C
:10A95000FEF8FFF7EFFE049BC01A80B23B4BA84203
:10A9600060D31D884519ADB2394B3A4A1B7812782D
:10A9700013430BD0FFF7D2FE049B5D19A8B2FFF77B
:10A98000DFFEFFF7BFFE0122334B1A7026F0DBF823
:10A990000BB0F0BD202A42D126F0D5F8069B0293D9
:10A9A00000230393E368002B03D1A368029A934228
:10A9B0000DD926F0CCF8A268E36802980399121A20
:10A9C0008B41A260E360FFF7B5FE2083B0E70D2264
:10A9D000059B13400793059B13420CD000220023D4
:10A9E0003000A260E360FFF72DFF2369002BA8D0A1
:10A9F00060699847A5E726F0AAF822686368A26014
:10AA0000E360FFF797FE079AE168A36820838A4214
:10AA100002D19D4200D99DB226F095F8E5E726F0D7
:10AA200092F88EE71B882A1A9A429DDA181885B286
:10AA30009AE7C0462C0F0020FFFFFF0016270020DA
:10AA40004D32002012270020000D00201427002086
:10AA500058320020593200205A32002010B504002C
:10AA600026F075F80F491F220B5D180090438028CF
:10AA700002D026F068F810BD0B48DA0600D40B4867
:10AA80000278013202701F221340213213430B550A
:10AA900026F059F88021064B4902186800F080FC26
:10AAA000E9E7C0464D3200205932002058320020DC
:10AAB0002C0F0020F0B585B0040016000191029320
:10AAC000FFF7C0FE051E31D11B4B3200186829006C
:10AAD0002B0005F011FE07000E000390FFF72AFE81
:10AAE000164B62019B181883002E03D1FA239B009A
:10AAF0009F421ED3FA22002338003100920005F055
:10AB0000DBFD1F260E4A135DB343019E33431355ED
:10AB10000A4B62019B18029A18601A610A9A98609F
:10AB200059602000D9605A61FFF798FF280005B0EE
:10AB3000F0BD01200021E4E7240F0020000D0020DB
:10AB40004D320020F0B5284B00241B78002585B03D
:10AB5000002B42D0254B1F6825F0F9FF244BFC3712
:10AB60001B680193BB693E6A029301231E40BB69C7
:10AB7000039325F0E8FF019B2000991BA64230D0EB
:10AB80002300039A12184B41DD43D44302F0C6FD63
:10AB90007F68184B01375F430600B8421DD00200A2
:10ABA00029002000002305F087FD05000C00380077
:10ABB000002105F0A1FD2A00230001900291380038
:10ABC000002105F099FD320004000D0000230198DA
:10ABD000029905F071FD24184D412000290005B0AF
:10ABE000F0BD3300029ACDE74B3200200008002070
:10ABF000280F002040420F00F0B500274B4B87B0D4
:10AC000002934B4B03934B4B04934B4B059302AB7B
:10AC1000FB584A491A0C5218FF210B40FE39994043
:10AC200012680A4273D004ABFB585A6812030FD45F
:10AC3000802259689203114202D09968114207D1CB
:10AC4000802259681204114261D09B6813425ED081
:10AC50003B4BFD583B4B2800FC5803F0F1FC0190A6
:10AC6000280026F078FB8021C90206000023084254
:10AC700003D0280003F0F4FC0123802189020E4256
:10AC800003D0280003F0ECFC0123802149020E428E
:10AC900003D0280003F0E4FC0123B20217D5EA68D0
:10ACA000002B14D1E369002B02D0E369013BE3617F
:10ACB0006369002B03D01A70636901336361E36930
:10ACC000002B04D16368002B01D02000984780211D
:10ACD00009040E420DD0019B0B420AD0A369002B40
:10ACE0001BD0A369013BA36123695A1C22611B7815
:10ACF000EB60802109030E4202D0280003F0B0FC73
:10AD00008021C9050E4202D0280003F0A9FC0437B7
:10AD1000082F00D07BE707B0F0BD280003F078FCD7
:10AD20002368002BE5D020009847E2E71400381094
:10AD300015003810004005400050054000700440E8
:10AD400004970300300F002010B5024803F0D8FE2E
:10AD500010BDC04600800540014B18607047C046DA
:10AD6000380F0020034B10B51B68002B00D098470C
:10AD700010BDC046380F0020102307B50091019385
:10AD80000100024803F0C6FE07BDC0460080054032
:10AD9000F0B5002791B006000C0015001C491022E8
:10ADA000684605F0E1F90C2239000DA80C9705F072
:10ADB0002DFA3A0008A83A540137102FFBD104AFFE
:10ADC0003A003100FFF7D8FF3B787F2B0CD82100E9
:10ADD000380025F0ABFC23787F2B0FD8290020000A
:10ADE00025F0A4FC11B0F0BD38000CA925F09EFCA4
:10ADF000220069460CA825F0B7FCECE720000CA95E
:10AE000025F094FC2A0069460CA825F0ADFCE9E782
:10AE1000D5A20300F0B589B013AE377810260EAD79
:10AE200010CDB446149E2D780797F60712D5129EC2
:10AE30000393069666460596109E0B00029201004B
:10AE4000119A0D4804960195009403F0D3FEC0B208
:10AE500009B0F0BD129E0393069666460596109EB5
:10AE60000B0002920100119A049601950094024889
:10AE700003F07CFEEBE7C04600800540F8B50C4BC4
:10AE800006000F0072460021186802F0C5F8012480
:10AE9000051E0AD002003900300008F069FF041EC8
:10AEA00000D00224280002F0EBF82000F8BDC046D4
:10AEB0008C990300104B10B51B680400002B06D1C1
:10AEC00021006030FFF7DAFF0300180010BD0B4BC4
:10AED00072461868002102F09FF801230028F4D080
:10AEE0002300A0331860200008F05CFF0223002834
:10AEF000EBD1DB18E9E7C046380F00208C9903003E
:10AF0000F7B5104B01900E0017000021724618682B
:10AF100002F082F80124051E0DD003003A00310032
:10AF2000019808F058FF0400052806D0002806D133
:10AF3000280002F0A5F82000FEBD0324F8E7022453
:10AF4000F6E7C0468C990300124B10B51B6804004D
:10AF5000002B06D10200010060322031FFF7D0FF44
:10AF600010BD0D4B72461868002102F055F8030021
:10AF70000120002BF4D02200A0321360200008F042
:10AF800054FF03000320052BEAD00138002BE7D142
:10AF90000230E5E7380F00208C990300074B196851
:10AFA000074B1A78490504D5002A01D000221A70EF
:10AFB0007047002AFCD10132F9E7C04600900240F8
:10AFC0005C3200200721044A10B513688B431360DC
:10AFD000FFF7E4FF10BDC046B490024070B50024F6
:10AFE000214D96B02B780094A3423AD101A803F0EA
:10AFF000C7FE80235B001593F0231B0314936B465D
:10B000009C7196236A46DB000D201849138125F0B8
:10B01000A2FD01A9164803F0F1FE04226946144876
:10B0200026F03EFBC4B2FFF7B9FF0723C326114940
:10B03000B6000A6810489A430A60104A91590840BD
:10B0400080210902014391518021890111600C4A3C
:10B0500011680B431360009B581C08F03DFF01234F
:10B060002B70200016B070BD5B320020C5AF000011
:10B0700000900240B4900240FF00FFFF00E100E0BA
:10B08000B890024010B5002488B01C22210001A80D
:10B09000009405F0BBF80122074B1A60200004342D
:10B0A000684425F01AFD202CF8D122006946034897
:10B0B00025F030FE08B010BD240800203C0F002011
:10B0C000F0B58BB006000D0017000021202202A869
:10B0D00005F09CF8214A002F01D00123136013686A
:10B0E0001F498B4238D001331E4C1360002F27D0EC
:10B0F0000023F95CE25C521802A9CA540133202BE8
:10B10000F7D102AA2021100025F0BDFC23680133ED
:10B1100023600023216802AA8C46D258043301928E
:10B12000624404C4202BF5D1ADB2281C202D00D9D7
:10B13000181C002380B2984209D800B20BB0F0BDB1
:10B14000E35D02AAD3550137202FF9D1D9E702AA2E
:10B15000D25CF2540133EEE70348EEE72408002006
:10B16000A08601003C0F0020FFFF0000044A136886
:10B17000002B04D0013B1360002B00D162B6704756
:10B180005C0F002072B6024A1368013313607047E7
:10B190005C0F0020014B18687047C046640F002008
:10B1A000094B00211A000832D167084A1A67084A79
:10B1B000DA65084A9A64084A5A63084A1A62084AD1
:10B1C000DA60084A136070476C0F0020E40F00201B
:10B1D000D00F0020BC0F0020A80F0020940F0020EB
:10B1E000800F0020680F00201B4A0300106830B554
:10B1F000002813D0C46814601A68184C0260012239
:10B2000002715A680023C3600361236892B2C2804E
:10B210008160002B03D12060C060006130BDDD88FB
:10B220001969954206D301611A69C3602060D06034
:10B230001861F3E7CC88944205D8C36001611A69AC
:10B24000D0601861EAE7DB68D9889142FBD31A69BC
:10B25000C3600261F3E7C046680F0020D4100020ED
:10B260000122FA2110B5094C890023689343236019
:10B27000074B186805F032F8002301386060A360BE
:10B28000226807331343236010BDC04610E000E07E
:10B2900058080020014B18687047C046600F002016
:10B2A00010B5FFF76FFF074825F025FC0400FFF7F6
:10B2B0005DFF002C04D000236371A3602371E36061
:10B2C000200010BD1897030070B504000E000100A7
:10B2D0001C4825F023FC012500280AD06379DDB243
:10B2E000002B08D1FFF74EFF012363712571FFF793
:10B2F0003DFF280070BD0225002EFAD02379002BD7
:10B3000012D0FFF7C7FF0100A068E56825F019FC1F
:10B31000854201D30325ECE7FFF734FF00232371B7
:10B32000FFF724FF0225E4E7731CF3D0FFF72AFFA1
:10B3300001232371FFF71AFFFFF7ACFFE660A0605F
:10B34000E8E7C0461897030070B5010005000748FC
:10B3500025F0E4FB0124A04205D10024FFF712FFF1
:10B360006C71FFF703FF200070BDC0461897030003
:10B3700070B50500FFF706FF084825F0BCFB040088
:10B38000FFF7F4FE002C06D0002325752371A3607F
:10B390002361E360A361200070BDC0460C970300E9
:10B3A00070B504000E000100094825F0B7FB050048
:10B3B000012085420BD1FFF7E5FE2169A3693143E6
:10B3C0002161002B00D01D71FFF7D0FE002070BD61
:10B3D0000C970300F7B51F00089B04000E00012521
:10B3E0000192002B20D00100214825F097FB002876
:10B3F0001AD0FFF7C7FE1F4B08991A682369A2618C
:10B4000033400B600199002901D1002B01D1B342D7
:10B410000CD10025237D2571012B03D12369B34372
:10B4200023611571FFF7A2FE2800FEBD0225002F43
:10B43000F8D02379D9B2002B0DD0FFF72BFF0100F4
:10B44000A068E66825F07DFB01358642EAD200233C
:10B45000013D2371E6E77B1C07D001232371FFF731
:10B4600019FFE760A0600325DCE71171FBE7C04628
:10B470000C970300640F002070B5084C084D2B6832
:10B48000236023681A79002A05D01A68002AF6D0AA
:10B4900098689047F3E7DB68F2E7C046640F002046
:10B4A000D410002010B5FFF77BFE03F00BFE00F078
:10B4B00013F8FFF7D5FE00210248FFF795FEFFF7CE
:10B4C000DBFFC04628080020024A136801331360DE
:10B4D0007047C046600F002037B500211F4D204C3B
:10B4E000682228000094019104F090FE280003F0E7
:10B4F00013F8002830D16946280025F0E4FE009BAF
:10B50000A34229D1002827D10821280001AA25F02B
:10B51000E2FE019B0400002B08D100280DD10100A0
:10B5200031222800053325F0BAFE0400002C04D196
:10B530002100280025F0CBFE04000621094A28003E
:10B5400025F0C9FE08212800074A25F0C4FE002C7A
:10B5500002D10122054B1A7037BDC046D810002019
:10B560003CC33CC340110020441100205D32002048
:10B5700070B5040001200A4B1B7883420FD1094BA0
:10B580001D6800F025F8220020232900064802F05B
:10B59000E3FF0400601E844100F02AF8E0B270BDB1
:10B5A0005D32002040110020D810002010B5064B5D
:10B5B0001A7801239A4205D1044B2022196804F01D
:10B5C000D3FD0023180010BD5D3200204011002083
:10B5D000EFF3108172B6044A136801331360012B34
:10B5E00001D1024B19607047480800204811002023
:10B5F000074A1368002B01D172B6FEE7013B1360C6
:10B60000002B03D1034B1B6883F310887047C0469F
:10B610004808002048110020084A030011688142B0
:10B6200003D2516801208B4207D3916900208B42DD
:10B6300003D9D069834280414042704760110020A5
:10B64000F7B505001A4C1B480E00001B0C2104F036
:10B6500045FE002183B20193019A8BB29A4201D830
:10B66000062711E02368AB421FD8A77AA288002FD3
:10B670000CD092009A18954217D20027ED1AADB25D
:10B68000AD087580238933803800FEBDE0884243D1
:10B690009A188446954208D2ED1A6146A8B204F081
:10B6A0001DFE708023893380EEE701310C34D3E72F
:10B6B000348400007084000070B50500094C0A480D
:10B6C0000C21001B04F00AFE83B20020834201D14A
:10B6D000064870BD0C34221F1288AA42F9D00130EE
:10B6E00080B2F3E73484000070840000FFFF0000A4
:10B6F000F0B518242C4F2D4E3A7885B062439559F9
:10B700003B7808356343F3185B68AB4247D908229E
:10B71000290002A825F0FEFA029B0133F0D1039B19
:10B7200001930133ECD13B7863432C00F258083C81
:10B730000832AA422CD1F6181D4B336173610020E8
:10B7400005B0F0BD0822210002A825F0E3FA02AB03
:10B750001A78DB7993421AD1AA2B16D118253B7897
:10B760006B43F3181C613B786B43F2580832A242DA
:10B77000E5D8039A01921202120C12D1083C210062
:10B78000083202A825F0C6FAEDE7552BE6D0083CB2
:10B7900018223B785343F3580833A342D2D90B20E5
:10B7A000CEE7F6187461CAE75E320020601100200F
:10B7B0000000FF3F70B518244443084B1600E258C0
:10B7C000072008328A4208D81B195B688B4204D3D1
:10B7D0003000082225F09EFA002070BD6011002084
:10B7E0001823F0B51F4F050038781F4E4343F31858
:10B7F00019691E4A87B0914206D10024DB68103BCC
:10B800002B60200007B0F0BD02AAFFF7D3FF041E93
:10B8100026D1039B01931B021B0C13D138781833DC
:10B820004343F318596904AAFFF7C4FF002802D064
:10B830002C600400E5E7059B02AA1B021B0C537158
:10B840001B0A937118223978039B4A431B02B15893
:10B850001B0CB6183269083B5B189B1A2B60D0E7AB
:10B860000023FBE75E320020601100200000FF3F54
:10B87000F7B51825002745430D4E0E4C33686A4630
:10B88000082128590093019725F06AFAB8420CD193
:10B890006419606833686A46082107380197009385
:10B8A00025F05EFA47424741FFB23800FEBDC04670
:10B8B0005C11002060110020F0B599B004931EAB1C
:10B8C00005911E8806AB0700150003CA03C30122B9
:10B8D000554B1B780133134017325343534A9B583F
:10B8E00006AAFB1A511D0B709AB22B78120A4A70E5
:10B8F000AA2B00D194E00C23049A53434C4A9B1882
:10B90000D9889B884B439BB29E4200D388E09B1B07
:10B910009BB23000019304F0E1FC83B20293340047
:10B9200002E0403C4037A4B2331B9BB2002C26D02F
:10B9300018213D4A3D4812784A4369681258090265
:10B94000090C8918C918402C0ED9402208A825F0E6
:10B95000E1F94021380008AA25F00BFA0028E0D0D0
:10B960000C23180019B0F0BD220008A825F0D2F968
:10B970002100380008AA25F0FCF90028F0D1019B2D
:10B98000002B43D0E019072203000C261340039339
:10B99000049B00255E43264BF61810422AD0039BD9
:10B9A00090430132D31A08AF9BB201000400380063
:10B9B000049325F0AFF9FF20029AF38853433268CD
:10B9C000D318039A19785219D2B2B9540135019A91
:10B9D000ADB2954205D02A000499013302408A4253
:10B9E000EFD30821200008AA25F0C3F90028B7D119
:10B9F00020000830F288029B53435A1933689A1882
:10BA0000019B591B25F0B5F90028A9D108210598FB
:10BA100006AA25F0AEF900239842A2D00D33A0E784
:10BA20000023029301937AE75E3200206011002028
:10BA3000348400001823584310B5064C0022231804
:10BA4000D968005901F0D8FB0023984200D0033395
:10BA5000180010BD60110020002270B54B0714D1F2
:10BA600018240B4B1D780B4B6C43E55885420CD8C2
:10BA70001B195B68834208D30C1801339C4204D81D
:10BA800001F0BAFB42424241D2B2100070BDC04642
:10BA90005E32002060110020F0B58DB00490008867
:10BAA000FFF70AFE09227E4B0092984200D1D6E0B1
:10BAB0007C4B1B780093002B43D10C2568437A4DB7
:10BAC0004519EB88A97A2A680193049B002914D0B0
:10BAD00000981871049B01985B88584310180390D4
:10BAE000002908D09B00985800282CD0FFF794FD1F
:10BAF000002800D0B3E0AA2308E01B79002BE9D08E
:10BB0000AB8801990392594355230191059309A8E4
:10BB1000FFF766FE0723019A019C1A4021001C4290
:10BB200003D00824A41AE4B2641823001033069347
:10BB3000099B0293029A069B934208D90122594B12
:10BB40001A7011239DE0AA2301900593DFE71826C0
:10BB50003200564B564F18784243BB18196907916B
:10BB600054498C460799614505D15E68D759073E0F
:10BB7000361B083712E059690AAAFFF71BFE4B4B28
:10BB80001B7873430B9EDB593602360CF618079F61
:10BB9000361BEEE7029B361B1B1B0293069B029A89
:10BBA00093420AD221003000FFF756FF002859D1F6
:10BBB000002C57D0029B9C42ECD900223B4B1978B9
:10BBC00018234B433A495B58F31A99B29B075CD14F
:10BBD000002AB3D0059C049B08A82A895B880472BC
:10BBE000092008AC00190270120A42700B22180AD0
:10BBF0001219507013700D22059812191170090A4C
:10BC00005170E073A97A002903D029689B005B5822
:10BC10000393039B002B3AD1137053700821380013
:10BC20000AAA25F09DF800282AD118221F4B1B785C
:10BC300053431F4AD21817610B9B1B021B0C00D0E9
:10BC40005761AA7A002A1ED0002B08D0049B5A887C
:10BC50002B6892009B1818681E6001F011FA00987A
:10BC60000DB0F0BD08213800FFF7F6FE002805D121
:10BC7000029B9C42A1D8083B02937AE701229DE7F0
:10BC80000D230093EBE70092E9E71F23F9E730006B
:10BC9000039A019925F06DF80028BFD00C23F0E736
:10BCA000FFFF00005F320020348400005E3200207D
:10BCB000601100200000FF3F73B5144C009023007A
:10BCC0000191C2331D882300C4331E882300C03372
:10BCD0001B88AB4202D10020864213D106221000FD
:10BCE00068436946201804F03FFA23000135ADB2DD
:10BCF000C2331F2D07D81D8001201F2E02D83618F1
:10BD0000C434268076BD00221A80F5E7182700206B
:10BD100018234343094A10B5D1180400C96898583C
:10BD200001F094FAC3B20420002B05D10238012C93
:10BD300002D82000FFF77EFE10BDC0466011002033
:10BD400070B50125831C00D0451904240E4E3560C2
:10BD5000013CE4B2002C09D00020FFF7D9FF0028F5
:10BD6000F6D10130FFF7D4FF0028F1D10020074BB6
:10BD70001870FFF77DFD03001320002B02D0356003
:10BD8000FFF7B6FC70BDC0465C1100205E3200209B
:10BD9000012370B515000B4A4340040013700029BD
:10BDA0000ED0FFF747FE032801D0002D08D1182040
:10BDB000054B064A5C704443A2585A6001221A702F
:10BDC00070BDC0465E32002050110020601100207E
:10BDD00001004B1E9941F0B52D4F85B08B00042218
:10BDE0003968050003A8009324F094FF7B680422BF
:10BDF000D91F009B03A8C918039E24F08BFF039B47
:10BE00000422B96903A8019324F084FFF969009B17
:10BE100007390422C91803A8039C24F07BFF019B67
:10BE2000039A9E421DD1731C27D01A4B94420CD109
:10BE3000621C11D0184AA64204D31E60002313705E
:10BE400005B0F0BD1C600123F9E7002229000120A4
:10BE50001E60FFF79DFFF3E701221E60290010001E
:10BE6000F7E7944205D1631C03D00A4B00221C6003
:10BE7000F4E70222084B1A70E2E79442F9D1631CFE
:10BE8000F7D0044B0122290000201C60E1E7C046E6
:10BE9000601100205C1100205E3200200122F0B50C
:10BEA000A34C95B023780133134007936B461B7F57
:10BEB00018000893FFF7BEFD032825D01821079826
:10BEC0009C4B4843C25808320A9222784A439A1837
:10BED00012690292029C984A94421CD10A9B0493D4
:10BEE0001823934C95482278924942705A435258ED
:10BEF000426001220270089A049822700A9A8242D3
:10BF000000D019E28C4A19E20898FFF701FF0028D7
:10BF1000D4D015B0F0BD00271B185B680591073B16
:10BF200003930A9B0493824B824D1878059B029AD7
:10BF300043435B5908339342D2D80EAA0299FFF7C4
:10BF400039FC0CAB1A7ADB7B9A425FD10E9B1C0248
:10BF5000240C2000FFF7B0FB794B0690984255D097
:10BF60009C4253D0059B079A53435C59083412AD49
:10BF700008222100280024F0CDFE129B013302D1BB
:10BF80006B6801330ED02B78E879984224D02600D4
:10BF90000836079B059A08345A43664B9B185B6822
:10BFA000B342E4D80EAB1B78AA2B01D0552B2DD170
:10BFB0000C22069B634E5A439619B37A002B55D038
:10BFC0000EAB1C79DA78240214433268A3009B5824
:10BFD000002B4BD1029D40E026000E9B0EA91A02B9
:10BFE0002B68120C1B021B0C08369A42D1D10B781D
:10BFF000AA2B0FD1AA2809D1C8782A790979EB7818
:10C00000120209021A4301438A42C2D1029B083B31
:10C01000029388E7552BBCD1AA28F7D1B9E72900AC
:10C0200012AAFFF7C7FB129B013303D1139B09939D
:10C0300001331BD0139B09931B021B0C0CD10CABBF
:10C04000DA7E1B7F1B0213439C4205D1129B32896F
:10C050001B021B0C9342D9D00835354B059A187832
:10C06000344B42439B185B689D42D8D3B388F48815
:10C070005C430EAB1A78AA2A68D1B27A002A0CD196
:10C080000E9D029F2D022D0C294B059A1878294BE5
:10C090004243D3580833BB4236D9F28807211000F7
:10C0A000130008400A4203D008231B1ADBB2D3183E
:10C0B00003990092CB1A03930499069B03980EAA46
:10C0C000FFF7FAFB002800D023E7B37A002B13D048
:10C0D00024F03DFD0CAA147B0CABDB7A24021C433C
:10C0E0003368A4001C192068FFF796FA002801D0D5
:10C0F000039B236024F027FD0027029B083B02934B
:10C10000049B083304930EE7390012AAFFF752FB91
:10C110000CAB1B7E552B08D10CABDB7F552B04D110
:10C12000129B1B021B0CAB420ED0083FACE7C04673
:10C130005E320020601100200000FF3F50110020FF
:10C14000FFFF000034840000002FA6D0072221004A
:10C1500023001140144203D008235B1ADBB21B19E1
:10C16000039AD31A0EAA03931378AA2B00D0D5E012
:10C17000B288F3880021534379485200099324F090
:10C18000EBFD029DBD4239D800231C000D930693A0
:10C19000099B002B5AD155220CAB1A76BB787978C3
:10C1A0001B020B4319210CA809180B701B0A4B70BA
:10C1B0001B2300200CA95B18012118705870694BD3
:10C1C0000CAC1B781D3001330B40059900194B4313
:10C1D0006549E2775B580399CB1A99B203700B0A51
:10C1E00043708B0700D097E00821049812AA24F02E
:10C1F000B7FD002800D19BE00D208AE6594B12AC18
:10C20000220029001878FFF7D5FA2278E379083D53
:10C210009342B7D1AA2BB5D12379E2781B021343FD
:10C22000B2889A42AED9226878781102BA78090C9D
:10C23000120202439142A5D149495B005A5A002A91
:10C24000A0D162681202120C5A529BE70822FF2109
:10C2500010A824F081FD0825B388069A93422DD9B1
:10C26000F388059A0B93069B59003D4BC95A082346
:10C27000581B10AB18183B4B1B7853433A4A9B583A
:10C280000B9A121B954230DB92B20C9200292AD1F4
:10C29000B9797A7909021143C9180C190B9B0699CF
:10C2A000594361180C9A24F035FD0C9BEC1A069D3D
:10C2B000E4B20135ABB20693002C2AD10D9B0821C4
:10C2C000D800039B10AAC01824F04AFD002845D1CD
:10C2D0000D9B01339BB20D93099B082B00D85AE7A5
:10C2E000083B099354E7E418DBE7E31800290ED173
:10C2F000B9797A790902114359180B9A069B5A4366
:10C3000089182A002C1924F005FDE4B2D6E7591843
:10C31000F7E7250000249FE71F20FAE5A4B2069B5B
:10C32000049903980094FFF7C7FA002800D0F0E5BD
:10C33000029B083B0293E3E6049A083A07984343BA
:10C34000CB181A615A61094A0898136801331360BF
:10C35000FFF78EFA43425841C0B2DAE50C20D8E527
:10C36000DE2800205E320020601100205C110020D9
:10C37000F0B50024260003688DB00693838806AAD2
:10C380009380438805880779019304940294644953
:10C390000B00C4331B88002B0ED1019A06AB1D8005
:10C3A0005A801F7106980799FFF786FC00281DD157
:10C3B000162420000DB0F0BD0A008C46C032127861
:10C3C000DBB2002B15D1002E10D1029B012B39D1ED
:10C3D000019A06AB5A801D801F710623049A5048AB
:10C3E000534306A90622C01803F0BEFE212CCED06E
:10C3F000DFE7062160465143085A0390A8420FD157
:10C400006144081D05900879012803D0012F03D14C
:10C41000059B1F700126E9E7498801988142F9D000
:10C4200040490398884205D10299002902D101317F
:10C43000049202910132013BD2B2DBB21F2AC0D971
:10C440000022BEE7019A06AB1D805A801F71069834
:10C450000799FFF731FC061E5FD1062206A908A83E
:10C4600003F082FE304B1C78002C54D12C4BC4338B
:10C470001B88002B1BD108980999FFF71DFC002889
:10C4800000D195E700230293B0E70AA8FFF704FB69
:10C490001128F0D1FFF702FD002801D1234B1870BD
:10C4A0000AA8FFF7F9FA041EE5D02124E3E71C49A6
:10C4B0000B00C4331B880293002BDCD00F00062333
:10C4C000C0373D8806226B430135C9180AA8ADB2B2
:10C4D00003F04AFE1F2D1BD83D80029A104B013AF3
:10C4E000C4331A800AA9062206A803F03DFE06AB53
:10C4F0001D8A5B8A019306AB1F7D0A4B9D42C4D106
:10C50000019BAB42D3D1012FD1D12224019DB2E7AF
:10C5100000233B80E1E73400ADE7029E66E7C046BA
:10C5200018270020FFFF0000603200205F3200204B
:10C53000F0B587B00390224E22480C21801B03F0F7
:10C54000CDFE0025012783B21F4C02930195029B6B
:10C55000AB4202D1019807B0F0BD039B002B04D081
:10C560006388002B01D0013B63802378002B1CD013
:10C570006288002A22D1338904A90B80B37A002B68
:10C5800018D0E3880A714B80002323700F4B04A856
:10C590001B78002B04D1FFF77FFA112805D104A8DE
:10C5A000FFF7E6FE162800D127700135ADB208343A
:10C5B0000C36CCE704AA53801771E5E70197F4E73E
:10C5C0003484000070840000DE27002060320020E8
:10C5D00013B51F4A030012780C000E20002A13D056
:10C5E0000938002B10D069461800FFF729F80028F9
:10C5F0000AD16B461C71174B68461B78002B04D080
:10C60000FFF7B6FE162820D116BDFFF745FA112810
:10C61000FAD1FFF743FC0028F6D10F4B0F4C1870EE
:10C6200063780230012BEFD81800FFF771FB002868
:10C63000EAD11823627820705A43094B68469B1848
:10C64000084A1A61FFF728FADEE70F20DCE7C04648
:10C6500062320020603200205F3200205011002042
:10C66000601100200000FF3FF0B5444B444887B004
:10C67000C01A0C2103F032FE83B2039300231D0085
:10C680001C0002933F4B1A00C4321688002E2AD099
:10C690001A00C0321588019306276F43019BF85A90
:10C6A000FFF70AF8384B98420ED00C235843334B0F
:10C6B000C018837A002B07D0019B0268DF197B88A2
:10C6C0009B009B58002B05D0062301216B43019A48
:10C6D0004942D1520135013EADB2B6B21F2D00D94B
:10C6E0000025002ED8D1294B1B78002B0BD10C260E
:10C6F0006E43224BF618039BAB4227D9B37A002B2B
:10C7000029D000271CE0012304AA5B4204931000F7
:10C7100002331371FFF72CFE0400162818D02228CC
:10C7200029D12224AEE73368B80000211818FFF79A
:10C730004FFF0400052801D0002819D10137BFB2EE
:10C74000B388BB42EFD8029B012B0DD1222CE8D03D
:10C75000200007B0F0BD01213068FFF739FF040069
:10C76000052801D00028F1D10135ADB20C36C2E761
:10C7700001230293EAE70F24EAE7C046348400006D
:10C780007084000018270020FFFF000060320020A6
:10C79000F0B54F4B85B01B78002B1DD04D4B1B784F
:10C7A000002B19D14C4C2378002B04D0FFF776FBDB
:10C7B000002800D12070494C2378002B1DD018236D
:10C7C000627860685A43464B9B185A68904205D37A
:10C7D000444A1A610023237005B0F0BD424D290080
:10C7E00000F034FD00222900606800F005FD0028FB
:10C7F00003D163685D196560EEE73C4F3B78002B21
:10C800002CD002A824F069F90298652103F0ECFD10
:10C810000E0023F087FFFA2204000D0000233000F1
:10C820009200002103F068FF0023314A314E801846
:10C83000594122002B000090019130687168121A52
:10C840008B410199994209D802D10099914205D8AA
:10C850000120FFF76DFE346075603870264D2B00A7
:10C86000C4331B88002BB7D02B00C4331E88002E86
:10C87000B2D02F000621C0373C8806226143013424
:10C88000691802A8A4B203F06FFC1F2C1DD83C80CD
:10C890002B00013EC4331E8002AB1B88174A934213
:10C8A0000AD102AA52889A42DED102AB1B79012B2F
:10C8B000DAD1FFF7D9FED7E702A8FFF7EDF8112884
:10C8C000D2D102A8FFF754FD86E700233B80DFE7C3
:10C8D00062320020603200205F32002050110020C0
:10C8E000601100200000FF3F0008000063320020BC
:10C8F000F07E0E00600E002018270020FFFF0000D1
:10C90000F0B50025B64BB7488FB0C01A0C21019383
:10C91000089503F0E3FC80B2431E20241E2B00D9AF
:10C9200059E1019A03959388102B00D9CBE1039B21
:10C930000C3201339BB2984200D0B2E0AA4A0023E5
:10C940001100C0310B8011002020C4321380A74A8F
:10C95000C2310B801188A64A0090009813700138EC
:10C9600080B29180009008320028F6D1A14B187057
:10C97000A14B1B78002B00D09DE000F015FC9F4BD5
:10C98000009A9F4E1A70022333709E4B9E485B089C
:10C99000D9B2DBB243439D4D9D4AEB602A60D21869
:10C9A000501E6B62013B9B186860681CC177EB618D
:10C9B00000982972AA61FFF70BFA3378022B77D11E
:10C9C0000120FFF705FA3478022C71D001230134DD
:10C9D0001C406B4604941B7C18000593FFF72AF853
:10C9E000032860D0337818267343EC5804222100C2
:10C9F00009A824F08FF9099B082501330993002326
:10CA0000043402932B1B0793079B1F197C4BBFB267
:10CA10001A787E4B72439B185B689C4200D289E077
:10CA2000099B0022069300231827754E0C920D9344
:10CA30003378764D7B43E9184A68944238D2049C97
:10CA4000C9687C435A59029B04399A18C91A635918
:10CA5000181F029BC01824F083F9002828D16D4BC1
:10CA60000D901B68082160590CAA0C9324F078F9EA
:10CA700000281DD12C190D906068069B08210738ED
:10CA80000CAA0C9324F06CF9002811D133785B4A7E
:10CA90005F4353707B59536001231370059B3370C0
:10CAA00006E003933FE70598FFF732F9002899D095
:10CAB0000122514B1A70524B1A78022A61D0FEF7AC
:10CAC00017FE041E00D086E00122534B0AA81A70FC
:10CAD000FEF786FE041E00D0F0E00A9B7F2B02D8F2
:10CAE000FFF7DCF904001821454B1A78474B4A43FD
:10CAF0009B181F69494B9F426DD00491404B434A9C
:10CB00001878049B43439B580833BB4200D887E006
:10CB10000021019B9B7A022B00D1BDE0019A009B72
:10CB20000C3201920098039A01339BB2824252D098
:10CB30000093EEE72A0021000AA824F0EBF80A9BF4
:10CB4000013304D10B9B0693013300D168E70B9BA3
:10CB50001B021B0C08D00D21181F08AA891882B2CD
:10CB6000120A08704A700293049A284B7243D058F4
:10CB7000290038180AAA24F0F3F8002898D10834BC
:10CB800042E7002630001E70FFF7DAF805000400C7
:10CB900008A8FEF725FE330031000198C288072659
:10CBA00017003740324204D00136F71BFFB2BC46B3
:10CBB0006244878808327A43039F89185A1C92B2CC
:10CBC0000C309F420AD1089B8031994200D97CE009
:10CBD000002D00D173E720000FB0F0BD1300DDE79A
:10CBE000348400007084000018270020B40800205E
:10CBF000DE27002063320020613200205011002027
:10CC00005E320020040000000008000060110020D7
:10CC100000D803005C110020623200200000FF3FBA
:10CC20000CAD2A003900FEF7C5FD2A78EB79934256
:10CC30002DD1AA2B2BD12B681802000CFEF73CFD3E
:10CC4000234B984223D00C235843224BC018837A9D
:10CC5000022B1CD12E79EB7836021E430368B600F6
:10CC60009E19336818000293FEF7D6FC00280ED1F7
:10CC7000029B01330BD0184B049A1B785343174A7D
:10CC80009A586B681B021B0C03D09B183360083F3B
:10CC900034E701235B42F9E7019B988800239AB2AD
:10CCA000904200D83AE7019D9A002D68AA18029593
:10CCB0001568013500D111600133F0E70020FFF75E
:10CCC0003FF8040087E71C2485E71D2483E7C0465E
:10CCD000FFFF0000348400005E320020601100205D
:10CCE00070B5094D10242B78002B0BD1FFF708FEEF
:10CCF000041E07D1FEF7D4FA044B1860002801D1B6
:10CD00002C701934200070BD623200204C110020BC
:10CD10000121F0B50500384B87B0186849427746C5
:10CD2000FEF7D2FA02AB28009A1D04A923F018FFDF
:10CD3000041E31D102ABDB8800930C23009A5343CD
:10CD40002E4A9B1801939B7A002B50D02E683000FE
:10CD5000FEF762FC002830D1002E2ED0284A1300A6
:10CD6000C4331988002912D01300062502A8C03345
:10CD70001B880789448928005843865ABE4212D12D
:10CD800016187688A6420ED101235B4283520024F6
:10CD9000009B1C4ADB009C54174B1868FEF7D4FA22
:10CDA000200007B0F0BD013301399BB289B21F2BBF
:10CDB00000D900230029DED1E9E7019B3A000021D8
:10CDC000D88800F029F9061E13D02968002908D058
:10CDD00002ABDA880C235343084AD318DA8823F0CD
:10CDE00099FF23F0B4FE2E6023F0ADFED4E71B24A0
:10CDF000D2E71A24D0E7C0464C110020348400004A
:10CE000018270020DE2700200121F0B50400314D55
:10CE100087B049422868FEF757FA02AB9F1D3A00D7
:10CE2000200004A923F09CFE061E19D10C233A8889
:10CE30001B365343284A9B189B7A002B10D0276837
:10CE40003800FEF7E9FB061E10D1002F02D0380093
:10CE500000F016F923F07BFE0023236023F073FE1D
:10CE60002868FEF771FA300007B0F0BD1B4A1300C6
:10CE7000C4331988002921D01300012702A8008992
:10CE8000C0331B88009002A840897F420190062091
:10CE90005843865AB446009EB44506D11618768883
:10CEA000B446019EB44500D18752013301399BB28B
:10CEB00089B21F2B00D900230029E8D1002623F0D6
:10CEC00046FE266023F03FFE31002000FFF780FB86
:10CED0000600C5E74C11002034840000182700200C
:10CEE000F7B50E000121104D070049422868FEF7F2
:10CEF000EBF90E4B0E241B78002B0FD0093C002FB2
:10CF00000CD000226946380023F02AFE041E05D109
:10CF10006B4668461E71FFF72BFA04002868FEF77F
:10CF200013FA2000FEBDC0464C11002062320020E2
:10CF300010B5094C2368002B02D1FEF72BF92060B5
:10CF40000121064C49422068FEF7BEF9FFF720FC9C
:10CF50002068FEF7F9F910BD581100204C1100208F
:10CF600070B50E0001210400074D49422868FEF704
:10CF7000ABF931002000FFF72BFB04002868FEF717
:10CF8000E3F9200070BDC0464C110020F7B5002128
:10CF90001C4F1D4B04223800198023F0DDFE1B4E70
:10CFA0001B4C1C4D6B8820001900019323F02DFEB3
:10CFB000019B002B10D12B882889E381AB88A081AD
:10CFC0002382002B03D13B68002B00D13C6000285A
:10CFD00017D014340835E5E73100200023F01BFE9C
:10CFE000A37C094A0133A374074BF4601B88013307
:10CFF00013802B881033F618019B013B9BB20193E1
:10D00000D6E7FEBDA0180020FE28002090110020C9
:10D0100050180020B6080020F8B506000F1E154C69
:10D0200001D1154B1C6823F092FD002E05D0E38939
:10D03000B34204D2A389002B1AD1002510E0238A21
:10D04000BB42F7D1200023F026FE00280CD0103080
:10D0500005000A4A1388013B1380E37C0133E37423
:10D0600023F071FD2800F8BDA389B342E2D2E4E7C2
:10D070001434DAE750180020A0180020FE28002001
:10D08000F8B50326002813D0154B10380400984239
:10D090000ED3144B98420BD823F059FDE368124D80
:10D0A0009D4209D0AA89002A04D123F04CFD032611
:10D0B0003000F8BD1435F3E7A7680326002F0BD125
:10D0C0003E000A4A2100138828000133138023F010
:10D0D000A2FDEB7C013BEB7423F035FDE8E7C04695
:10D0E000901100205018002050180020FE28002029
:10D0F0000100020070B5002008250A4C0A317D327B
:10D100000B781B0258402B0006B2400080B2002E64
:10D1100000DA6040013BDBB2002BF5D101318A42DD
:10D12000EED170BD21100000F0B58027060005008B
:10D1300085B0009101923F03019B991B009B491907
:10D14000F3189D4201D100241BE0082202A823F01D
:10D15000E1FD23F0FCFC8023DB029D420CD208237E
:10D1600029000E4802AA24F02EF8040023F0EBFC5C
:10D17000002C06D10835DFE7BD4205D323F0E3FCE0
:10D180006624200005B0F0BD054B02AA19680548C9
:10D190000823691824F073F8E7E7C046A4180020B4
:10D1A000741900200C19002070B50E4D2B78002B3F
:10D1B00016D10D4801F070F923F0C9FC0B4E300078
:10D1C00001F0AAF923F0BFFC094C04212200300031
:10D1D00024F081F82368074A9B18236001232B70F1
:10D1E00070BDC046E3320020A41800200C190020B6
:10D1F000741900200000FCFFF8B504000E001700B1
:10D2000023F0A5FC8023DB029C420AD23B003200C3
:10D2100021000B4823F0F1FF050023F094FC2800C7
:10D22000F8BD802366251B039C42F6D2054B3200D5
:10D23000196805483B00611824F035F8ECE7C04652
:10D24000A4180020741900200C19002070B50400E7
:10D250000E0023F07CFC8023DB029C420AD23200C9
:10D2600021000B4B0B4823F095FF050023F06BFCCE
:10D27000280070BD802366251B039C42F6D2064B16
:10D28000320019680548024B611823F0E8FFECE70B
:10D290006B66656BA4180020741900200C1900201F
:10D2A00070B5134D010004007F22280023F043FDD8
:10D2B0000026B04213D10A2228000E4923F03BFD7C
:10D2C000B0420ED02800FFF713FFEB6F1B021B0CC0
:10D2D000834206D17F222900200023F01BFD30006D
:10D2E00070BD7F22FF21200023F036FD0126F6E7E6
:10D2F00000F803001FA3030070B50400FFF754FFFC
:10D30000114D7F222900200023F015FD030000208D
:10D31000834218D12000FFF7EBFE23007D33187005
:10D32000000A0A4958700A22200023F0F3FC8021E9
:10D3300028000901FFF78AFF002804D122007F217D
:10D34000280023F016FD70BD00F803001FA30300A2
:10D3500010B550498AB001914F498A4209D04F49CE
:10D360008A4221D04E498A4223D101214D4AD154CB
:10D370001FE04D4A12789A4216D1B0214B4A8903D8
:10D380005368DB00DB088B4200D166E01ED88021A9
:10D3900089038B4258D00ED88021C9028B4263D0BA
:10D3A000E02149038B425CD0414A4249424800F0A7
:10D3B00079FD0AB010BD902189038B4249D0A0218C
:10D3C00089038B42F0D1D27A3C4B44E0A021C903BF
:10D3D0008B4257D00AD89021C9038B424ED0982156
:10D3E000C9038B42E0D19268354B49E0C021C903A3
:10D3F0008B424AD0802109058B42D5D193781B07F7
:10D400001B0F012BD0D952892E4B9A42CCD172B628
:10D4100002A8FEF7CBF8041EC6D101A9042202A877
:10D4200002F0A2FE02A8FEF7A3F81022264B1A7003
:10D430005C7001F087FEBFF34F8F244B244ADA6003
:10D44000BFF34F8FC046FDE79368224A1B0C138041
:10D45000AAE7D27A204B1A70A6E793681F4A1B0CE2
:10D46000F5E7D27A1E4BF6E793681E49180C088040
:10D470001D490B80D3681D4A1B0CE8E792681C4BC2
:10D480001A6091E792681B4BFAE793681A4A1B0CE3
:10D49000DDE7C046AA55FFAAB8140000B914000081
:10D4A000B51400009D0C0020E43200207819002003
:10D4B00088190020141A002000400240A50C00200A
:10D4C000481B0020B0FF000000D0074000ED00E046
:10D4D0000400FA05E0080020A40C0020DE0800206B
:10D4E000A60C002000290020022900200429002089
:10D4F000441B00204C1B00200629002010B50D4CB9
:10D500000021200023F0DEFC3F2008220A498B780E
:10D51000834313438B70094B596009498B788343CC
:10D520001A438A7000232000064A074900F04CFC89
:10D5300010BDC04600400240781900208819002024
:10D540009419002051D30000141A002070B51D005A
:10D55000114E04AB745D1B78002C1CD00F4C52058F
:10D56000E160D1086268A060520F52070A430F21A0
:10D570000B4062601A00A37809488B431343A370E1
:10D58000084A094B0949157254601D7000F05EFC91
:10D59000002800D1705570BD9D0C0020941900200A
:10D5A00000400240A4190020E5320020141A002097
:10D5B00010B5084C2378002B0BD0074A074BC0B29C
:10D5C000107218700649074800F06CFC002800D162
:10D5D000207010BD9C0C002088190020E43200202F
:10D5E000141A002000400240064B9A79D20702D458
:10D5F000054B186870471B7A044A1B0710685B0FBD
:10D60000D840F7E7004006405408002050080020AA
:10D6100010B5114A114B117BC90714D418680028A2
:10D6200010D0137851789B06147B5B0F8A06D84084
:10D63000E4B2920F06D0E20704D4062B05D0072BE4
:10D6400007D0400910BD5868E9E7142102F046FEF2
:10D65000F8E70C21FAE7C04600400640F833002006
:10D66000014B18687047C046F83300204168074AEC
:10D67000074BD1500378C0209B040003116803407E
:10D68000044801400B4313607047C04600700440DB
:10D6900044100000FFFFF3FF10B50E4C63789B07AA
:10D6A00001D5002010BDA379DB060FD4FFF7B0FF32
:10D6B0000028F6D0E378E2785B069B0FD2095B0086
:10D6C0009B18054A5B009B5A5843EBE7034B1868CD
:10D6D000EEE7C046004006403AA003005408002090
:10D6E00010B50C4A93791B079B0F012B07D0022B17
:10D6F00008D00020834201D1FFF7CEFF10BDFFF715
:10D7000073FFFBE7127B044BD20701D41868F5E7DF
:10D710005868F3E700400640F833002070B5084D24
:10D72000084CFFF7DDFF2959090F013102F0D6FD42
:10D7300029594903490F013102F0D0FD70BDC0469F
:10D74000007004404410000010B5FFF7C9FF044A00
:10D75000044BD158090F013102F0C0FD10BDC04685
:10D760000070044044100000044B00201B7810B5EA
:10D770009B0701D5FFF738FF10BDC04600400640AB
:10D7800030B501210500094C0D40227B237B0A4066
:10D790008B432B432373824206D1002030BDC04609
:10D7A000013B002BFBD1F8E7014BF9E700400640B5
:10D7B000DD05000070B51B4B9C799E791D7A24070E
:10D7C0002D07A40FF6B26D0F954215D01D78AD0749
:10D7D00001D4012C08D101252E4205D05E78AE433C
:10D7E0005E709E792E42FCD10E261D7A5200324088
:10D7F0002136B5432A431A7201255A78AA430D40AF
:10D800002A4303255A701A78AA4302431A70012C3E
:10D8100001D0820704D501209A7902408A42FBD1C7
:10D82000002070BD0040064002680D49002310B57D
:10D830008A4204D90B4B93429B415B4201333C2407
:10D84000094900794A781B01A243024313434B70F4
:10D850000B00002803D0022299791142FCD010BDA0
:10D860009798000000127A00004006403C21024ACE
:10D8700053788B435370704700400640F7B5204CF7
:10D880000192E678A5790027F6B2EA0604D52025AC
:10D89000E7787D400127E5702578AC46C500382043
:10D8A000624605403538104005432570207BC2078D
:10D8B00006D46078420703D50220A5790542FCD042
:10D8C0001020A5790542FCD1002F00D0E67060251C
:10D8D0001F20019AC90152012A4030400A430243E5
:10D8E000D2B2E270E1789142FCD10321A279920890
:10D8F0000A42FBD1002B00D098470020FEBDC04655
:10D9000000400640F0B5EFF3108472B60D4E0E4A9B
:10D91000B568B446954208D000250C4B0C4F9B08C7
:10D920009B009D4209D163469A60030010339B001F
:10D93000D058D15084F31088F0BD7E59565104352B
:10D94000EFE7C04600ED00E000C0FF1FC000000090
:10D9500000800000036810B5002B03DA024B1B683F
:10D96000984710BD014BFAE7B8190020BC190020F8
:10D9700010B5034B03481968FFF7ECFF10BDC04614
:10D98000B019002000C0024010B5034B034859688D
:10D99000FFF7E0FF10BDC046B019002000D00240E4
:10D9A0000368064A134003600368054A1340036096
:10D9B00080235B0402681A42FCD17047FFFFFFEF2F
:10D9C000FFFFFFBF0368174A10B5134003608023B1
:10D9D0005B0302681A42FCD1802302689B041A434D
:10D9E000026001680A001A401942FAD101680E4B20
:10D9F0000B430360B3231B04426043630B4B88213A
:10DA000089005118890001320B50202AF7D1E132E8
:10DA1000036100214361FF3283618364803002F03F
:10DA2000F5FB10BDFFFFFBFF1F002800FFFFFF3FBE
:10DA3000024BC018431E98417047C04600C0FDBF4E
:10DA400010B50400FFF7BEFF802322681B061343B6
:10DA5000236080235B0322681A42FCD01021024A13
:10DA600013688B43136010BD3C80044070B5040004
:10DA70000D0023F0D9F91F20236D104ADB0FDB07BF
:10DA800023652B88216D5B0513402A7902400A43E8
:10DA9000F8211343AA78490312040A40F8211343DA
:10DAA000EA78890052010A4013436A7920009206FD
:10DAB000120C13432365FFF773FF70BD0000E07F76
:10DAC0001023F0B51600454A0D00116804000B4301
:10DAD0001360802302681B0613430360802385B014
