:020000040000FA
:108000000002002025810000D1450300BD91000041
:108010000000000000000000000000000000000060
:10802000000000000000000000000000D1810000FE
:108030000000000000000000D3810000D581000096
:10804000DB810000E3810000EB810000F381000090
:1080500085A90000038200000B820000138200004B
:108060001B820000238200002B820000338200006C
:10807000438200004B820000538200005B820000BC
:10808000638200006B820000738200007B8200002C
:10809000838200008B820000938200009B8200009C
:1080A000A38200003B820000AB820000B38200008C
:1080B000BB820000C3820000CB820000D38200009C
:1080C00090EB030080030020180F000090EB0300EA
:1080D000000200200000000090EB030000020020DE
:1080E0000000000090EB0300C00200200000000030
:1080F00090EB030000C0FF1F00000000981200205A
:1081000020260000000200200000000000020020E5
:1081100000000000C00200200000000000C0FF1F9F
:108120000000000010B572B61F4B1B68012B05D173
:108130001E4B1B7807221340042B03D007F080F955
:108140001B4B1FE01B4B1B78013A1340022BF5D150
:10815000194B1A68194B1B689A42EFD1164B5B6892
:10816000012B04D007F078F900F035F8FEE7164847
:108170008546F7E7186859681C000C349A6800F0C7
:10818000ACF823000E4A9342F4D306E018681C00B2
:108190000834596800F0AAF823000A4A9342F5D33C
:1081A00062B603F015FBFEE700F0074001E0074070
:1081B000C080000002E00740C002002048CE03005B
:1081C000FC8000002481000000C4FF1FFEE7FEE7E2
:1081D000FEE7FEE7FEE7FEE7FEE710B5FFF7FCFF70
:1081E00010BD10B5FFF7F8FF10BD10B5FFF7F4FF95
:1081F00010BD10B5FFF7F0FF10BD10B5FFF7ECFF95
:1082000010BD10B5FFF7E8FF10BD10B5FFF7E4FF94
:1082100010BD10B5FFF7E0FF10BD10B5FFF7DCFF94
:1082200010BD10B5FFF7D8FF10BD10B506F078F9F6
:1082300010BD10B506F0ACF910BD10B506F0A8F9E8
:1082400010BD10B5FFF7C8FF10BD10B5FFF7C4FF94
:1082500010BD10B5FFF7C0FF10BD10B5FFF7BCFF94
:1082600010BD10B5FFF7B8FF10BD10B5FFF7B4FF94
:1082700010BD10B5FFF7B0FF10BD10B5FFF7ACFF94
:1082800010BD10B5FFF7A8FF10BD10B5FFF7A4FF94
:1082900010BD10B5FFF7A0FF10BD10B5FFF79CFF94
:1082A00010BD10B5FFF798FF10BD10B5FFF794FF94
:1082B00010BD10B5FFF790FF10BD10B5FFF78CFF94
:1082C00010BD10B506F048F910BD10B5FFF784FFDA
:1082D00010BD10B5FFF780FF10BD10B5002393420D
:1082E00003D210C810C10433F9E710BD00238B423C
:1082F00003D2002204C00433F9E77047FFFFFFFFF9
:10830000FFFFFFFFFFFFFFFFFFFFFFFFFFFFFFFF7D
:10831000FFFFFFFFFFFFFFFFFFFFFFFFFFFFFFFF6D
:10832000FFFFFFFFFFFFFFFFFFFFFFFFFFFFFFFF5D
:10833000FFFFFFFFFFFFFFFFFFFFFFFFFFFFFFFF4D
:10834000FFFFFFFFFFFFFFFFFFFFFFFFFFFFFFFF3D
:10835000FFFFFFFFFFFFFFFFFFFFFFFFFFFFFFFF2D
:10836000FFFFFFFFFFFFFFFFFFFFFFFFFFFFFFFF1D
:10837000FFFFFFFFFFFFFFFFFFFFFFFFFFFFFFFF0D
:10838000FFFFFFFFFFFFFFFFFFFFFFFFFFFFFFFFFD
:10839000FFFFFFFFFFFFFFFFFFFFFFFFFFFFFFFFED
:1083A000FFFFFFFFFFFFFFFFFFFFFFFFFFFFFFFFDD
:1083B000FFFFFFFFFFFFFFFFFFFFFFFFFFFFFFFFCD
:1083C000FFFFFFFFFFFFFFFFFFFFFFFFFFFFFFFFBD
:1083D000FFFFFFFFFFFFFFFFFFFFFFFFFFFFFFFFAD
:1083E000FFFFFFFFFFFFFFFFFFFFFFFFFFFFFFFF9D
:1083F000FFFFFFFFFFFFFFFFFFFFFFFFFFFFFFFF8D
:10840000FFFFFFFFFFFFFFFFFFFFFFFFFEFFFFFF7D
:108410007C0C0020A305070A000000006012002069
:10842000BE010606000000007C1200204701060A7B
:108430000100000020140020050004001540020087
:108440003414002001003C00144002003C140020C1
:108450000100380013400200381400200100080019
:1084600012400200401400200100200011400200D0
:10847000064B1B78002B07D1044B01221A70044BCA
:1084800028321A80002070470620FCE78A37002037
:10849000B42E002002000B4B1B88834204D8013B02
:1084A00098B201E0013880B2074B984208D003012E
:1084B00006490968CB5A934201D3F3D100E0024840
:1084C0007047C046B42E0020FFFF00003008002097
:1084D00010B5040008202BF089F8011E0AD00A23E9
:1084E0000360446004482BF052F8044B18680121E3
:1084F00003F0CAF810BDC0465814002050140020E4
:1085000070B5050010202BF071F8041E11D0022365
:1085100003602B7803710630A91C0A2207F0FEFCC9
:10852000210004482BF033F8034B1868012103F0B5
:10853000ABF870BD581400205014002010B50B4B40
:108540001B68002B01D0012010BD0021084803F05A
:108550002BF8064B1860002801D00020F4E7002318
:10856000002200212AF017FF0120EDE7541400201B
:10857000480B002010B505F01DF9024B1B78002BAD
:10858000F9D110BDDCDC030010B503680A2B0DD84F
:108590009B00364AD3589F46043000F0E5FD05E0C5
:1085A000334B1B68002B01D00430984710BD314B72
:1085B0001B68002BFAD004309847F7E72E4B1B6856
:1085C000002BF3D00100083100799847EEE72B4BE0
:1085D0001B68002BEAD00100083100799847E5E7D5
:1085E000274B1C68002CE1D00389827941790079FE
:1085F000A047DBE7234B1C68002CD7D04389426897
:108600000189007BA047D1E71F4B1C68002CCDD00F
:10861000438942680189007BA047C7E71B4B1C6860
:10862000002CC3D002000A320389C1880079A04718
:10863000BCE7174B1B68002BB8D004309847B5E750
:10864000446820002AF081FE002803D1200002F0B7
:108650001FFDABE7200023F0CFFF0028A6D00023AA
:1086600000220C4900202AF096FE9FE7FCC203007E
:108670006414002084140020681400207814002062
:1086800074140020701400206C140020801400204A
:108690007C140020F9C5020070B506000D000B78AF
:1086A000092B19D02C202AF0A1FF041E13D001237E
:1086B000036006712B78092B2ED008302422290064
:1086C0002BF041F8210037482AF061FF364B18683B
:1086D000012102F0D9FF70BD4B685A68002A13D0FF
:1086E00018781A7C801830309A68002A0ED016222A
:1086F0008018DA68002A0BD010221218DB69002BD0
:1087000008D006208018CEE73020EDE70022EFE702
:108710000022F2E70020F5E76E6803721030E06097
:10872000696820222BF00FF8250030357368002B84
:1087300017D03378E2681370E3685D60327871684F
:1087400028002BF000F83378ED18337CE2681374BE
:10875000E3685D61327C716928002AF0F4FF337CA4
:10876000ED18B368002B12D0E3689D601022B16849
:1087700028002AF0E8FF28001030B37EE2689376E4
:10878000E368D8610622F1692AF0DDFF1635F36847
:10879000002B97D0E368DD60F168102228002AF0F2
:1087A000D2FF8FE7581400205014002070B5060047
:1087B0000D000B78022B03D0042B01D0142001E014
:1087C000E88814302AF012FF041E15D00423036039
:1087D000067108300C2229002AF0B5FF237A022BFB
:1087E0000BD0042B09D0210008482AF0D0FE084BFA
:1087F0001868012102F048FF70BD2000143020618C
:10880000A968EA882AF09FFFEDE7C04658140020C7
:108810005014002070B5050028202AF0E7FE041E41
:108820000ED0002308C0242229002AF08CFF21004A
:1088300004482AF0ACFE044B1868012102F024FF22
:1088400070BDC046581400205014002010B584B0EC
:108850000023039313E020002AF0CEFE214B1B6877
:10886000002B33D00123204A1268002A30D0022284
:10887000134303932ED11D4B1B78002B30D01C4B80
:108880001868012303AA00925B420022194902F0F2
:1088900017FF144B1B68002B09D012482AF081FEE9
:1088A000041E04D0FFF770FE20002AF0A5FE0E4B38
:1088B0001B68002BD2D00C482AF073FE041ECDD0CA
:1088C0000368002BC7D040689847C4E70023CAE775
:1088D0000022CDE7064B1868022102F0D5FECAE758
:1088E00004B010BD5814002044140020DCDC030048
:1088F00050140020FFFFFF0010B50400214B1B782F
:10890000002B2DD11F4B01221A7006F09BFE04F0A4
:1089100097FF02F041F91C4802F0B4FB02F002FD9F
:10892000002002F087FD04F0EBFE184B184A1A6095
:10893000FFF704FE2AF057FA012002F013FF154A50
:108940001060002810D0002113482AF065FE002195
:1089500012482AF061FE124800F070FA002809D18E
:108960002000FFF773FF10BD0023002200212AF032
:1089700012FDF8E700230022002100202AF00BFD61
:10898000F1E7C0468B370020D1840000DC290020AD
:10899000B52D03005014002058140020441400206A
:1089A0001588000010B5044B1860044B1960044989
:1089B000044823F06DFC10BD6414002068140020EE
:1089C000998600000185000010B5034B186003482C
:1089D00032F048FB10BDC04678140020AD8700007F
:1089E00070B5061E00D070BD84000F48001904F059
:1089F000B7FE0E48001904F0B3FE0D48001904F04C
:108A0000AFFE0C48001904F0ABFE3500A41905E0D8
:108A1000A3000948C01804F0A3FE01346A1C9300A7
:108A20009B18A342F4D8DEE740140020381400203D
:108A30003C1400203414002020140020F0B5DE4641
:108A4000474680B585B006000191029203930EABB4
:108A50001B789B46002868D1040000270023984615
:108A60001AE0019A002A4ED0B300324DED181700DB
:108A700020239846002D0DD0280004F05DFE00282C
:108A80004DD14246390028682AF05DFE00212800B9
:108A900004F07AFE0134E4B2042C46D831D8A300A5
:108AA000254AD3589F46029A002A2ED0B300234D60
:108AB000ED18170008239846DCE7039A002A26D011
:108AC000B3001F4DED18170038239846D2E70C9BD2
:108AD000002B1ED0B3001B4DED180C9F3C23984675
:108AE000C8E70D9B002B16D05B46042B15D8B500AC
:108AF000AD195D44AD00144B5D190D9F04239846DC
:108B0000B8E70025B6E7019DB4E7029DB2E7039DF3
:108B1000B0E70C9DAEE70D9DACE70025AAE72F60FE
:108B20000021280004F060FEB4E705B0C0BCBB46DD
:108B3000B046F0BD4014002028C3030038140020C4
:108B40003C1400203414002020140020F0B5DE4630
:108B500000B584B007000191029203930CAB1B781F
:108B60009B46002855D104000026002512E00199FB
:108B7000002942D0BA00294B9B180E002025002B5B
:108B800006D01968002903D02A0030002AF0DBFD46
:108B90000134E4B2042C3CD82DD8A300204AD35889
:108BA0009F46029900292AD0BA001E4B9B180E003E
:108BB0000825E4E70399002923D0BA001A4B9B1833
:108BC0000E003825DBE70A9B002B1CD0BA00174BA0
:108BD0009B180A9E3C25D2E70B9B002B15D05B46C9
:108BE000042B14D8BB00DB195B449A00104B9B1874
:108BF0000B9E0425C3E70023C1E7019BBFE7029B4F
:108C0000BDE7039BBBE70A9BB9E70B9BB7E70023D4
:108C1000B5E704B080BCBB46F0BDC04640140020A0
:108C20003CC30300381400203C14002034140020FE
:108C300020140020F0B58FB000240A940C220021EB
:108C40000BA807F0BDF96B4627255B191C7027237D
:108C50006B4419000AA806F0FDFC6B465B191978F5
:108C6000002901D10FB0F0BD4A1E0AACA35C01334C
:108C7000A35401AE320020002AF054FB164D2A788E
:108C8000310068682AF05FFD27276F4439784A1E53
:108C9000A35C0133A354320020002AF043FB1022CE
:108CA0003100E8682AF04FFD39784A1EA35C013391
:108CB000A354320020002AF035FB33782B832800A0
:108CC0001830022231002AF03EFD68692A7C6B468A
:108CD000991D2AF038FDC5E7C00B002010B5064BE2
:108CE0001B689A0605D51B0504D5044AFB2123F011
:108CF00019FC10BD024AF9E78814002090420000D8
:108D00004808000010B50378012B10D00B2B08D0B9
:108D1000002B00D010BD42681A4B1A60FFF78AFF83
:108D2000F8E7011D062218482AF00DFDF2E78388B6
:108D3000D3225200934213D019D8082B08D90A2BFA
:108D4000E8D100230022002100202AF024FBE1E7E3
:108D5000072BDFD300230022002100202AF01BFB79
:108D600000230022002100202AF015FB03E08122CD
:108D7000D2009342CED100230022002100202AF00D
:108D80000AFBDEE7881400208C14002000B583B0B5
:108D900023F08EFB084B1A6890231B011A4201D165
:108DA00003B000BD00230193033300930022002190
:108DB000012023F0DBFBF3E78814002010B5144BEF
:108DC0001B68002B01D0012010BD012002F0CAFC5D
:108DD000104B1860002818D000210F482AF01CFC06
:108DE00000210E482AF018FC00210D4802F0DCFB9F
:108DF000074B1860002801D00020E5E7002300227F
:108E000000212AF0C8FA0120DEE70120DCE7C04695
:108E1000B0140020AC14002094140020A0140020F2
:108E2000680B002010B506F039FFC4B201F09EF9BE
:108E3000014B1880200010BD8012002010B50400E6
:108E4000FFF7F0FF00281DD106F0B2FE00281BD16D
:108E5000114B00221A70114B01321A7010480DF09C
:108E6000C7FD002812D12BF0FEFC06F00BFE0028F7
:108E70000ED0FFF7A3FF00280CD10A49200032F0E2
:108E8000E6FA00E0082010BD0720FCE70720FAE71B
:108E90000520F8E70720F6E7BB370020BC370020A5
:108EA00079980200754A030010B5104B5B78002BCF
:108EB00005D0012B0ED00E4823F058F910BD0C4BF5
:108EC00020221A8010325A8000229A73094B1E32D7
:108ED0001A60F0E7064BC822D2001A805A8000229E
:108EE0009A73044B2D32FF321A60E4E7C814002055
:108EF000A80B0020CC14002000B583B00378012B10
:108F000026D0022B03D0002B01D003B000BD144AA1
:108F1000137859424B41DBB21370002B03D1114A35
:108F20001278002A11D1002BEFD00F4B19684A019B
:108F3000521A92005218D2000C4B1878002300935A
:108F40000B4B18212AF011F8DFE7FFF7ADFFDCE744
:108F500000230022002100202AF01DFAD5E7C04698
:108F6000C814002090370020CC1400208D3700203A
:108F7000D18F000010B506F0B1FB034B98701800BC
:108F800006F056FD10BDC046180C002070B52BF041
:108F900024FB810009184901091809138CB20F201C
:108FA00001400A4D28002BF0E5FBF021214028006C
:108FB0002BF0E0FB2100283189B22A000E2006F0B8
:108FC000A1FC6421280006F025FD70BDC01400201E
:108FD00010B523F08BF9074B5B78002B05D10133DB
:108FE000044A5370044A137010BD034B00221A70D8
:108FF000FAE7C046C81400209037002070B57646C6
:10900000FFF7C4FE1549012021F0BCFC1448FFF70E
:10901000DBFC144B00221A70134C0123E370A5688B
:1090200032000021042004F057FC2860200006F0E4
:1090300093FC06F053FB0D4B987018002BF0FBFBD4
:1090400001F0E4FD0A4B187001F0E0FD094B1870C7
:1090500001F0DCFD084B187070BDC046240C0020E8
:109060007D900000C8140020280C0020180C00205F
:109070008D3700208F3700208E37002070B5040018
:109080000B78022B00D070BD8D88152D05D00022E5
:109090002900200021F08EFCF5E78B681978024842
:1090A0002BF080FB0200F3E7C014002010B5054B45
:1090B0001B78002B00D010BD024B00225A70FFF726
:1090C000F3FEF8E7C814002070B582B005000C006C
:1090D00029F071FE2378002B03D00D2B22D002B093
:1090E00070BD194E00243470290018482BF08EFBF7
:1090F000280006F0F9FB3470154B187801F09CFD40
:10910000FA22144B18780094134B9200122129F084
:109110002CFF124B18780094114B124A122129F09F
:1091200024FFDCE7290009482BF07AFB06F0E2FB7C
:10913000084B187801F080FD084B187801F07CFD91
:10914000FFF7B4FFCBE7C046C8140020180C00207E
:109150008D3700208F3700208D8F00008E37002044
:10916000758F00001027000010B50400FFF7CAFD3E
:109170002378032B15D00AD8002B0FD0022B0FD148
:1091800000230022002100202AF005F908E0042B2A
:1091900006D106490648FFF705FC01E0FFF72EFF60
:1091A00010BD0449044823F003F8F9E7C990000012
:1091B000F98E0000B4140020B80B00200420714682
:1091C000084202D0EFF3098001E0EFF308808169E3
:1091D0000A88044B9A4200D0FEE7023181612021C7
:1091E00001607047ABBE000010B5040000F0BEFF88
:1091F0000C2800D09DE05B4AAC23D1585A4801406E
:10920000D150D05859490143D1502368002B00D187
:109210008DE0AE2252009958554A94466144554A11
:109220005160BA214900595861441163BC21490079
:10923000595861445163C021490059586144D16370
:10924000C2214900595861441164C4214900595848
:1092500061445164C6214900595861449164C82150
:10926000490059586144D164CA21490059586144A0
:109270001165CC214900595861445165CE214900FE
:10928000595861449165D021490059586144D165CC
:10929000D4214900595861445166D8214900595890
:1092A0006144D166DC214900595861445167DE218F
:1092B0004900595861449167E02149005958614477
:1092C000D167E22149005958614480201150E421BE
:1092D00049005958614484201150E82149005958E7
:1092E00061448C201150EA21490059586144902072
:1092F0001150FC21490059586144B8201150FE21F9
:10930000490059586144BC201150822189005958A4
:109310006144C8201150962189005B5863448C2118
:10932000490053500020144B144A1A8010BD0120EC
:10933000F9E700F01BFF062801D00420F6E7094AF0
:10934000AC23D0580324A043D050D1582143D1504E
:109350000B4AE0330B49D150074B0B4A1A800020CF
:10936000E4E7C04600780840C0C0FFFF10100000CE
:10937000242400008073084082120020182300007B
:109380000070084080366A5A18690000F0B5DE4661
:1093900057464E464546E0B585B0002801D100F05D
:1093A00081FC036803904268FE4954684C60FE49A2
:1093B0001C688C63FD49B82495680D51BC25D6689E
:1093C0004E51C02617698F51C4275069C851C82013
:1093D00095690D50CC25D6694E51D026176A8F510C
:1093E000D427506AC851D820956A0D50DC25D66A1A
:1093F0004E51E026176B8F51E4271600506BC85171
:10940000E822B06B8850F06B34340851306C04346F
:109410000851706C1037C851F8208246B56C0D5059
:109420000430F56C0D500C37356DCD510830756D2D
:109430000D500837B56DCD5186256D00AB46F76DE3
:109440004F510435A946376E4F510435A846776E03
:109450004F51AC275D68CD5104379D68CD51B56E35
:10946000D86805434D62F56E8D62356F1869054306
:10947000CD62756F0D635D69CD639D698D63B56F59
:109480000D60F56F4D608027F5598D600437F559F3
:10949000CD600437F5590D61DD694D630437F55929
:1094A000CD510437F5594D645C3C35598D6408370E
:1094B000F559CD649C2035580D65043035584D65FF
:1094C0001D6ACD5108305D6A0D50A425009675596E
:1094D0009E6A35430D51B649DE6A0E601E6B4E60C2
:1094E0005E6B8E61009E365835009E6B3543CD60B5
:1094F000DE6B0E6118340098065935001E6C35433A
:109500004D615E6CCE610434065935009E6C354366
:109510000D62DE6C4E62B42141581E6D3143A54E82
:109520003160A5495E6D0E659E6DCE6408340659A6
:109530003500DE6D35438D601E6E0E6104340659B4
:1095400035005E6E35430D669E6E8E64DE6E0E6077
:109550001E6FCE615E6FCE629E6F8E61DE6F0E6398
:109560003C3C1E594E6304341E594E603C3406592F
:109570000096383C1E59009D35430D62043419593C
:109580000091C421415801910099019E31438C46BC
:109590008A4966464E603C3406598125AD004E51DD
:1095A000383C1E5900963C340659009D35438D6069
:1095B0000434065900963C3C1E59009D3543AC4688
:1095C0008225AD0066464E51403406593500DE59BD
:1095D0003543CD6004340090065901969C201E58F6
:1095E000019D3543AC468325AD0066464E5104309F
:1095F0001E580196043400980659019D35430D61AB
:10960000A4255E5901960434009006590296019DE6
:109610003543443C0D51A8201E581C3C0E512C349F
:109620001E59283C0E512C341E59283C0E510C302A
:109630001E5804340E512C341E59283C0E512C3423
:109640001E59283C0E512C341E59CE512C37DE5950
:109650001D30FF300E500437DE59CE670437DE5917
:109660004E670437DE598E670437DE590E660437BD
:10967000DE59CE651C341E59C8256D004E51083781
:10968000DE593C380E500437DE5901965E4601988B
:109690008851303D9E584E51EC269E594E63009C99
:1096A000E659BC2040000E501438703D5E590E50F3
:1096B0001037DE590E64A6585046185806434E62BD
:1096C000FC201E580432A55835438D622200F02438
:1096D00014594C640092D0598426B6008851113E2A
:1096E000FF3E985901904846019E0E500C3818587C
:1096F00001904046019E0E500C38185801909C2055
:1097000040000200019E0E5020385E469E590E50C9
:109710008E26760035004F46DF598F510436474676
:10972000DF598F511858019092204000019F0F502F
:109730005F59019794277F00BC46019DCD519F59E9
:10974000019796277F00019ECE51185898246400F7
:1097500008519A20400066469E590E505646009D7C
:10976000AD59DE593543EA2676008D51D83E009D2D
:10977000AD591936FF368D511D594D661D588D66F0
:109780009D58CD669E256D005D590D67A0256D0025
:109790005D590D65A2256D005E594E65A4267600C3
:1097A0000EE0C046006008400062084000780840B3
:1097B000007508408072084000760840007008403C
:1097C0009E598E6508355E598E61A82676009E5991
:1097D000CE6180267600009A9659B246D026760051
:1097E00052468A519C3E009A92591D36FF368A5144
:1097F000193EFF3E009A92599C368A515A46009E65
:10980000B258E42676008A514A46009EB2589346E2
:10981000922292005E468E504246009EB258E62644
:1098200076008A51B43E009A925992469322920051
:1098300056468E508E267600009A92590936FF368B
:109840008A51053EFF3E009A925988368A51843EDD
:10985000009A92590536FF368A516246009EB258E8
:10986000D62676008A51009EF2590137FF37CA5139
:1098700034597C3FCC513458FC300C50F8383058B7
:109880000437C8519E2040003458F8300C50F4384A
:1098900030580437C851A22040003458F4300C50DE
:1098A0007C38703FF2590A50803072590A50EC38B7
:1098B00032587837CA51AA246400F03032590A501D
:1098C000E83804373258CA51683F0096F259E837F1
:1098D000CA51B0267600009FBA5917001A5917438B
:1098E0000F600436009FBA598027BF00CA51983FC5
:1098F000009EF259203FCA51B62252009246942649
:10990000B600009FBA588A51B822520091463E00D4
:10991000BA584A51BA22520090460935FF35BA5812
:109920004A51DC3D7A59283D4A51BE2252009446A4
:109930000935FF35BA584A51C0277F00F2590A51FC
:109940000934FF34C2225200B2580A51D03D725934
:109950000A50D03C98229200009636598E50C82664
:109960007600009A92594C368A51483E009A925994
:109970000192F02252009346019E8E501858CA4917
:109980000860AE20400018584860B02040001858C9
:109990008862B22040001858C862B42040001858AD
:1099A00090267600885152469858043688514A4687
:1099B00098584862424698580863BC20400018589E
:1099C0004863624698588863D859C8630437D859A1
:1099D000086458594864185988646C369859C864A2
:1099E000043698590865CC20400018584865CE20A8
:1099F000400018588865D02040001858C865D2200B
:109A0000400018580866D420400018584866D620F0
:109A1000400018588866D82040001858C866DA20D8
:109A2000400018580867DC20400018584867DE20BE
:109A3000400018588867E02040001858C867E220A6
:109A400040001858093DFF3D4851E4204000185897
:109A500004354851E62040001858043548513C363A
:109A60009859013CFF3C0851043698590835485133
:109A7000EC204000185808340851EE2040001858D7
:109A80000C3548515A46985804354851F220400048
:109A9000185804354851F4204000185804354851EE
:109AA000F62040001858293EFF3E8851F82040001B
:109AB000185804368851FA20400018580436885146
:109AC000FC204000185824340851FE20400018584B
:109AD00004340851802080001858043408515D3542
:109AE000FF355859C03FC851043558590437C8513B
:109AF000043558590437C8515D36FF369859043734
:109B0000C851043698590437C85186208000185827
:109B10000437C8518720800018581C3408510C366F
:109B200098590837C851043698590437C851043633
:109B30009C59E8200C504530FF301C584138FF3804
:109B40000C504530FF301C584138FF380C50453020
:109B5000FF301C584138FF380C504530FF301C583E
:109B60004138FF380C504530FF301C584138FF3821
:109B70000C504530FF301C584138FF380C504530F0
:109B8000FF301C584138FF380C504530FF301C580E
:109B90004138FF380C504530FF301C584138FF38F1
:109BA0000C504530FF301C584138FF380C504530C0
:109BB000FF301C584138FF380C504530FF301C58DE
:109BC0004138FF380C504530FF3018580862CC211E
:109BD0004900009A50583549C865CE2040001058B9
:109BE0004865D0204000105888659820800018589B
:109BF0004860992080001858D224640014592043EA
:109C000088609A2080001858C860D42040001058FE
:109C10000861D620400010588861D82040001058B4
:109C2000C861DA20400010580862DC20400010585B
:109C300048629B2080001858DE2464001459204399
:109C400048619C2080001858E02464001459204387
:109C500088629D2080001858C8629E208000185895
:109C600008639F20800018584863A020800018587F
:109C70008863A12080001858C863A220800018586B
:109C80000864A32080001B58C838125813430B6087
:109C90000398FFF7A9FA05B0F0BCBB46B246A94647
:109CA000A046F0BD0420F6E7807308400077084026
:109CB000002838D01D4B42681A608268DA60C2689A
:109CC0001A6102695A6142699A6482699A61C26939
:109CD000DA61026A1A66426ADA64826A5A65C26A9C
:109CE000DA62026B5A63426B1A65826B9A65C26BC9
:109CF000DA65026C5A64426C9A66826CDA66C26CEF
:109D00005A66026D1A63426DDA63826D1A62C26D21
:109D10005A62026E9A62426E1A64816E044AB023DD
:109D2000D150002070470420FCE7C0460062084084
:109D30000078084010B500F04BFE0449044A8858EA
:109D400098231B0603438B5010BDC046007004408F
:109D50003810000070B504000D00FFF7EBFF200085
:109D600029F045F8002800D070BD280029F048F8F7
:109D70000028F9D123685A681178054B1970517879
:109D8000597092789A702A681278DA70ECE7C046B7
:109D9000D014002010B543B2002B0ADB06499622EE
:109DA00052008B58054C2340000418438850002073
:109DB00010BD0120FCE7C04600900540FFFF00FFFA
:109DC000002829D0154B8622520001689950043290
:109DD000416899500432816899500432C1689950A1
:109DE0000432016999500432416999500432816901
:109DF00099500432C16999500432016A9950043271
:109E0000416A99500432816A99500432C16A99506A
:109E1000026BDA62002070470120FCE70070084006
:109E2000002834D01B4B862252009A5802608822A8
:109E300052009A5842608A2252009A5882608C22BC
:109E400052009A58C2608E2252009A5802619022A3
:109E500052009A584261922252009A58826194228A
:109E600052009A58C261962252009A580262982271
:109E700052009A5842629A2252009A5882629C2258
:109E800052009A58C262DB6A0363002070470120C7
:109E9000FCE7C04600700840F0B5C64600B582B089
:109EA0000400484BC218484B9A4204D9012002B022
:109EB00080BCB846F0BD454D454BEB63454908F0C5
:109EC00075FDEB6D1B0B1B030005000D1843802374
:109ED0001B021843E86520000BF02EFD00223E4BCC
:109EE0000AF0F0FA04000D0005F06AFF08F0ACFF7C
:109EF00006000BF021FD02000B00200029000BF0F2
:109F000053F90022354B08F0F1FE002857D00136F6
:109F1000334B1E60324B984618680BF00DFD06005F
:109F20000F0002000B00200029000BF03DF900900B
:109F3000019100222B4B300039000AF0C9FE0200CB
:109F40000B0009F055FF284A284B0AF0BBFA040021
:109F50000D000022234B009801990AF0B9FE02007F
:109F60000B0009F045FF204A204B0AF0ABFA020033
:109F70000B002000290009F03BFF22002B000BF012
:109F800013F905F0C7FE0BF0A1FC104A536B1849FA
:109F9000194043461B681B04FE24E40323400B4383
:109FA000802109060B4353639063124B9A6A402148
:109FB0000A439A629A6A8A439A62002077E7084BBA
:109FC0001E60A7E700425573C0DD91070076084088
:109FD000FFFFFF0740420F0080848E410000E03FFA
:109FE000D414002080847E410090D0038084DE3F22
:109FF000FFFF80FF807308400A4B5A6B52005208E3
:10A000005A639A6808490A409A60DA6D07490A401B
:10A01000DA65074B9A6A40210A439A629A6A8A4330
:10A020009A627047007608400000FFF0FF7FFFFF54
:10A030008073084010B5FF280DD043B2002B0EDB13
:10A04000084A936808490B40184390231B0518439E
:10A050009060002010BDFFF7CFFF0020FAE701203D
:10A06000F8E7C046007608400000FFF0024A136897
:10A0700008210B431360704780730840024A13683D
:10A0800008218B431360704780730840054B5B6861
:10A090001B0CFF211940044B5A68FF2313408B42CD
:10A0A000F9D17047807308408072084070B5051E72
:10A0B0001D4B5E6A35D01A005B6A1C490B40536227
:10A0C0001B48FFF7E9FEFFF7D1FFFFF7DFFF002492
:10A0D0000134E4B200F0A2FA002816D1012CF7D91D
:10A0E0000324002000F070FBFFF7C8FF002C0ED007
:10A0F000FFF782FF002C0FD00B4A536A8021090220
:10A100000E401E435662200070BD0024E9E7094856
:10A11000FFF7C2FE0400EBE72800FFF781FE040012
:10A12000EAE70124EFE7C04600700840FF7FFFFF29
:10A130004036288E809C2B8F043808280DD880004C
:10A14000084B1B589F460B2000E004207047052059
:10A15000FCE70C20FAE70620F8E70348F6E70820BA
:10A16000F4E7C04640C80300FFFF000010B5034BF2
:10A170001869000EFFF7E0FF10BDC04600900540D3
:10A1800000280BDD80B20F4B984215D800290CDD5A
:10A1900089B20C4B994211D800200EE0404280B2A7
:10A1A000084B9842F2D9012007E0494289B2054B99
:10A1B000994205D8002000E0012070470120FCE70B
:10A1C0000120FAE76C070000F0B5D6464F46464638
:10A1D000C0B5051C894616000B00FB3B352B05D985
:10A1E0000020E0BCBA46B146A846F0BD011C8E2056
:10A1F000C00509F0AFF805F019FE08F00DFE804625
:10A20000032427E0484609F0B7FD051CBA49FE279C
:10A21000BF05381C09F09EF8011C281C09F064FADF
:10A22000051C8221C90509F05FFA05F0FFFDB34B5B
:10A23000E3189B00F71808F0EFFD3880291C8E20EA
:10A24000C00509F087F805F0F1FD08F0E5FD78801C
:10A250000134E4B20D2C00D9CAE0E31EDAB20A2AB6
:10A2600000D9C1E09300A64AD3589F46A54B9A4611
:10A2700082235B005246D058000C09F07DFD071C7C
:10A2800080235B005246D058000C09F075FD011C7C
:10A29000BFE79C4B9A4686235B005246D058000C81
:10A2A00009F06AFD071C82235B005246D058000C5F
:10A2B00009F062FD011CACE7924B9A4688235B00D3
:10A2C0005246D058000C09F057FD071C86235B004E
:10A2D0005246D058000C09F04FFD011C99E7894BFC
:10A2E0009A468A235B005246D058000C09F044FD80
:10A2F000071C88235B005246D058000C09F03CFD37
:10A30000011C86E77F4B9A468C235B005246D0584F
:10A31000000C09F031FD071C8A235B005246D0581F
:10A32000000C09F029FD011C73E7764B9A468E2339
:10A330005B005246D058000C09F01EFD071C8C2310
:10A340005B005246D058000C09F016FD011C60E776
:10A350006C4B9A4690235B005246D058000C09F093
:10A360000BFD071C8E235B005246D058000C09F0F1
:10A3700003FD011C4DE7634B9A4692235B00524656
:10A38000D058000C09F0F8FC071C90235B005246E3
:10A39000D058000C09F0F0FC011C3AE7594B9A46E2
:10A3A00094235B005246D058000C09F0E5FC071CD2
:10A3B00092235B005246D058000C09F0DDFC011CD2
:10A3C00027E7504B9A4684235B005246D058000C36
:10A3D00009F0D2FC071C94235B005246D058000CB5
:10A3E00009F0CAFC011C14E74349FE27BF0510E72A
:10A3F0004B461F0444490F404346D804C00C074352
:10A40000424C86235B00E75033889D00ED186D04B5
:10A410003F4F3D4070880A2108F0C8FAC004C00CC4
:10A42000054388235B00E550B3881B043B40F2885A
:10A43000D204D20C13438A225200A35033891B0446
:10A440003B407289D204D20C13438C225200A35099
:10A45000B3891B043B40F289D204D20C13438E22F1
:10A460005200A350338A1B043B40728AD204D20CA0
:10A47000134390225200A350B38A1B043B40F28A3C
:10A48000D204D20C134392225200A350338B1B04EC
:10A490003B40728BD204D20C134394225200A3503F
:10A4A000B28B12041B480240F18BC904C90C0A4349
:10A4B00096235B00E250338C1B040340728CD20461
:10A4C000D20C134398225200A350B28C12041248AB
:10A4D0000240F18CC904C90C0A439A235B00E25084
:10A4E000338D1B040340728DD204D20C13439C2283
:10A4F0005200A350012074E66666E641FDFFFF3F6F
:10A5000064C80300E0C303000000FF0100700840BE
:10A510000000FF0F0000FF1F0000FF3FF0B5D64610
:10A520004F464646C0B581468A469046002853D0DD
:10A53000002953D0FFF7AAFD00250026371C0AE0AA
:10A54000184300B209F0D2FB011C301C08F066FD74
:10A55000061C0135ADB2454520D2214BDC6B2305ED
:10A560001B0D8022120120001040144201D0F02067
:10A570000002184300B209F0B9FB011C381C08F0B6
:10A580004DFD071C240C23051B0D80221201200009
:10A5900010401442D4D0F0200002D1E7404609F028
:10A5A000EBFB041C011C381C08F0D4FE051C211C0C
:10A5B000301C08F0CFFE041C281C09F077FB4B462A
:10A5C0001880201C09F072FB534618800120E0BC63
:10A5D000BA46B146A846F0BD0020F8E70020F6E7ED
:10A5E000007008400A4A92235B00D1580948014094
:10A5F000D150D058802149030143D150D0588021F7
:10A6000089030143D150D15803480140D1507047CC
:10A6100080730840FFFFDFFFFFFFCFFFF0B5DE468E
:10A6200057464E464546E0B593B006AB9F1C002208
:10A6300000239B463A8006AB1A805F4C636A019305
:10A64000A16A029120680390A5680495666B05963F
:10A6500023685A490B402360C0239B03A360636AAD
:10A6600020218B4302390B436362554BE362226323
:10A67000FFF7B8FFE26A9246160A120C904652465D
:10A68000120E9146402206A93800FFF747FF4D4DB4
:10A690005A462A702A733B886B8006AA1388EB817E
:10A6A000FF22534613409B46103B3F210B40164070
:10A6B0003200103A1202FC2080010240134342464D
:10A6C0001204FF2109040A40904613434A46120629
:10A6D00091461343E362402206A93800FFF71EFFAC
:10A6E000F0232B712B743B88EB8006AA13886B82B6
:10A6F0005B4610333F210B4010363602FC208001B0
:10A7000006401E43424616434A461643E66240222E
:10A7100006A93800FFF702FF10232B722B753B8828
:10A720006B8106AA1388EB825246E262281D29003B
:10A7300028F06FFB071C2E000C362800103031006B
:10A7400028F067FB814628000830290028F061FBCB
:10A75000804628001430310028F05BFB051C414680
:10A76000381C08F05BFC494608F058FC291C08F02E
:10A7700055FCFA21890508F0B7FF051C8221C9059F
:10A7800008F0B2FF05F052FB08F046FB010007AAF3
:10A79000281CFFF719FD019B63620299A162039BCC
:10A7A0002360059E6663049DA56013B0F0BCBB46A4
:10A7B000B246A946A046F0BD00700840FF57FFFF13
:10A7C00020208080D8140020F0B5DE4657464E4643
:10A7D0004546E0B589B0050005A828F038FB02A879
:10A7E00028F035FB634B5A6A92469A6A91461A687A
:10A7F00090469A6893465F6B002D3FD100230193EA
:10A800005C4A13685C490B401360C0239B03936050
:10A81000536A20218B4302390B43536205A94B79BC
:10A820003F20034002A840790002FC24A4012040FC
:10A830000343097909040B4302A9097909060B436B
:10A84000D3620B24013CE4B22304F02212031A4029
:10A85000C0239B031343474A936005AE402202A9DD
:10A860003000FFF75BFE02AB0021595E0023F05E73
:10A87000FFF786FC0028E5D100242EE03F4A9368CC
:10A88000190001933E4B0B4093600C20FFF7D2FB65
:10A89000FFF7ECFBB4E705A80022835E438002AB20
:10A8A00000229B5E02AA538043793F22134002AAF2
:10A8B00052791202FC2189010A40134302791204E1
:10A8C000134302AA1279120613432A4AD362402282
:10A8D00002A9FFF723FE0134E4B20E2C17D805AE0F
:10A8E0002100300028F01CFB210002A828F018FBF2
:10A8F000337A002BCFD002AB1B7A002BCBD005AB29
:10A900005B7A002BC7D002AB5B7A002BC3D005AAC1
:10A9100051793F230B4002A949790902FC208001AB
:10A9200001400B4312791204134302AA1279120652
:10A930001343104AD362002D12D10E4B52465A6275
:10A940004A469A6242461A605F635A469A60FFF727
:10A9500049FE09B0F0BCBB46B246A946A046F0BDD0
:10A96000FFF78CFBFF20FFF765FB044B019A9A6011
:10A97000E3E7C04600700840FF57FFFF007608403D
:10A98000FFFFF8FF10B5104B5A6992B25B68DB0607
:10A9900011D50D494B68102003434B600B4B01212F
:10A9A00019750A4BDB68002B04D00848017DC9B239
:10A9B0000069984710BD044B5A6892B259680E203E
:10A9C00001435960EDE7C04600B00540F014002097
:10A9D000054A1168F0231B010B431360024B1B68EF
:10A9E000DB01FBD57047C0460090054070B5040000
:10A9F000194D1A49280004F039FA2B68182293439C
:10AA00002B60154B1B6818221A42FAD1124D144BB9
:10AA1000AB600123083A0021280004F08FFA0221DC
:10AA2000FF31280029F0ADFC002C03D021001220BA
:10AA300028F0EBFC0B4BC42080001A580A49114047
:10AA4000802212040A431A508022D202C0214900F7
:10AA50005A501A6070BDC0460090034090C8030071
:10AA6000FFFF000000E100E0FFFF00FF034A136862
:10AA700018218B4310390B4313607047009003403B
:10AA8000054A136818218B431360034B1B68182277
:10AA90001A42FAD17047C04600900340014B5868F3
:10AAA0007047C0460090034010B5030010220021FB
:10AAB000014804F043FA10BD00900340014B1A6DA9
:10AAC0001A65704700900340024B185C1F2398439F
:10AAD0007047C0461415002010B5034A14561F23B2
:10AAE00023400B43135410BD14150020024B1B5C74
:10AAF0001F2018407047C0461415002010B5034AA7
:10AB000013561F24A3430B43135410BD14150020E8
:10AB100010B50C8843010548C0188268C368002B33
:10AB200002D1944200D90A8010BDC046981200207C
:10AB300010B5FFF7C3FF034B18688021490200F0EE
:10AB4000A3FD10BD1015002010B50200054B1868BC
:10AB50000023002108F038F9FA229200002308F0BF
:10AB600013F910BD0815002010B528F0E8F9074BBF
:10AB700018600820FFF7E8FF80B2C043044B18803C
:10AB80000420FFF7E1FF034B188010BD08150020DB
:10AB9000B62E0020B82E002010B5144B1B78002BC9
:10ABA00000D010BD114B01221A701148FFF71EFF93
:10ABB000FFF7DAFF012000F0D5FD0E4B18600028EA
:10ABC0000CD000210C4800F0EFFC0028E9D1C8218E
:10ABD0000A4B0B4AFF310B4805F04AF9E2210A4BB8
:10ABE000074A4900074805F043F9C046923700205C
:10ABF00031AB000010150020380C0020C4C8030041
:10AC0000E0C80300B0C803009CC8030010B50024CE
:10AC10000A2C0BD8074B1B5D002B01D00134F7E742
:10AC2000E4B280212000FFF757FF00E0FF2420005E
:10AC300010BDC0461415002010B504000A2836D8EF
:10AC40001C4B1B5C002B01D1012031E028F0D9FB0B
:10AC50002000FFF739FF202805D0402803D028F036
:10AC6000CCFB002024E080212000FFF735FF2000EE
:10AC7000FFF73CFFC30615D50F4A1378013B13704D
:10AC80000E4B1B78002BEAD10B4B1B78002BE6D127
:10AC90000B4B1B78002BE2D0FFF7F2FE084B002293
:10ACA0001A70DCE7054A1378013B1370E8E70120CE
:10ACB00010BDC046141500209437002093370020A3
:10ACC0009537002010B50400FFF7B6FF002802D129
:10ACD000014B00221A5510BD14150020F0B5D646C0
:10ACE0004F4680B587B000230493724B1868012348
:10ACF00004AA00925B4200226F4900F0E1FC28F0B8
:10AD000080FBFFF7CBFE83B2994628F076FB6B4BB6
:10AD10001D884A46551BAAB203924A461A80684BC0
:10AD20001A880E2302A98C4663441A80002543E04A
:10AD300020212800FFF7D0FE28F05FFB0E2102AB98
:10AD40009C4661442800FFF7E3FE33E0B24250D94D
:10AD500028F057FB53465B015A4CE418A268E3689D
:10AD6000921BBB41A260E360FFF798FE208328F0AE
:10AD700044FB0E2102AB9C4661442800FFF7C8FE4D
:10AD800018E028F03EFB53465B014E4CE418226865
:10AD90006368A260E360FFF781FE20830E2102ABAF
:10ADA0009C4661442800FFF7B3FE28F026FB2EE006
:10ADB00028F023FB0135EDB20A2D35D82800FFF726
:10ADC00095FE040028F01DFB2800FFF77DFE4028BB
:10ADD000AED02028ECD128F010FBAA466A01394BEE
:10ADE0009B189A68DB68039E0027002BB0D1BB42FA
:10ADF000ACD00D232342C4D053465A01314B9B188B
:10AE0000002000219860D9602800FFF715FF534605
:10AE10005A012C4B9B1819690029CBD01300294AE1
:10AE2000D31858698847C5E728F0EBFAFFF736FED4
:10AE300083B24A469B1A9BB20E2202A98C466244F8
:10AE400012889A4229D8204A12889B180E226244FE
:10AE500013800E2302AA944663441888484418803D
:10AE60001A4B1B78002B03D1194B1B78002B0DD0EC
:10AE7000FFF706FE0E2302AA944663441888FFF7E4
:10AE800013FEFFF7F3FD134B01221A7028F0B5FAF9
:10AE900007B0C0BCBA46B146F0BDD21A0A4909880B
:10AEA0008A42D6DACB180E2202A98C46624413805D
:10AEB000CFE7C04610150020FFFFFF00BA2E00208C
:10AEC000B62E002098120020B82E002093370020C4
:10AED000943700209537002010B5040028F091FA2F
:10AEE0002000FFF7F1FD802815D12000FFF7FEFDBF
:10AEF000C30613D50C4A1378013313704021200088
:10AF0000FFF7EAFD28F079FA084B1868802149021A
:10AF100000F0BAFB10BD28F070FAFBE7044A137882
:10AF200001331370EAE7C046943700201015002063
:10AF300093370020F0B583B004000091170001930F
:10AF4000FFF77AFE061E02D0300003B0F0BD3800D5
:10AF5000FFF7FAFD05000F00FFF7A0FD62010D4BA2
:10AF60009B1818832B003B4301D101250027009932
:10AF70002000FFF7C3FD6201064B9B181D605F6058
:10AF80009D60DF60019A1A61089A5A612000FFF7FC
:10AF9000A3FFD9E798120020F8B5DE4657464E4683
:10AFA0004546E0B5344B1E68344B1B78002B09D165
:10AFB0000024002520002900F0BCBB46B246A9466B
:10AFC000A046F8BD28F01DFA2D4B1B6898468A2331
:10AFD0005B00F5588E225200B25801241440F758F5
:10AFE00028F00BFA002C40D04146013900220B001A
:10AFF000002C3CD03800002112184B41D443DD43D3
:10B0000003F054F9070080235B00F2580132560127
:10B01000B61AB3019E1BF600B618B601B042C9D0ED
:10B02000020000232000290007F0AEFE83468A4676
:10B030003A0000232000290007F0A6FE914698461A
:10B040005A4653463000002107F0BEFE04000D00B2
:10B050004A4643463000002107F0B6FE3A0000237E
:10B0600007F092FE24184D41A4E74146BEE72800B0
:10B07000002112184B41C1E7340C00209137002009
:10B080000C150020014B18607047C04620150020A9
:10B0900010B5034B1B68002B00D0984710BDC0466D
:10B0A0002015002000B583B010230193009101000A
:10B0B000024829F0D5F803B000BDC0460080054025
:10B0C000F0B5C64600B590B080460E0017000CAA39
:10B0D000204B13CB13C21B681360002300930C2278
:10B0E000002101A804F06CFF00230F2B04D804AC4E
:10B0F0000025E5540133F8E708AC2200414604A8D6
:10B10000FFF7D0FF0023E356002B0FDB310008A828
:10B1100027F03AFF0023F356002B11DB39003000F3
:10B1200027F032FF10B080BCB846F0BD694608A8D1
:10B1300027F02AFF32000CA9684627F048FFE9E70C
:10B140006946300027F020FF3A000CA9684627F036
:10B150003EFFE7E7ECC80300F0B589B00EAC20CCA9
:10B16000247813AE3678149FFF0713D50796129EE6
:10B17000069610260596109E04960393029201945B
:10B1800000950B00119A01000C4829F0BCF8C0B2E0
:10B1900009B0F0BD0796129E069610260596109EE1
:10B1A000049603930292019400950B00119A0100FA
:10B1B000024829F087F8C0B2EAE7C046008005409F
:10B1C00070B505000E000B4B18687246002102F0A6
:10B1D00083FB041E0CD00200310028000BF080F924
:10B1E000051E00D00225200002F0AEFB280070BD35
:10B1F0000125FBE738D4030010B5724604000E4B5E
:10B200001B68002B0FD00D4B1868002102F064FB67
:10B2100000280DD0A023E05020000BF07BF900287F
:10B2200008D0022005E060302100FFF7C9FF00E0F0
:10B23000012010BD0420FCE72015002038D40300B5
:10B24000F8B505000E0017000E4B18687246002175
:10B2500002F042FB041E12D003003A003100280025
:10B260000BF071F90500052803D0002802D0022553
:10B2700000E00325200002F067FB2800F8BD01254F
:10B28000FBE7C04638D4030010B572460400114BEA
:10B290001B68002B11D0104B1868002102F01CFB1A
:10B2A000002811D0A023E05020000BF076F90528EB
:10B2B0000CD000280CD0022007E002006032010010
:10B2C0002031FFF7BDFF00E0012010BD0320FCE7A7
:10B2D0000420FAE72015002038D40300094B1B682E
:10B2E0005B0507D5084B1B78002B02D0064B0022CC
:10B2F0001A707047044B1B78002BFAD1024B0122C5
:10B300001A70F6E7009002409737002010B5044904
:10B31000B4228B58072083438B50FFF7DFFF10BD0B
:10B320000090024010B596B0002315933A4C2000CF
:10B3300028F093FA4423E05C0133E35C1B020343EF
:10B340004622A05C000403430132A05C00061843BF
:10B350001590431E033307D9304B1B78002B0AD0BE
:10B360000024200016B010BD01300BF06DF92B4BFE
:10B3700001221A70F0E7684603F0BAFF80235B00F1
:10B380001493F0231B03139300236A4693709623B0
:10B39000DB00938022490D2028F037F869462148C8
:10B3A00003F0EAFFC0B200282AD1042215A91D48E3
:10B3B00029F0B3F8C4B2002C28D11A4804F024F8BC
:10B3C000159B581C0BF040F9144B01221A7002F027
:10B3D0002DFB114815AB1A784423C25411336B442A
:10B3E0001A784523C25411336B441A784623C25449
:10B3F00011336B441A784723C25428F030FAB0E76F
:10B40000094B0A4AA9210A4804F032FD064B074AB3
:10B41000AE21074804F02CFD902100209637002033
:10B420000DB30000009002400CC9030024C90300C2
:10B430001CC9030010B588B0002300931C22002112
:10B4400001A804F0BDFD094B01221A60002404E0AC
:10B450002000684427F091FF04341F2CF8D92022E3
:10B460006946034828F06FF908B010BD580C002059
:10B4700024150020F0B5C64600B588B080461700F8
:10B480000E0020220021684604F09AFD002F02D011
:10B49000244B01221A60234B1B68234A93423BD062
:10B4A0000133204A1360002F01D0002308E000235D
:10B4B00018E01E4CE45CFD5C64196A46D454013308
:10B4C0001F2BF6D96A462021684627F02BFF174A22
:10B4D000136801331360002310E0144AD25C6946FC
:10B4E000CA5401331F2BF8D9ECE79A00694651582A
:10B4F0000E481458A446614411500133072BF4D967
:10B50000202E00D9202600239E4206D96A46D25C0E
:10B510004146CA540133F7E7054E30B208B080BC4B
:10B52000B846F0BD580C0020A0860100241500206C
:10B53000FFFF0000054B1B68002B05D0013B034AB1
:10B540001360002B00D162B67047C046441500203E
:10B5500072B6024A13680133136070474415002025
:10B56000014B18687047C0464815002010B50C4ABA
:10B5700084230021D1507E3B581E002B0BD09A0013
:10B58000D3189A00064BD218810009188C001B1999
:10B59000DA600300F0E7034B014A1A6010BDC046B1
:10B5A000501500204C15002010B51A4B1C68002CBB
:10B5B0002DD0E2681A600368236001232371838819
:10B5C000E380A1600022E2602261134A1168002931
:10B5D00008D0CA88934209D90A69D28893420BD20B
:10B5E000C9680EE01460E460246110E0200027F0D8
:10B5F000FDFE094B1C600AE0200027F0F7FE06E084
:10B60000C968CA889342FBD8200027F0EFFE2000CB
:10B6100010BDC0464C150020B816002070B50400BF
:10B620000E0001000D4827F0CBFE002810D06379F2
:10B63000DDB2002B03D0002E0DD0032509E0FFF76B
:10B6400087FF0123637100232371FFF773FF00E07D
:10B650000125280070BD0225FBE7C04648C903004C
:10B6600010B504000100074827F0AAFE012801D008
:10B67000012010BDFFF76CFF00236371FFF75AFF35
:10B680000020F6E748C9030070B504000D00010072
:10B690000A4827F095FE012801D0012070BDFFF770
:10B6A00057FF216929432161A369002B01D00122A1
:10B6B0001A71FFF73FFF0020F0E7C0463CC90300C6
:10B6C000F8B504000D0016001F00069B002B30D0BB
:10B6D0000100194827F074FE002801D1012429E057
:10B6E000FFF736FFFFF73CFFA06123692B40069A66
:10B6F0001360002E01D1002B08D1AB4206D0002FE1
:10B7000015D0A36900221A71032405E000232371D8
:10B71000237D012B03D00024FFF70CFF0AE02369EF
:10B72000AB432361A36900221A710024F4E70224C9
:10B73000F2E701242000F8BD3CC9030010B527F052
:10B7400060FE074827F029FE040027F056FE002C73
:10B7500004D0002363712371A360E360200010BD57
:10B7600048C9030070B5050027F04BFE084827F0D4
:10B7700014FE040027F041FE002C06D000232371A4
:10B7800023612575A360E360A361200070BDC046FE
:10B790003CC9030010B50C4B1A680C4B1A6003E04F
:10B7A000094B1A68094B1A60084B1B681A79002A62
:10B7B00005D01A68002AF3D098689047F0E7DA6855
:10B7C000024B1A60F0E7C046B8160020481500206A
:10B7D00010B527F01FFE03F0DFFE27F00DFE00215D
:10B7E0000248FFF7E1FEFFF7D5FFC0465C0C0020E2
:10B7F00010B5002301E00133DBB2012B0FD85A0052
:10B80000D218D200074952588242F4D25A00D218B4
:10B81000D2008A1852689042EDD2012000E0002048
:10B8200010BDC04698170020F0B5C64600B506000A
:10B83000884600250AE00135ADB207E0E188A3881B
:10B840004B43C318B34227D80135ADB21848194B42
:10B85000C01A0C2107F0AAF880B2A84226D96C00C1
:10B860006419A400134BE4182068B042ECD8A77AFE
:10B87000002FE3D0A3889B00C318B342DBD9301A52
:10B8800080B28008434658802389424613800027AF
:10B89000380080BCB846F0BD301A80B207F086F898
:10B8A00043465880238942461380F1E70627EFE795
:10B8B000708400003484000070B5050000240D4839
:10B8C0000D4BC01A0C2107F071F880B2A0420AD9C2
:10B8D00063001B199B00084A9B181B89AB4202D0CE
:10B8E0000134A4B2EBE7A04201D0200070BD034CAC
:10B8F000FBE7C0467084000034840000FFFF0000B6
:10B9000070B50D001600FFF78FFF041E0BD12888BD
:10B910000C4B984209D0002E05D0FFF7CDFF3080A8
:10B92000084B984207D0200070BD074B074A0849D2
:10B93000084804F09DFA084B044A0849054804F0F9
:10B9400097FAC046FFFF000054C90300D0C90300A6
:10B950004F14000080C903008CC903005414000078
:10B9600010B582B03D4B1A7853009B18DA003C4B5F
:10B97000D4580834394B1A7853009B18DA00384BE6
:10B980009B185B68A34265D908222100684627F00E
:10B99000DAFE019B009A013201D00834EAE7013354
:10B9A000FBD12E4B1A7853009B18D9002C4BCB5847
:10B9B0000833A34201D0083C14E0294953009C18E5
:10B9C000E0000818274C04614461002043E0530064
:10B9D0009A18D100224B5B185C6100203BE00020EC
:10B9E00039E0083C1D4B1A7853009B18DA001C4BB9
:10B9F000D3580833A3422BD808222100684627F0E9
:10BA0000A2FE6B461B786A46D2799342E9D1AA2BF3
:10BA100001D0552BE5D1114B1A7853009B18DA0051
:10BA20000F4B9B181C610D4B1A7853009B18D900C3
:10BA30000B4BCB580833A342D1D8019B1B021B0CE4
:10BA4000C5D1083C08222100684627F07CFEEAE7C1
:10BA50000B2000E00B2002B010BDC046983700203C
:10BA6000981700200000FF3F10B5140043001B187A
:10BA7000DB000B4A9B5808338B420ED84300181842
:10BA8000C000101843688B4201D2072006E008224C
:10BA9000200027F058FE002000E0072010BDC0461F
:10BAA0009817002070B584B00400264B1878430026
:10BAB0001B18DB00244AD3181969244B994209D179
:10BAC00043001818C0001018C368103B2360002002
:10BAD00004B070BD02AAFFF7C7FF00282FD1039B57
:10BAE0001B021B0C12D0174B1E78174D72009319B6
:10BAF000DB005B5903990902090C5B189219D2000B
:10BB0000AA1812699B1A083B2360E1E70D4B1878CD
:10BB100043001B18DB000C4AD31859696A46FFF72B
:10BB2000A3FF002802D000232360D1E7019B1B0262
:10BB30001B0C0D226A4413701B0A5370D3E70023B9
:10BB40002360C5E798370020981700200000FF3FCA
:10BB500070B582B006000D00140004E0013314D16A
:10BB600000202BE00834164B187843001B18DB002C
:10BB7000144AD3185B68A3421FD96A462100FFF715
:10BB800073FF019B009A0132E8D0019B1B021B0C42
:10BB9000E8D16B46DA781B791B021343AB42E1D143
:10BBA000009B1A02120C73009B199B0006495B183C
:10BBB0001B899A42D6D1012000E0002002B070BD5E
:10BBC00098370020981700203484000030B583B0E7
:10BBD00004000D0000E0083C104B187843001B18CF
:10BBE000DB000F4A9B580833A34212D86A46210053
:10BBF000FFF73AFF6B461B78552BECD16A46D2799A
:10BC00009342E8D1009B1B021B0CAB4204D0083CC2
:10BC1000E2E7002003B030BD2000FBE798370020AA
:10BC20009817002070B582B0404B1A7853009B18CB
:10BC3000DB003F4AD3181C693E4B9C4202D102B044
:10BC400070BD083C394B187843001B18DB00384A9C
:10BC50009B580833A34242D86A462100FFF704FFED
:10BC60006B461B786A46D2799342EAD1AA2BE8D177
:10BC7000009B1802000CFFF71FFE03002E4A9042A3
:10BC80001FD04000C01880002C4BC018837A022BB4
:10BC900017D105686B46DA781B791B0213439B00AA
:10BCA000ED182E683000FFF7A3FD00280BD1731CA0
:10BCB00009D0019B1B021B0C07D1013B2B60083CE8
:10BCC000C0E7083CBEE7083CBCE7184A11784A00C8
:10BCD0005218D20016495258D3182B60EFE70024AF
:10BCE00010E000200860013292B29988914207D991
:10BCF000910018688446614408680130F3D1F0E788
:10BD00000134A4B20E480D4BC01A0C2106F04EFEB1
:10BD100080B2A04200D892E763001B199B00074A3B
:10BD20009B189A7A022AEBD10022DEE7983700208E
:10BD3000981700200000FF3FFFFF00003484000040
:10BD40007084000070B582B003000E000500400052
:10BD5000C018C000264BC45808340CE0013313D17E
:10BD6000002029E008346B005B19DB00204AD3185F
:10BD70005B68A34238D908222100684627F0E3FC1B
:10BD8000019B009A0132E9D06B461978DB79994220
:10BD9000E8D17378B27812021A43009B1B021B0C85
:10BDA0009A4201D00834DEE73378AA2B06D0552B0F
:10BDB00018D1AA2914D0012002B070BDAA2915D12A
:10BDC0006B46DB786A46127912021A43F1783379AE
:10BDD0001B020B439A4201D10120EDE70834C2E770
:10BDE0000834C0E70834BEE70020E5E70120E3E7B8
:10BDF00098170020F0B583B006000C0017000193DF
:10BE000008AB1D784B78887800021843FFF754FD83
:10BE100038802278E3799A4206D03368083B336051
:10BE20000025280003B0F0BD1C4B9842F5D0627885
:10BE3000A3781B021343019A9342EED021002800FD
:10BE4000FFF780FF051EE8D12378AA2B05D0552BDC
:10BE500003D03368083B3360E3E7388843001B189E
:10BE60009B000F4A9B189A7A002A13D01B68E2782D
:10BE70002179090211438A00D358002B01D00125F2
:10BE8000CFE73268FFF764FE002805D03368083B2F
:10BE90003360C6E70125C4E70125C2E7FFFF0000C4
:10BEA0003484000010B5012801D9022010BD084CCF
:10BEB00043001A18D200A218D1681818C0000059FF
:10BEC000002201F0DDFD0028F0D00320EEE7C0469F
:10BED0009817002070B504001500431E5A1E9341A8
:10BEE0000C4A1370002900D170BDFFF7DBFF032857
:10BEF0000CD0002DF8D1084B5C7060000419E400F0
:10BF0000064AA2585A6001221A70EDE7002DF2D1BC
:10BF1000EFE7C04698370020C01600209817002091
:10BF2000F0B5CE46474680B583B0061E2DD004241A
:10BF30003A4D0422296801A827F005FC019F6B688F
:10BF4000E1180739042201A827F0FDFB019B984660
:10BF50000422A96901A827F0F6FB019B9946E9692B
:10BF600061180739042201A827F0EDFB019B474522
:10BF70000DD047453FD0994531D0294B02221A7048
:10BF800003B0C0BCB946B046F0BD0400D0E77A1C8F
:10BF9000EFD0994509D0994519D0224B1F60002256
:10BFA00031000120FFF796FFEAE74A460132F2D05E
:10BFB0004F4505D31B4B1F60194B00221A70DFE75A
:10BFC000184B4A461A60164B01221A70D8E7154BD7
:10BFD0001F60012231000120FFF77CFFD0E74B46B4
:10BFE0000133CAD00F4B4A461A60002231000020AC
:10BFF000FFF770FFC4E7994503D0094B02221A707E
:10C00000BEE74B460133F8D0064B4A461A60012280
:10C0100031000020FFF75EFFB2E7C046981700200E
:10C0200098370020CC16002010B54B071CD1124BBE
:10C030001A7853009B18DB00104C1B59834215D80B
:10C0400053009A18D200A2185368834210D30A18DA
:10C0500001339A4201D9002007E0002201F010FDCF
:10C06000002807D1013000E0002010BD0020FCE7CF
:10C070000020FAE70020F8E7983700209817002002
:10C08000F0B5CE46474680B583B00400884615001B
:10C090001E000A9F2E4B187843001B18DB002D4A08
:10C0A000D3181B6933602C4A93420ED129494300AF
:10C0B0001A18D2008A185268521B073A3A601818A8
:10C0C000C00043580833336026E0224B99464300B2
:10C0D0001B18DB004B4459696A46FFF7C5FC1C4B33
:10C0E0001A7853009B18DB004A469B58019A1202AB
:10C0F000120C9B185B1B3B603368083333600BE00A
:10C1000008213068FFF790FF00281ED1AC4217D3FA
:10C11000083C33680833336043460833A3420ED2E9
:10C1200029003868FFF780FF0028E9D1002DE7D00B
:10C13000AC4205D3641B3B685B1B3B60ECE7002013
:10C1400003B0C0BCB946B046F0BD0120F8E7C04618
:10C1500098370020981700200000FF3FF0B583B00B
:10C160000D000092019308AB40CB1A882B4B1C7832
:10C1700063001B19DB002A49CB185B68834202D895
:10C18000072003B0F0BD0F006B005B19DB005858AF
:10C19000801863001919C9007918C968891A1B1910
:10C1A000DB00DB59D2180439043827F0F8FA0028EC
:10C1B00001D00120E5E71B4B1B680093002301938E
:10C1C0006B005B19DB00164A98586A46082127F075
:10C1D000E6FA002801D00120D3E70096002301935E
:10C1E0006B005B19DB000E4AD318586807386A46A3
:10C1F000082127F0D4FA00280ED1084801780A4A0D
:10C2000051704B005B18DB0005495B5853600123FC
:10C21000137005700020B4E70120B2E798370020C2
:10C2200098170020CC160020C016002010B582B050
:10C23000040043001B18DB00124A9858124B1B687D
:10C240000093002301936A46082127F0A8FA0028EA
:10C2500002D0002002B010BD0B4B1B6800930023DE
:10C26000019360000419E400064804196068073867
:10C270006A46082127F093FA002801D00020E9E758
:10C280000120E7E798170020CC16002010B5040025
:10C29000012801D9022010BD094863001A19D200F3
:10C2A0008218D1681B19DB00185801F015FCC0B2C8
:10C2B000002801D00420EEE72000FFF7F3FDEAE7B5
:10C2C00098170020F0B5CE46474680B589B00023C8
:10C2D00003930493384B1B780133012217001F404E
:10C2E000B8463800FFF7DEFD032814D00023994636
:10C2F000314B1A7853009B18DB00304A9E580422B9
:10C30000310007A827F01FFA079B01330793043673
:10C310000025082418E03800FFF7B8FF8146002800
:10C3200039D1E5E7013322D132E07B00DB19DB00B4
:10C33000224A9858201805AA082127F030FA002828
:10C3400024D10834A4B208361B4B1A7853009B182A
:10C35000DB001A4AD3185B68B34219D908223100AE
:10C3600005A827F0F0F9069B059A0132DAD0069B62
:10C370001B021B0CD9D01A1F1921694490B2FF254A
:10C380002A400A70000A48701D00CEE70123994632
:10C390004B46002B05D0484609B0C0BCB946B04654
:10C3A000F0BD0195079B0093039A049B4146300022
:10C3B000FFF7D4FE8146EEE798370020981700205B
:10C3C00070B51A4B1B78002B00D070BD01F02EFB0E
:10C3D000174B00221A70174C022323701648174A75
:10C3E000106017494908C9B21172164B4B43D3600C
:10C3F000C018451E556090612025515553621B1889
:10C40000013BD3610020FFF78BFD2378022B03D083
:10C41000064B01221A70D8E70120FFF781FD054B7A
:10C420001B78022BF4D0FFF74DFFF1E79B3700207C
:10C43000C01600209837002000B807009817002089
:10C44000080000000008000070B5831C04D0451CE3
:10C45000114B1D60032202E00125F9E72200541E62
:10C46000E4B2002A09D00020FFF710FF0028F5D120
:10C470000130FFF70BFF0028F0D1084B00221A70A3
:10C480000020FFF7D3FE002801D1132070BD024B1E
:10C490001D60FFF765FAF9E7CC16002098370020F9
:10C4A000F0B5DE4657464E464546E0B595B0804667
:10C4B000019117001E001EAB1C880822390002A83B
:10C4C00003F02CFD754B1A78013201231A405300FA
:10C4D0009B18DB00724A9B584246D31A99B202AAB3
:10C4E000FF2003405371090A91713B78AA2B12D0A7
:10C4F00073009B199B006B4A9B189D88D9884D43FC
:10C50000ADB2AC4246D22D1BADB2200006F04EFAC1
:10C5100083B29A4602E000239A46002500239946FA
:10C52000002C63D0402C43D97B79B9790902194397
:10C530005A4B1A7853009B18DB00594A9B58C9186C
:10C540004944402204A827F0FEF804AA40214046AE
:10C5500027F029F9002821D00C2399464B46002BBF
:10C5600010D1002D0AD0A044072344461C40424667
:10C570001A423ED100274B46002B6ED04B46002B73
:10C5800000D17FE0484615B0F0BCBB46B246A94694
:10C59000A046F0BD00239A460025BFE740239C46F5
:10C5A000E044403CA4B2494640318BB29946B7E7DB
:10C5B0007B79B97909021943384B1A7853009B18D3
:10C5C000DB00374A9B58C9184944220004A827F0C9
:10C5D000BAF804AA2100404627F0E5F8002802D165
:10C5E00000239946BDE70C239946CBE700239946E3
:10C5F000B4E79A43904608231B1B9BB29B46082234
:10C60000414604A827F09FF80022002793B25B451B
:10C6100015D273009B199B0022495B181968DB88AF
:10C6200050464343FB18C95C04AB19550137BFB2F0
:10C630000134E4B2AF4202D00132D2B2E6E704AA3A
:10C640000821404627F0AFF8002803D108239C4674
:10C65000E04490E70C2399468DE773009E19B600DD
:10C66000104BF6183368F28851464A43BA189A18A4
:10C67000E91B404627F097F8002800D17EE70C23FD
:10C6800099467FE702AA0821019827F08CF8002834
:10C6900000D177E70D23994674E7C046983700200C
:10C6A000981700203484000070B582B00400150093
:10C6B0004E007618B6001E497618B2885200002146
:10C6C0001C4827F064F800E0083CA5422DD21A4B24
:10C6D00018786A462100FFF7C7F96B461B786A464F
:10C6E000D1798B42F0D1AA2BEED16B46D2781B794F
:10C6F0001B021343B28893420AD2009A1102090C1A
:10C700006878AA7812020243914203D0083CDCE721
:10C71000083CDAE75A000749525A002AF6D1019A32
:10C720001202120C5B005A52F0E702B070BDC04614
:10C7300034840000C818002098370020F0B5DE4689
:10C7400057464E464546E0B589B003929946129B3E
:10C750009B464B005B189B00784A9A46924453468E
:10C76000DB88524692885A4390465A46FFF79CFF10
:10C77000002700254B460193B94666E0B6B27A0021
:10C780006F49525A002A23D10832101B6D4A117882
:10C790004A005218D2006C49515802915A465279B7
:10C7A00094465A469279120261460A4302998918C0
:10C7B0007B43C918691806AB9C466044320026F0DA
:10C7C000C2FFF6B2A41BE4B20137BFB2002545E0B8
:10C7D0000823181B5B4B19784B005B18DB005A4988
:10C7E00059588918691806AB9C466044320026F0F7
:10C7F000AAFFE6E70822101B524A11784A00521895
:10C80000D20051495158C918691806AB9C4660447A
:10C81000220026F098FF6519EDB24B46D800019B27
:10C820009C46604406AA082126F0B9FF002800D0E3
:10C8300073E04B4601339BB299464346082B00D820
:10C840006FE008235B429C46E0444346002B2FD018
:10C850000822FF2106A826F09AFF0824002CDCD02D
:10C8600053469A88BA42D8D95346DB881A005E1BD1
:10C87000B44283DA7B0032495B5A002BBAD10833C9
:10C88000181B304B19784B005B18DB002E495958A8
:10C890005B465E799B791B023343C9187A4389183A
:10C8A000691806AB9C466044220026F04CFFB2E7B4
:10C8B000019B99460024002C27D1552204AB1A7005
:10C8C0005B4659789B781B020B4304A94B701B0AEB
:10C8D0008B7004AB0021D97019711A4B1978013192
:10C8E000012319404B005B18DB0017495B58494690
:10C8F000CB1A99B204A8FF252B4043710B0A837110
:10C9000004ABDA718B0710D01F24200009B0F0BCF3
:10C91000BB46B246A946A046F0BD019B99460C24F1
:10C92000C9E7019B99460024C5E704AA082103989A
:10C9300026F035FF0028E8D00D24E6E73484000017
:10C94000C81800209837002098170020F0B5CE4670
:10C95000474680B58DB0070000230593854B1E78B0
:10C96000013601231A003240904616001000FFF7EE
:10C9700099FA032820D000257F4943465A004244B3
:10C98000D20053580822914699444B460793794B5D
:10C990001A7853009B18DB00CB181B690B93774A5E
:10C9A000934200D17BE043465B004344DB00CB185D
:10C9B0005B68073B069325E04046FFF767FC051ED2
:10C9C00000D09CE0D8E7099B1902090C0B98FFF7EF
:10C9D000FDF80590059B002B49D004AB029305ABF5
:10C9E000019322236B44009306AB09AA0BA907A865
:10C9F00026F08EFD051E52D1079B083307930B9B33
:10CA0000083B0B935B4B187843001B18DB005A4A1A
:10CA10009B5808330B998B4241D809AAFFF724F899
:10CA200000963B0022226A4409A90BA8FFF7E2F90D
:10CA30000028E7D022226A4413885C00E418A4008E
:10CA40004F4BE418A188E3884B43049304AB09A936
:10CA50000BA826F05BFD0028D4D109AB1B78AA2BCC
:10CA6000BBD1A37A002BAED000230593B2E72233CB
:10CA70006B441C8863001B199B00414A9B18DD888E
:10CA80000495280026F038FD069B181A069000959C
:10CA9000230009AA0799FFF703FD051E35D0002DD5
:10CAA0002DD134480178374A51704B005B18DB00B8
:10CAB00031495B585360012313700670079B9945F9
:10CAC00050D0083B424652004244D2002A498A18BC
:10CAD0001361294943465B0042469A18D2008A18DE
:10CAE00012694344DB00CB185A61274A13680133AB
:10CAF00013603000FFF79AFB002800D101252800C1
:10CB00000DB0C0BCB946B046F0BD22236B441A88B4
:10CB100053009B189B001A4A9B189B7A002B06D146
:10CB2000079B083307930B9B083B0B936AE726F0A0
:10CB300068FC22236B441A8853009B189B00104A00
:10CB4000D45809AAD17813791B020B439B00E4182F
:10CB50002068FEF74DFE002801D0069B236026F0DA
:10CB60004CFCDDE743465B004344DB00CB18034A43
:10CB70001A61AEE798370020981700200000FF3FA9
:10CB800034840000C0160020CC16002010B582B0FE
:10CB9000FEF7E6FE041E02D0200002B010BD0C4BD2
:10CBA00001221A7001A8FEF77DFF041E0AD1019B25
:10CBB0007F2B02D9FFF736F8EEE70648FFF7C6FEEF
:10CBC0000400F7E70020FFF73FFC0400E4E7C0465D
:10CBD0009C370020FFFF0000F0B5C64600B582B0CC
:10CBE000002301933748384BC01A0C2105F0DEFEB4
:10CBF00084B2631E9BB21E2B61D8002294420AD9D4
:10CC000053009B189B0030495B189B88102B0AD857
:10CC1000013292B2F2E70025002D06D0280002B0C2
:10CC200080BCB846F0BD1C25F6E7284826F0F7FB87
:10CC3000002309E0264AD9000020885452182549CB
:10CC40000988918001339BB21F2BF3D9224B00221C
:10CC50001A70FFF7B5FB214B1B78022B05D0002D76
:10CC6000DCD1FFF793FF0500D8E71C4B00221A70B8
:10CC70000020FFF7E9FB050001A8FEF713FF0023E2
:10CC8000984600270EE07E00F619B6000E4BF61807
:10CC9000F08826F031FC03000833B0885843804404
:10CCA0000137BFB2BC42EED843468033019A93426B
:10CCB000D5D90B4B0B4A0C490C4803F0D9F8202569
:10CCC000ACE7C0467084000034840000D016002019
:10CCD000C8170020841200209D37002098370020BC
:10CCE000BCC90300C0C90300AB0A000080C903002F
:10CCF00030B583B0050000920193099A4C00641886
:10CD0000A40024496418A37A002B03D043889B0015
:10CD100022689A58002A03D16B46002159719971F3
:10CD2000002A05D00899079826F03DFD00282CD14F
:10CD30006A460821069826F032FD002827D1164BB6
:10CD40001A7853009B18DB001449CB180699196117
:10CD5000019B1B021B0C06D051008A18D2000F4900
:10CD60008A1806995161A07A002811D0002B01D1B0
:10CD700000200DE023686A8892009B181868079AC3
:10CD80001A6000F0E1FD002002E00C2000E00D2020
:10CD900003B030BD3484000098370020981700207D
:10CDA000F0B5D6464F464646C0B58AB00500008865
:10CDB000FEF782FD06004E4B984200D191E04D4BAC
:10CDC0001F78002F00D08EE044002418A4004A4BA6
:10CDD000E418A37A002B01D000232B712B79002BB0
:10CDE0001DD0E388A2885A4390462368994655236C
:10CDF0009A46A07A002809D06B889B002268985830
:10CE0000002817D0FEF7F4FC002817D1002817D00F
:10CE100038000AB0E0BCBA46B146A846F0BDE38887
:10CE200098466B8842465343226891469944AA2308
:10CE30009A46DEE7380000239846E7E70120E5E759
:10CE400005A8FEF72FFE404626F056FB0200010023
:10CE50000831030010330598834204D9254B012281
:10CE60001A701127D4E708AB009309ABFFF708F954
:10CE700006AB52461A70DA71238919226A4413707C
:10CE80001B0A53706B881B226A4413701B0A537071
:10CE900008991A4B1A7853009B18DB00184A9B58C4
:10CEA000CB1A9CB21D226A44FF273B401370230A11
:10CEB0005370A30719D1002804D10E4B01221A7018
:10CEC000EE3FA5E74B460393434602930191099B2E
:10CED0000093069A079B31002800FFF709FF07001F
:10CEE00096E7092794E7112792E71F2790E7C046A6
:10CEF000FFFF00009937002034840000983700209D
:10CF00009817002030B583B00500204B1C78002C0A
:10CF100038D11F4826F0E9FA002834D069461C4869
:10CF200026F0BAFA00282BD006226946280002F023
:10CF3000F5FF6B461B88174A934216D0154A934259
:10CF4000ECD06846FFF72CFF11281CD11148FFF7E1
:10CF5000FDFC002802D1104B00221A706846FFF732
:10CF60001FFF041E0FD021240DE06A465188094A94
:10CF70009142E3D16A461279012ADFD1222402E0EC
:10CF8000040000E00024200003B030BD9A370020E8
:10CF9000D0160020FFFF000099370020F0B5C646EC
:10CFA00000B586B00100062204A802F0B7FF0026F3
:10CFB000002301930025984652E03F4AC023D35CEA
:10CFC000C0B200283AD004AA148819005A00D21816
:10CFD0005200394FD25B94420AD038498A4227D056
:10CFE0000138C0B20133DBB21F2BEAD90023E8E7D6
:10CFF0005C00E41864003C192479012C1DD004ACB9
:10D000002479012C0CD004AC64885F00F918490025
:10D01000294F791849888C42DFD1012398460DE0C9
:10D020005B0059184900791801230B71A04615E0DF
:10D03000002DD5D101930135D2E7A0464346002B00
:10D040000CD1012D1AD1019B58009C466044400030
:10D05000194B1818062204A902F060FF212E26D1D0
:10D06000154AC423D05A0028A7D10499059A12481A
:10D0700026F0E2F90028F1D11626EFE70499059A87
:10D080000D4826F0D9F90028E8D1062204A902A803
:10D0900002F044FF04A8FFF735FF06000299039A47
:10D0A000054826F0C9F90028D8D11626D6E7300061
:10D0B00006B080BCB846F0BDD0160020FFFF0000CF
:10D0C00010B582B00C000B4B1B78002B0DD0002844
:10D0D0000ED000226946FEF713FC002806D16B46ED
:10D0E0001C716846FFF75AFF00E00E2002B010BD29
:10D0F0000520FBE79C370020F0B583B00600002434
:10D10000002711E000234B8001330B7140E068469B
:10D11000FFF744FF162805D1ED002A4B0122EA54FF
:10D1200000E001270134A4B22748284BC01A0C2183
:10D1300005F03CFC80B2A04241D9002E0AD0E200AA
:10D14000204B9B185B88002B04D011001D4A5218FD
:10D15000013B53802500E3001A4A9B5C002BE1D081
:10D16000E200184B9B185B88002BDAD163001B1977
:10D170009B00164A9B181A8969460A809B7A002BE5
:10D18000C0D0E2000F4B9B18DB884B8000230B7153
:10D19000EB000C4A002199540D4B1B78002BB6D1A3
:10D1A0006846FFF7FDFD1128BCD16846FFF7F6FE83
:10D1B0001628B7D1ED00034B0122EA54B2E738003C
:10D1C00003B0F0BDC8170020708400003484000054
:10D1D0009A37002010B582B00C001F4B1B78002B33
:10D1E00035D0002836D06946FEF71EFB00282FD127
:10D1F0006B461C71194B1B78002B06D06846FFF755
:10D20000CDFE162824D00F2022E06846FFF7C8FD87
:10D2100011281DD11248FFF799FB002818D1114B96
:10D2200000221A70104B5878FFF730F800280FD101
:10D230000D494A7853009B18DB000C4AD3180C4A5E
:10D240001A6100230B706846FFF7AAFD00E00E206C
:10D2500002B010BD0520FBE79C3700209A37002064
:10D26000FFFF000099370020C0160020981700200B
:10D270000000FF3FF0B5D6464F464646C0B582B0E7
:10D280004B4B99464B4B984600239A460027002566
:10D2900068E0494BC0229F5A04329C5A0DE073004B
:10D2A0009E197600444B01225242F252013CA4B234
:10D2B0000137BFB21F2F00D90027002C57D03E00E6
:10D2C0007B00DB195B003C4A985AFEF7F5FA3B4BB2
:10D2D0009842E4D043001B189B00364A9B189A7A68
:10D2E000002ADCD01A687B00DB195B003249CB18BE
:10D2F0005B889B009B58002BD1D1D7E70134A4B2A7
:10D30000B388A3420DD9A00033689C466044002135
:10D31000FFF760FF05000528F0D00028EED00123BC
:10D320009A465346012B1BD00137BFB24B464246AB
:10D33000981A0C2105F03AFB80B2B84210D97E0051
:10D34000F619B6001B4BF618B37A002B24D13068BF
:10D350000121FFF73FFF050005281FD00028E3D07B
:10D36000222D1ED1144826F0C0F8002891D1144B6C
:10D370001B78002BDAD001235B426A46138053806E
:10D38000023313716846FFF709FE05001628E7D03F
:10D390002228E5D00F25E3E70024B1E70137BFB22B
:10D3A000C4E7280002B0E0BCBA46B146A846F0BDCA
:10D3B0007084000034840000D0160020FFFF0000BD
:10D3C0009A370020F0B5C64600B582B04B4B1B78AB
:10D3D000002B1FD04A4B1B78002B1BD1494B1B78CD
:10D3E000002B1BD1484B1B78002B32D0464B586882
:10D3F0005A7853009B18DB004449CB185B6898426D
:10D4000015D353009A18D2008A18414B13613E4B32
:10D4100000221A7002B080BCB846F0BD3D48FFF74C
:10D4200095FA0028DED1374B00221A70DAE73A4C21
:10D43000210000F051FB344B58680022210000F01D
:10D440001FFB002805D1304B5A68944664445C6049
:10D45000E0E7324B1B78002B1BD1314826F045F812
:10D460000028D7D069462E4826F016F80028D1D0DB
:10D470006B461B88274A934234D0264A9342F1D008
:10D480006846FFF78DFC1128ECD16846FFF786FD52
:10D49000C0E76421002026F066F8804625F070FD84
:10D4A00006000F001F4B1A685B6804000D00A41AE9
:10D4B0009D41FA22920000234046002105F084FCA1
:10D4C000194A002380185941A942C6D801D1A04267
:10D4D000C3D80120FFF710FE104B1870114B1E60CF
:10D4E0005F60BAE76A4651880A4A9142C5D16A46E6
:10D4F0001279012AC1D1FFF7BDFEB3E79C370020A6
:10D500009A37002099370020C01600209817002075
:10D510000000FF3FFFFF0000000800009D370020D3
:10D52000D0160020F8130020F07E0E0070B584B0F5
:10D5300005006B469A1D02A9FEF7E2F9041E57D1B9
:10D540006B46DA8853009B189B002B4A9B189B7AEA
:10D55000002B4CD02E683000FEF74AF9041E0BD188
:10D56000002E02D0300000F0EFF925F04AFF002332
:10D570002B6025F042FF3BE0204825F0B6FF002855
:10D5800029D01E4AC023D35AC421515A002922D07F
:10D5900002AA14885A00D2185200184E925B944284
:10D5A00007D0013989B201339BB21F2BEED900237A
:10D5B000ECE702AA56885A00D21852000F4CA21863
:10D5C00052889642EDD15A00D01840002200012422
:10D5D00064428452E5E725F014FF00232B6025F018
:10D5E0000CFF00212800FFF7F5FD040000E01B24DC
:10D5F000200004B070BDC04634840000D016002066
:10D60000F0B557464E46C0B487B0F146070002ABAE
:10D610009A1D04A9FEF774F9051E63D102ABDE88DA
:10D6200073009B199B00334C1C19A37A002B58D014
:10D630003B689A461800FEF7DBF80190002836D1C7
:10D640005346002B33D02C4825F04FFF002828D01C
:10D65000294AC023D35AC421515A002921D004AAEF
:10D66000158818005A00D2185200234FD25B9542F9
:10D6700007D0013989B201339BB21F2BEDD90023AA
:10D68000EBE704AA57885A00D21852001A4DAA187C
:10D6900052889742EDD15B00181840000122524297
:10D6A0004253F600154B0022F254019D1AE0E08827
:10D6B0004A46002100F010F9041E19D039680029EB
:10D6C00009D002ABDA8853009B189B00094A9B18CB
:10D6D000DA8826F038F825F094FE3C6025F08DFEBF
:10D6E00000E01B25280007B0C0BCBA46B146F0BD1B
:10D6F0001A25F7E734840000D0160020C817002050
:10D7000010B50B4B1B78002B02D01024200010BD4D
:10D710000120FFF761FA041EF8D1FEF70FF8054B60
:10D7200018600028F2D1024B00221A701934EDE77C
:10D730009C370020BC16002070B50400074D012165
:10D7400049422868FDF76AFF2000FFF759FF0400EF
:10D750002868FDF785FF200070BDC046BC1600207C
:10D7600070B50400074D012149422868FDF756FFB6
:10D770002000FFF7DBFE04002868FDF771FF2000A2
:10D7800070BDC046BC16002070B504000D00084EE8
:10D79000012149423068FDF741FF29002000FFF7D1
:10D7A0008FFC04003068FDF75BFF200070BDC046B1
:10D7B000BC16002010B50A4B1B68002B0BD0094C7F
:10D7C000012149422068FDF729FFFFF7FBFD206892
:10D7D000FDF746FF10BDFDF7C3FE014B1860EEE7F5
:10D7E000C8160020BC16002070B504000D00084EBD
:10D7F000012149423068FDF711FF29002000FFF7A1
:10D80000E9FC04003068FDF72BFF200070BDC04626
:10D81000BC16002010B50100C4688368002B01D03D
:10D82000032010BD054A138801331380200025F022
:10D83000F9FEE37C013BE3740020F2E7BC2E0020FC
:10D84000F0B5C64600B51F4B00221A8004320021F5
:10D850001D4825F09CFF1D4D1D4E1E4F24E0290044
:10D86000404625F0DFFEEE60B37C0133B374154A09
:10D870001388013313803B881033ED18013CA4B2A8
:10D88000002CECD13B88F381BB8833823B89B38188
:10D89000BA88002A04D191000B48095800290AD0FF
:10D8A000002B0BD0143608377C88B046210030009E
:10D8B00025F0B2FEE4E792001650F1E7002080BCAC
:10D8C000B846F0BDBC2E0020BC200020E818002087
:10D8D00058200020800C0020F8B505000E1E06D14F
:10D8E0008B00164A9C5825F08CFD002711E0144C43
:10D8F000F9E71037134A1388013B1380E37C0133A7
:10D90000E37425F07AFD3800F8BDA389002B12D00E
:10D910001434002DF5D0E389AB42F6D3B3B2228A9A
:10D920009342F2D1200025F0C3FE071EE1D1A38966
:10D93000AB42EAD2E5E70025EBE7C046BC20002079
:10D9400058200020BC2E002070B5002820D00500F3
:10D95000103D124B9D421DD3114B9D4201D9032412
:10D9600019E025F04EFDE9680E4B8B4208D09A89EC
:10D97000002A01D01433F8E725F03FFD03240AE024
:10D9800000212800FFF746FF040025F036FD02E0E5
:10D99000032400E00324200070BDC046E8180020E6
:10D9A0005820002058200020F0B583B004000E005D
:10D9B000170007231D000D400B421BD065252800D2
:10D9C00003B0F0BD08236A462100154826F0C6F8CA
:10D9D000050008E0134B1968611808236A461248CD
:10D9E00026F05CF9050025F008FD002DE7D1083789
:10D9F0000834083E002EE2D008223900684625F09F
:10DA0000A2FE25F0C8FE8023DB029C42DAD38023ED
:10DA10001B039C42DED325F0F0FC6625CFE7C04611
:10DA2000C0200020102200202821002070B50F4BBC
:10DA30001B78002B00D070BD0D4826F047F825F06C
:10DA4000E0FC0C4D280026F0F3F825F0D6FC0A4C3B
:10DA500022000421280000F081FF2368074A944631
:10DA600063442360014B01221A70E4E79E370020D3
:10DA7000C020002028210020102200200000FCFFF0
:10DA800070B504000D00160025F085FE8023DB0232
:10DA90009C4208D380231B039C420CD3662425F0B0
:10DAA000ACFC200070BD33002A002100074826F09E
:10DAB0007CF80400F3E7064B1968611833002A006C
:10DAC000044826F0FCF80400E9E7C046C020002026
:10DAD000102200202821002070B504000D0025F040
